:020000040800F2
:10000000000002204D620008F1230008F3230008DD
:10001000F5230008F7230008F9230008000000007A
:10002000000000000000000000000000815F0008E8
:10003000FB2300080000000021600008FD230008E9
:100040009D6200089D6200089D6200089D62000894
:100050009D6200089D620008132400089D6200084C
:100060009D6200081D240008272400089D620008E6
:100070009D6200089D6200089D6200089D62000864
:100080009D6200089D6200089D6200089D62000854
:10009000312400089D6200089D6200084124000888
:1000A0009D6200089D6200089D6200089D62000834
:1000B0009D6200089D6200089D6200089D62000824
:1000C0009D6200089D6200089D6200089D62000814
:1000D0009D6200089D6200089D620008F50F0008FF
:1000E0009D6200089D6200089D6200089D620008F4
:1000F0009D6200089D6200089D6200089D620008E4
:100100009D6200089D6200089D6200089D620008D3
:100110009D6200089D6200089D6200089D620008C3
:100120009D6200089D6200089D6200089D620008B3
:100130009D6200089D6200089D6200089D620008A3
:100140004D2400089D6200089D6200089D62000821
:100150009D6200089D6200089D6200089D62000883
:100160009D6200089D6200089D6200089D62000873
:100170009D6200089D6200089D620008000000006A
:080180009D6200089D62000869
:1001900010B5054C237833B9044B13B10448AFF3C1
:1001A00000800123237010BD3000002000000000FB
:1001B0009C63000808B5034B1BB103490348AFF328
:1001C000008008BD00000000340000209C6300088F
:1001D00053B94AB9002908BF00281CBF4FF0FF31AE
:1001E0004FF0FF3000F074B9ADF1080C6DE904CEAA
:1001F00000F006F8DDF804E0DDE9022304B0704702
:100200002DE9F047089D04468E46002B4DD18A42C9
:10021000944669D9B2FA82F252B101FA02F3C2F1FC
:10022000200120FA01F10CFA02FC41EA030E94408D
:100230004FEA1C48210CBEFBF8F61FFA8CF708FBAE
:1002400016E341EA034306FB07F199420AD91CEB86
:10025000030306F1FF3080F01F81994240F21C81B8
:10026000023E63445B1AA4B2B3FBF8F008FB103300
:1002700044EA034400FB07F7A7420AD91CEB040435
:1002800000F1FF3380F00A81A74240F20781644405
:10029000023840EA0640E41B00261DB1D44000238A
:1002A000C5E900433146BDE8F0878B4209D9002DEE
:1002B00000F0EF800026C5E9000130463146BDE878
:1002C000F087B3FA83F6002E4AD18B4202D38242E2
:1002D00000F2F980841A61EB030301209E46002D91
:1002E000E0D0C5E9004EDDE702B9FFDEB2FA82F2E6
:1002F000002A40F09280A1EB0C014FEA1C471FFA44
:100300008CFE0126200CB1FBF7F307FB131140EA2A
:1003100001410EFB03F0884208D91CEB010103F1F7
:10032000FF3802D2884200F2CB804346091AA4B2B9
:10033000B1FBF7F007FB101144EA01440EFB00FE8D
:10034000A64508D91CEB040400F1FF3102D2A645F2
:1003500000F2BB800846A4EB0E0440EA03409CE791
:10036000C6F12007B34022FA07FC4CEA030C20FA3E
:1003700007F401FA06F31C43F9404FEA1C4900FA5E
:1003800006F3B1FBF9F8200C1FFA8CFE09FB1811DB
:1003900040EA014108FB0EF0884202FA06F20BD94E
:1003A0001CEB010108F1FF3A80F08880884240F29E
:1003B0008580A8F102086144091AA4B2B1FBF9F0E2
:1003C00009FB101144EA014100FB0EFE8E4508D9DD
:1003D0001CEB010100F1FF346CD28E456AD9023862
:1003E000614440EA0840A0FB0294A1EB0E01A14247
:1003F000C846A64656D353D05DB1B3EB080261EBB5
:100400000E0101FA07F722FA06F3F1401F43C5E98E
:10041000007100263146BDE8F087C2F12003D840C4
:100420000CFA02FC21FA03F3914001434FEA1C4706
:100430001FFA8CFEB3FBF7F007FB10360B0C43EAF8
:10044000064300FB0EF69E4204FA02F408D91CEBA8
:10045000030300F1FF382FD29E422DD902386344A6
:100460009B1B89B2B3FBF7F607FB163341EA034146
:1004700006FB0EF38B4208D91CEB010106F1FF3895
:1004800016D28B4214D9023E6144C91A46EA00468C
:1004900038E72E46284605E70646E3E61846F8E61E
:1004A0004B45A9D2B9EB020864EB0C0E0138A3E767
:1004B0004646EAE7204694E74046D1E7D0467BE748
:1004C000023B614432E7304609E76444023842E7C0
:1004D000704700BFB0B1AAB10170116841605168A6
:1004E00081609268C26080ED040AC0ED050A0022B6
:1004F0008263426302630262C26282624262426457
:100500000264C263704700000346002800F0A38025
:10051000D0ED107AC0ED117AD0ED0F6AC0ED106AFF
:10052000C0ED060A80ED070A70EEC00AC0ED0F0AA2
:100530000278002A4CD190ED017A20EE877A80ED86
:10054000097AD0ED027A60EEA77A90ED0A6A77EE2A
:10055000867AC0ED0A7A426B8263026B426370EE68
:10056000E60AC0ED0C0AD0ED036A60EEA60AC0ED03
:100570000B0AD0ED056AF4EEE67AF1EE10FA13DD1F
:10058000C0ED0A6AD3ED0A7A37EE277A70EE870A51
:10059000C3ED080AD3ED047AF4EEE70AF1EE10FA9F
:1005A0000CDDC3ED087A15E0F1EE666AF4EEE67A4A
:1005B000F1EE10FAE6D5C0ED0A6AE3E7F1EE677AEC
:1005C000F4EEE70AF1EE10FA04D5C3ED087A01E083
:1005D000012A02D093ED080A704790ED017A30EEBF
:1005E000E66A27EE067A80ED097A90ED026A20EE3F
:1005F000866A80ED0A6A426B8263026B426376EE22
:10060000A66A70EEE60A77EEA00AC0ED0C0AD0EDFD
:10061000037A60EEA77AC0ED0B7A37EE067A77EEB2
:10062000877A90ED087A77EE877AC0ED087A90EDB8
:10063000047AF4EEC77AF1EE10FA02DD80ED087A62
:10064000C8E7B1EE477AF4EEC77AF1EE10FAC1D5F9
:1006500080ED087ABEE79FED010A704700000000B8
:1006600080ED030A0B6883600023036043607047DA
:1006700080ED000A90ED027A90ED036A77EE066A4B
:10068000C7EE267A90ED017A67EE877A86EE267AB3
:1006900027EE000A37EE800A80ED010A7047B4EEBB
:1006A000E00AF1EE10FA07D4B4EEC10AF1EE10FA46
:1006B00004DDB0EE410A7047B0EE600A7047B4EE58
:1006C000E01AF1EE10FA1ED4B4EEC01AF1EE10FAF0
:1006D0000AD571EE600A01E030EE600AB4EEC10A9C
:1006E000F1EE10FAF8DC7047F4EEC00AF1EE10FA01
:1006F00009DD31EE601AB4EEE00AF1EE10FA02D52F
:1007000030EE010AF7E7704710B58AB0012208926F
:10071000002306930792009301930293039305939A
:1007200004930E4C6946204601F060FF204601F01C
:10073000F9FF0221204602F046F90E2309930593A2
:10074000074C6946204601F051FF204601F0EAFFC0
:100750000221204602F037F90AB010BD2C0C00200F
:10076000540C002010B58AB001AB03AA002102F09E
:1007700085F80398A0F20123062B01D90AB010BD19
:10078000C0B2431EDBB2194A1370194903EB830C44
:100790004FEA4C0201EB020C8C5EACF808409DF86D
:1007A00004409DF805E04EEA042E21F802E09DF891
:1007B0000620120212B29DF807E042EA0E02ACF8DF
:1007C00002209DF80820120212B29DF809E042EAC8
:1007D0000E02ACF804209DF80AC003EB83035A0014
:1007E000114481F806C000F0DBFDC7E76C00002073
:1007F0007000002010B582B08E4694460F494FF429
:1008000000720A6000228A60CA6008220A610C4AEB
:100810000412147050704FEA2E20907082F803E09A
:100820004FEA2C20107182F805C018129071D37114
:1008300001AB044801F0A4FF02B010BD5400002039
:100840004C0000202C0C002000F0030000EB800086
:10085000014B03EB40007047700000200246002867
:1008600052D0002322E003EB830102EB8101C86830
:10087000B0F9020007EE900AF8EEE77A9FED237ACE
:1008800067EE877AC1ED057A03EBC30102EBC10184
:10089000D1ED237A9FED1E7A67EE877A03EB830111
:1008A00002EB8101C1ED047A0133DBB2032BDAD90B
:1008B00092ED0A5AD2ED057A35EE677AD2ED0F5AEB
:1008C00037EE257A92ED146A37EE467AF5EE006A35
:1008D00027EE267A82ED797AF1EE677A77EEC57A9D
:1008E00035EEA77A36EE077A27EE267A82ED7A7A07
:1008F00077EEE57A77EEC67A67EEA67ADFED056ADF
:1009000087EEA67A82ED7B7A704700BF0A01DA395A
:100910000000FA43CDCC4C3EB1EE407A37EE607A1F
:10092000DFED0F7A61EE277A37EE277A80ED007AD5
:1009300030EE607A77EE877AC0ED017A70EE207A39
:100940009FED087A21EE071A77EE817AC0ED027AE0
:1009500070EEC00A31EE201A80ED031A704700BF16
:10096000EB5138BEAF4761BE002853D038B52DEDEE
:10097000028B05460323037200F038FB2860002435
:1009800017E02046FFF760FF04EB840305EB8303C9
:10099000D86004EBC400C00058302844DFED1E0AC4
:1009A0009FED1E0A1E4A00210430FFF793FD01341B
:1009B000E4B2032CE5D9DFED1B0AB1EE080A1A4AAE
:1009C000002105F5BE70FFF785FD9FED188A1849D7
:1009D000B0EE480A05F5E270FFF742FE1549B0EEA9
:1009E000480A05F5EA70FFF73BFE4FF08043C5F873
:1009F00008324FF04043C5F80C324FF07F53C5F832
:100A000010320D4BC5F814322846FFF727FFBDEC16
:100A1000028B38BD704700BF0000FA4400007A46E0
:100A20001C640008CDCC4C3E106400086F12033BE0
:100A3000086400080C6400080000C0BF18B108B5C5
:100A400000F03CFC08BD7047002800F09D8010B508
:100A50002DED028B84B0044600230393029301938F
:100A6000034601AA02A903A800F060FC237AA3B1FF
:100A7000012B3AD0022B6FD0032B32D1039BC4F849
:100A8000F031029BC4F8F431019BC4F8F831002323
:100A9000C4F8C831C4F8D83123E0039BC4F8F0315E
:100AA000029BC4F8F4319FED391ADFED390A9DED50
:100AB000010AFFF704FE84ED800A94ED821AD4ED5A
:100AC000830A94ED7C0AFFF7EAFD84ED7C0A94ED3D
:100AD000841AD4ED850A94ED7D0AFFF7E0FD84EDDC
:100AE0007D0A04B0BDEC028B10BDDFED288A9FEDBE
:100AF000288AB0EE681AF0EE480A9DED010AFFF769
:100B0000DEFD84ED810AD4ED867AB0EE681AF0EE4F
:100B1000480A30EE670AFFF7D2FDF0EE400A9FED7B
:100B20001D0A04F5BE70FFF7EFFC84ED7E0A94ED1C
:100B3000821AD4ED830A9DED030AFFF7B0FD84ED20
:100B40007C0A94ED841AD4ED850A9DED020AFFF724
:100B5000A6FD84ED7D0AC4E7019BC4F8F83194ED4D
:100B6000821AD4ED830A9DED030AFFF798FD84ED08
:100B70007C0A94ED841AD4ED850A9DED020AFFF7F4
:100B80008EFD84ED7D0AACE7704700BFDB0F494066
:100B9000DB0F49C00000000030B585B005460023DA
:100BA0000093019302930393684695ED7E1AD5ED69
:100BB0007D0A95ED7C0AFFF7AFFE2B7A032B16D04A
:100BC00000239FED3B7A16E004AA02EB830252ED6C
:100BD000047AFDEEE77A03EB830205EB820217EE5F
:100BE000901A91830133DBB2032BEDD95EE0002331
:100BF000FAE70133DBB2032B14D804AA02EB830219
:100C000052ED047A03EB830205EB8202C2ED067A11
:100C1000F0EEE77AB4EEE77AF1EE10FAE9D5B0EE4D
:100C2000677AE6E7F1EE007AB4EEE77AF1EE10FAD1
:100C300011DDC7EE876A00230BE003EB830205EBAF
:100C40008202D2ED067A67EEA67AC2ED067A013309
:100C5000DBB2032BF1D9002411E004EB840305EB94
:100C6000830304EBC400C00058302844D3ED060AC7
:100C700093ED050A0430FFF747FC0134E4B2032C7E
:100C8000EBD9002310E003EBC30205EBC202D2ED67
:100C90001F7AFDEEE77A03EB830205EB820217EE83
:100CA000901A91830133DBB2032BECD905B030BD30
:100CB00000000000034690B1417A027A91420ED0C2
:100CC00021B11AB90021C0F8001207E0012901D0B2
:100CD000012A05D0022901D0022A06D05A72704793
:100CE000D3F81812C3F80412F8E7D3F81812C3F8AF
:100CF0000412F3E708B540F2651004F097FB2248B0
:100D0000FFF732FE1FE0022000F03EFB80B303201D
:100D100000F03AFB60B3042000F036FB58B927E03E
:100D20001948B0F95830B0F94420B0F93010B0F992
:100D30001C00FFF75FFD022004F078FB002004F0A8
:100D4000C3FC124B1860104C2046FFF777FE20467C
:100D5000FFF7B0FF2046FFF781FD2046FFF774FE46
:100D60002046FFF719FF012000F00EFB0028CAD132
:100D7000002000F009FB0028D2D000231A461946B3
:100D80001846FFF737FDD6E7BC000020B80000206A
:100D9000002A7CD070B52DED028B82B005460E4640
:100DA0001446002863D0002961D01268B2F90230DD
:100DB00000930A339BB2142B01D800230093B2F99D
:100DC000003001930A339BB2142B01D80023019306
:100DD000DDED007AF8EEE78ADFED2D7A68EEA78A7E
:100DE000DDED017AB8EEE78ADFED2A7A28EE278A70
:100DF000938A13F0010F3ED0D4ED828A13F0040FD2
:100E00003FD094ED848AB0EE680A04F5E270FFF7F3
:100E10002FFCB0EE480A04F5EA70FFF729FCDFED7D
:100E20001E7AF4EEE78AF1EE10FA09D5DFED1B7AAF
:100E3000F4EEE78AF1EE10FA02DD0023C4F8C831BF
:100E4000DFED177AB4EEE78AF1EE10FA09D5DFED9F
:100E5000157AB4EEE78AF1EE10FA02DD0023C4F849
:100E6000D831D4F8C8312B60D4F8D831336002B00F
:100E7000BDEC028B70BD13F0020FBFD0D4ED838A9E
:100E8000BCE713F0080FBED094ED858ABBE770472E
:100E9000A69BC43B0AD7A3BB90C2753D90C275BD4B
:100EA000CCCC4C3DCCCC4CBD00285FD003460029B7
:100EB0005CD030B590F800C042784CEA022CCCF3FC
:100EC0000A0CA1F800C042788078D20842EA4012A9
:100ED000C2F30A0EA1F802E09A78D878920942EAA1
:100EE0008002187942EA8022C2F30A028A801879C5
:100EF0005C79400840EAC410C0F30A00C8805C79FD
:100F0000C4F301148C725C79A409CC729C79DD79EC
:100F100044EA05248C811C7A5D7A44EA0524CC815C
:100F20009C7ADD7A44EA05240C821C7B8C745C7B01
:100F3000CC749C7BDD7B44EA05248C821C7C5B7C2E
:100F400044EA03231CB20B81ACF5806CA1F800C00D
:100F5000AEF5806EA1F802E0A2F580628A80A0F56D
:100F60008060C880A4F580630B8130BD70470000AD
:100F700010B4164B1B685C6944F040045C61DC688B
:100F800044F01004DC60124B1C68236823F001035A
:100F9000236003E01C6824F001041C600C4B1B68F8
:100FA0001C6814F0010FF5D10A4C9C60D8601961DF
:100FB0005A601A6842F480221A60054B1A68136856
:100FC00043F0010313605DF8044B7047D00F00201D
:100FD000700F00200448004008B5034824228118FF
:100FE000FFF7C6FF08BD00BFF802002000487047A9
:100FF000E002002000B583B0324B1B681A6812F083
:10100000200F09D0002200921A6800925B680093BA
:10101000009B03B05DF804FB2B4A126812F0100F1E
:10102000F7D0002201921A6801925B680193019B3C
:10103000264B1B681A6812F4002F20D11A6822F080
:1010400001021A60214802685368C3F124039BB26D
:101050001F490B8024215160116841F40021116067
:1010600001680A6842F001020A60122BD1D11949C5
:101070001948FFF719FF002000F092F9C9E71A6834
:1010800022F001021A60114908684368C3F1240381
:101090000F4A1380242343601048836A23F40023FB
:1010A000836209680B6843F001030B601388122BFD
:1010B000AFD108490A48FFF7F7FE002000F070F9A9
:1010C000A7E700BFD00F002000480040700F0020AD
:1010D00040030020E0020020F802002000600240EF
:1010E0001C03002030B129B122B11BB100230360E1
:1010F0000B601360704730B129B122B11BB10023DE
:1011000003600B6013607047844630B329B322B389
:101110001BB31868B0F9020000EB8000400007EE36
:10112000900AF8EEE77ACCED007A1868B0F9000082
:101130006FF0090C0CFB00F007EE900AF8EEE77A6E
:10114000C1ED007A1B68B3F904300CFB03F307EE22
:10115000903AF8EEE77AC2ED007A7047B0B138B550
:1011600015461C4689B182B17CB12246FFF710FEBC
:101170002368B3F9043007EE903AF8EEE77A9FED72
:10118000047A67EE877AC5ED007A38BD704700BFF4
:101190000AD723BC002855D038B515461C4600296F
:1011A00035D0002A33D0002C31D02246FFF7F0FD95
:1011B00023689B8A13F0200F09D0234A12784AB97A
:1011C000214A01211170214A0021116002E01E4ACA
:1011D0000021117013F00F0F1AD01D4B1D4A1A6019
:1011E000194B1B78C3B91C4B00221A60174BD3ED67
:1011F000007A9FED1A7AF4EEC77AF1EE10FA03DD69
:1012000077EEC77AC3ED007A134B1B682B6038BDAD
:101210000F4B134A1A60E3E70C4C94ED000A05F0FB
:1012200079F80B4BD3ED007A20EE270A0A4B83EDB9
:10123000000AD4ED007A9FED0B7A77EE877AC4ED41
:10124000007AD3E7704700BF480300204C0300201A
:10125000000000207CD9A03E44030020DB0FC940E1
:101260003333333F7C59444400B338B515461C46EC
:10127000D9B1D2B1CCB12246FFF78AFD94ED810AF3
:101280002368B3F9043007EE903AF8EEE77A9FED61
:10129000087A67EE877A9FED071ADFED070A30EECE
:1012A000670AFFF70CFA85ED000A38BD704700BFEA
:1012B000BD370636DB0F4940DB0F49C0024610B38D
:1012C00003689B7A032B07D0022B0ED0012B06D18B
:1012D000154B0321197002E0134B04211970124BB6
:1012E0001B7833B90323137270470F4B0121197018
:1012F000F5E7012B08D0022B09D0032B0AD0042BD1
:101300000BD0052B0CD070470223137270470023BB
:1013100013727047012313727047022313727047D0
:1013200003231372EFE700BF4203002048B3844653
:1013300039B332B32BB310B5124804786CB1012C19
:101340000FD0022C11D0032C13D0042C15D0052C57
:1013500006D16046FFF7D8FE02E06046FFF7C2FE06
:1013600010BD6046FFF7C7FEFAE76046FFF712FFC1
:10137000F6E76046FFF778FFF2E76046FFF7EEFE1C
:10138000EEE770474203002000EBC000034B03EB85
:101390008000C07CC0F34010704700BF50030020A5
:1013A000F8B50446234E00EBC005AF0006EB8505FB
:1013B000F3596B6003F02CFFF051EB7C13F0400FFE
:1013C00004D0EA7C6FF38612EA74E86004EBC4038D
:1013D000184A02EB83039B6913B39847B0B1154BCE
:1013E00004EBC40203EB820202F11001D27C42F052
:1013F0002002CA70D2B242F08002CA7004EBC40468
:1014000003EB84031B6A53B1984708E004EBC40460
:10141000084B03EB8404E37C6FF3C713E374F8BD5C
:1014200004EBC404034800EB8404E37C6FF3C713AC
:10143000E374F4E75003002010B4030E0D4A137058
:10144000C0F3074203FB02F20B490A80C0F30721F5
:1014500003FB01F1094C2180C0B203FB00F0084BF3
:101460001880084B1B6858639963DA635DF8044B76
:10147000704700BF6C050020720500207005002039
:101480006E050020E00E002038B52DED088B0025FC
:1014900029E07BEE8ABA3BEE29BA7AEE89AA38EEC9
:1014A000288AFCEEEB7A17EE903AFCEECB7A17EE38
:1014B000900A020442EA0360FCEEEA7A17EE903AE0
:1014C00040EA0323FCEEC87A17EE900A1843FFF7B0
:1014D000B3FF012004F0D7FB0134A4B2B4F57A7F46
:1014E000D7D30135ADB2052DD1D8234A52F82530D6
:1014F000190E0BEE901AF8EE6BBAC3F307410BEE20
:10150000101AB8EE4BBAC3F307210AEE901AF8EEA0
:101510006AAADBB207EE903AB8EE678A6B1C52F803
:1015200023301A0E06EE102AB8EE466A36EE6B6AC3
:10153000C3F3074206EE902AF8EE666A76EECB6AAF
:10154000C3F3072207EE102AB8EE477A37EE6A7A1D
:10155000DBB207EE903AF8EE677A77EEC87ADFED05
:10156000075A86EE25AAC6EEA59A87EE259AC7EEFB
:10157000A58A0024B2E700BF0400002000007A44DE
:1015800030B595B03022002108A804F0BBFE00243D
:101590000394049405940694079401941C4B1A6CCC
:1015A00042F080521A641B6C03F080530193019B3C
:1015B0000294184B1A6842F480421A601B6803F4C4
:1015C00080430293029B012308934FF480330993D5
:1015D00002250E954FF480030F9306231093A82342
:1015E000119312950723139308A801F02FFB0F23E3
:1015F0000393049505944FF4A05306934FF480533E
:101600000793052103A801F06FFD15B030BD00BFA1
:10161000003802400070004008B502F04FF9FFF7B3
:10162000AFFF00F023F800F013FA00F041F900F0EA
:101630005FF900F0F7FA00F061FD00F0B7FD00F08F
:1016400059FE00F0ABFB00F037FA00F0ADFA00F005
:10165000FFFC00F015FEFFF757F8FFF7BDFC00F0A8
:10166000E5F804F0D6FAFEE7704700002DE9F047F0
:101670008CB000240794089409940A940B94009465
:10168000564B1A6B42F002021A631A6B02F0020206
:101690000092009A01941A6B42F001021A631A6BCD
:1016A00002F001020192019A02941A6B42F00802C0
:1016B0001A631A6B02F008020292029A03941A6BE0
:1016C00042F004021A631A6B02F004020392039AB6
:1016D00004941A6B42F080021A631A6B02F08002C3
:1016E0000492049A05941A6B42F040021A631A6B32
:1016F00002F040020592059A06941A6B42F020020D
:101700001A631B6B03F020030693069B344F0122E0
:101710004021384601F05AFFDFF8CCA00122102109
:10172000504601F053FFDFF8C480012211464046C5
:1017300001F04CFF402307930125089509950A9570
:1017400007A9384601F050FE092607964FF4041900
:10175000CDF82090099507A9384601F045FE1023E1
:1017600007930895099502270A9707A9504601F0A3
:101770003BFE30230793CDF82090099507A919481F
:1017800001F032FE0795089509950A9707A940468A
:1017900001F02AFE22460621084602F00FF8062034
:1017A00002F044F822460521304602F007F83046A0
:1017B00002F03CF8224605210A2001F0FFFF0A2032
:1017C00002F034F822460521172001F0F7FF172018
:1017D00002F02CF80CB0BDE8F08700BF00380240E2
:1017E00000180240000802400000024000040240CD
:1017F00008B5012004F047FAFBE70000034B036043
:10180000034B0B6080231360704700BF80070020EC
:1018100080050020034B0360034B0B604FF4807383
:1018200013607047D40B0020D407002010B596B089
:101830001B4C0DF13C0CA646BEE80F00ACE80F00B7
:101840009EE807008CE8070000210FA804F0E6F9E5
:10185000144B18600DF1200C04F11C0EBEE80F00B3
:10186000ACE80F009EE807008CE80700002108A8FC
:1018700004F0D4F90C4B18600DF1040E04F1380C8F
:10188000BCE80F00AEE80F009CE807008EE80700F8
:10189000002101A804F0C2F9044B186016B010BD75
:1018A000B46300087C050020740500207805002042
:1018B00008B50D480D4B036003234360002383608C
:1018C000C3604FF4102202614FF4001242610376AC
:1018D00043768376C3760377437700F0E1FD00B962
:1018E00008BDFFF7C1FEFBE72C0C002000640040A0
:1018F00008B50D480D4B036003234360002383604C
:10190000C3604FF4102202614FF40012426103766B
:1019100043768376C3760377437700F0C1FD00B941
:1019200008BDFFF7A1FEFBE7540C00200068004053
:1019300010B58AB000230593069307930893099383
:1019400003683D4A934204D03C4A934234D00AB0E3
:1019500010BD3B4A136801331360012B1FD00024D4
:101960000194384B1A6B42F008021A631B6B03F0A8
:1019700008030193019B0323059302220692089317
:101980000923099305A9304801F02EFD22460621BE
:10199000142001F013FF142001F048FFD7E70023C3
:1019A0000093284B1A6C42F000721A641B6C03F00F
:1019B00000730093009BD2E700230293214B1A6C23
:1019C00042F080621A641B6C03F080630293029BF6
:1019D0001B4A136801331360012B20D000240494A8
:1019E000184B1A6B42F002021A631B6B03F00203DE
:1019F0000493049B60230593022306930323089317
:101A00000923099305A9114801F0EEFC224606219D
:101A1000402001F0D3FE402001F008FF97E70023AB
:101A20000393084B1A6C42F000721A641B6C03F0AB
:101A300000730393039BD1E70064004000680040FB
:101A4000280C002000380240000C02400004024034
:101A500010B582B000240094164B1A6B42F4800239
:101A60001A631A6B02F480020092009A01941A6BB6
:101A700042F400121A631B6B03F400130193019BE1
:101A8000224605210C2001F099FE0C2001F0CEFE2B
:101A9000224605213A2001F091FE3A2001F0C6FECF
:101AA000224605213B2001F089FE3B2001F0BEFECD
:101AB00002B010BD0038024008B50B480B4B036064
:101AC0000B4B436000238360C3604FF4804202618C
:101AD00043618361C361036201F01CFF00B908BD6B
:101AE000FFF7C2FDFBE700BF7C0C0020005C00405C
:101AF000801A06002DE9F04389B000230393049374
:101B00000593069307930268234B9A4202D009B0CB
:101B1000BDE8F08300250095204C236B43F00403BF
:101B20002363236B03F004030093009B0195236B55
:101B300043F001032363236B03F001030193019B33
:101B40004FF4007303934FF01209CDF810904FF04B
:101B50000108CDF81480032706970426079603A9E9
:101B60000F4801F041FC4FF480730393CDF81090BF
:101B7000CDF814800697079603A90A4801F034FCB3
:101B80000295236C43F400032364236C03F40003E5
:101B90000293029BBBE700BF005C0040003802409C
:101BA000000802400000024008B50A480A4B0360E2
:101BB000002343607C22826040F67F42C260036162
:101BC0004361836101F0D5FF00B908BDFFF74CFD0B
:101BD000FBE700BFD00C00200028004000B585B016
:101BE0000023009301930293039302680A4B9A42E5
:101BF00002D005B05DF804FB02230093074B03936A
:101C0000684601F047FB20B9054B0122C3F83C2E82
:101C1000EFE7FFF729FDF7E70028004000031E006B
:101C20000000474208B50F480F4B03604FF4827322
:101C3000436000238360C36002220261012242618B
:101C40004FF4007282613822C26103624362836290
:101C50000A23C36201F0D3FF00B908BDFFF704FDFA
:101C6000FBE700BFB00D0020003001402DE9F0433C
:101C700089B00023039304930593069307930268A6
:101C80003F4B9A4202D009B0BDE8F08304460025DC
:101C9000009503F584335A6C42F480525A645A6CAE
:101CA00002F480520092009A01951A6B42F00202EF
:101CB0001A631A6B02F002020192019A02951A6BE2
:101CC00042F001021A631B6B03F001030293029BB3
:101CD000182303934FF00209CDF810904FF001083C
:101CE000CDF81480032706970526079603A92548F3
:101CF00001F07AFB80230393CDF81090CDF8148087
:101D00000697079603A9204801F06EFB1F48204B59
:101D100003604FF0C06343608560C5604FF480632B
:101D2000036145618561C5614FF4403303624562DB
:101D300001F0CCFCE8B9154BE3649C631548164BE5
:101D400003604FF0C0634360402383600023C3609F
:101D50004FF48062026143618361C3614FF40032DA
:101D60000262436201F0B2FC30B90A4BA3649C6387
:101D700089E7FFF779FCDEE7FFF776FCF5E700BFC0
:101D8000003001400004024000000240F00C00203E
:101D900040640240500D00205864024000B587B0F6
:101DA0000023029303930493059300930193154832
:101DB000154A0260A7224260836044F61F62C26037
:101DC00003614361836102F0E1F890B94FF48053FD
:101DD000029302A90B4802F0E4F968B900230093CA
:101DE00001936946074802F0EDFA40B907B05DF883
:101DF00004FBFFF739FCE9E7FFF736FCEEE7FFF7F6
:101E000033FCF3E7280F00200004014086B003688C
:101E1000284A934218D0284A934223D0274A934213
:101E20002DD0274A934237D0264A934218D1002317
:101E30000593254B5A6C42F400325A645B6C03F4F0
:101E400000330593059B0BE0002301931E4B1A6C96
:101E500042F002021A641B6C03F002030193019B1F
:101E600006B0704700230293174B1A6C42F004022D
:101E70001A641B6C03F004030293029BF0E7002337
:101E80000393114B1A6C42F008021A641B6C03F0A6
:101E900008030393039BE3E7002304930A4B5A6C64
:101EA00042F002025A645B6C03F002030493049B49
:101EB000D6E700BF0004004000080040000C0040CE
:101EC00000040140004401400038024030B58BB0AE
:101ED00000230593069307930893099303684F4AD9
:101EE00093420AD04E4A934229D04E4A934248D058
:101EF0004D4A93426FD00BB030BD002301934B4B42
:101F00001A6B42F004021A631B6B03F00403019383
:101F1000019B4FF4807305930223069301220792DD
:101F20000893099305A9424801F05EFA414C204606
:101F300001F088FF0821204602F0C2F9DBE7002308
:101F400002933A4B1A6B42F008021A631B6B03F0C0
:101F500008030293029B4FF48043059302230693E8
:101F6000012207920893099305A9334801F03CFA2E
:101F7000324C204601F066FF0821204602F0A0F90D
:101F8000B9E700250395294B1A6B42F080021A63CA
:101F90001B6B03F080030393039B4FF4E053059303
:101FA00002230693012207920893099305A9244866
:101FB00001F01AFA234C204601F044FF294620463E
:101FC00002F07EF90421204602F07AF90821204629
:101FD00002F076F98FE700250495144B1A6B42F056
:101FE00020021A631B6B03F020030493049B40231D
:101FF0000593022306930122079208930323099372
:1020000005A9114801F0F0F9104C204601F01AFF23
:102010002946204602F054F96DE700BF0004004055
:1020200000080040000C004000440140003802401D
:1020300000080240500E0020000C0240980E0020C4
:10204000001C0240E00E002000140240080E002098
:1020500000B58FB000230A930B930C930D93089354
:1020600009930193029303930493059306930793B3
:102070002048214A02604360836042F2CF02C2607E
:102080000361836101F082FF28BB4FF480530A9300
:102090000AA9184802F085F800BB164801F0A2FF13
:1020A000F8B900230893099308A9124802F08AF9A5
:1020B000D0B9602301930023029303930593082270
:1020C00001A90C4801F0F2FF88B90A48FFF7FEFEAB
:1020D0000FB05DF804FBFFF7C7FAD6E7FFF7C4FAC5
:1020E000DBE7FFF7C1FADCE7FFF7BEFAE1E7FFF74E
:1020F000BBFAEAE7500E00200004004000B58FB0A4
:1021000000230A930B930C930D9308930993019367
:102110000293039304930593069307932148224A5D
:102120000260A722426083604FF6FF72C2600361C3
:10213000836101F02BFF28BB4FF480530A930AA957
:10214000184802F02EF800BB164801F04BFFF8B912
:1021500000230893099308A9124802F033F9D0B973
:10216000602301930023029303930593082201A99E
:102170000C4801F09BFF88B90A48FFF7A7FE0FB093
:102180005DF804FBFFF770FAD6E7FFF76DFADBE7BF
:10219000FFF76AFADCE7FFF767FAE1E7FFF764FAAF
:1021A000EAE700BF980E00200008004000B58FB09D
:1021B00000230A930B930C930D93089309930193B7
:1021C0000293039304930593069307932A482B4A9B
:1021D0000260436083604FF6FF72C26003618361F7
:1021E00001F0D4FE002831D14FF480530A930AA99C
:1021F000214801F0D6FF60BB1F4801F0F3FE58BB39
:1022000000230893099308A91B4802F0DBF830BBB0
:1022100060230193002202920392059201A91648BD
:1022200001F044FFF0B904220DEB0201124801F065
:102230003DFFD0B9082201A90F4801F037FFB8B916
:102240000D48FFF743FE0FB05DF804FBFFF70CFAF3
:10225000CAE7FFF709FACFE7FFF706FAD0E7FFF77B
:1022600003FAD5E7FFF700FADDE7FFF7FDF9E1E74D
:10227000FFF7FAF9E4E700BFE00E0020000C004091
:1022800000B589B00023019302930393049305934F
:10229000069307931548164A02604360836041F233
:1022A0008732C2600361836101F070FEA0B90F48FC
:1022B00001F098FE98B960230193002202920392E4
:1022C000059201A9094801F0F1FE58B90748FFF746
:1022D000FDFD09B05DF804FBFFF7C6F9E7E7FFF77E
:1022E000C3F9E8E7FFF7C0F9F0E700BF080E0020E8
:1022F0000044014008B50B480B4B03600B4B436097
:1023000000238360C3604FF4806202610C2242614B
:102310008361C36102F024F900B908BDFFF7A4F995
:10232000FBE700BFD00F002000480040A08601005E
:1023300030B589B000230393049305930693079364
:102340000268274B9A4201D009B030BD04460025EF
:10235000019503F5F8331A6C42F480221A641A6C62
:1023600002F480220192019A02951A6B42F0040253
:102370001A631B6B03F004030293029B4FF4406348
:10238000039302230493032306930723079303A9CC
:10239000144801F029F81448144B03604FF000630F
:1023A00043608560C5604FF480630361456185616A
:1023B000C5614FF400330362456201F087F958B9F3
:1023C000094BA3639C6300220421272001F0F6F946
:1023D000272001F02BFAB7E7FFF746F9F0E700BF37
:1023E0000048004000080240700F002028600240B2
:1023F0007047FEE7FEE7FEE7FEE7704708B501F02D
:1024000077FA03F06DF9012800D108BD03F03AFE18
:10241000FBE708B5012001F0E1F808BD08B5082088
:1024200001F0DCF808BD08B5102001F0D7F808BDB0
:1024300008B5024800F0E5FA08BD00BF2C0C0020EA
:1024400008B5202001F0CAF808BD000008B5024810
:1024500000F0D7FA08BD00BF540C002000B583B0CF
:10246000002200920D4B596C41F480415964596C23
:1024700001F48041009100990192196C41F0805162
:1024800019641B6C03F080530193019B0F216FF0C3
:10249000010001F093F903B05DF804FB003802403D
:1024A000002800F0A18038B5044690F82030D3B160
:1024B0002268136843F00103136001F025FA054612
:1024C00023685A6812F0010F10D101F01DFA401B69
:1024D0000A28F5D9636A43F400336362052384F85C
:1024E0002030012038BDFFF723FAE1E71A6822F017
:1024F00002021A6001F008FA054623685A6812F0D1
:10250000020F0DD001F000FA401B0A28F5D9636ACA
:1025100043F400336362052384F820300120E1E7AF
:10252000227E012A3DD01A6822F080021A60637E62
:10253000012B3BD02268136823F040031360A37E75
:10254000012B39D02268136823F020031360E37E47
:10255000012B37D02268136843F010031360237FE8
:10256000012B35D02268136823F008031360637FC2
:10257000012B33D02268136823F004031360A3688F
:10258000E268134322691343626913436268013AA4
:1025900021681343CB6100206062012384F820305E
:1025A000A0E71A6842F080021A60C0E72268136848
:1025B00043F040031360C2E72268136843F020032E
:1025C0001360C4E72268136823F010031360C6E7A2
:1025D0002268136843F008031360C8E72268136891
:1025E00043F004031360CAE70120704790F82030DD
:1025F000013BDBB2012B05D9436A43F480234362DC
:102600000120704730B5464BD3F8002242F001025A
:10261000C3F80022D3F8002222F47C52C3F800222F
:10262000D3F80022486A42EA0022C3F800224A692D
:1026300002F01F02012000FA02F2D3F81C026FEA36
:10264000020C20EA0200C3F81C02CB69C3B9344B68
:10265000D3F80C020CEA0000C3F80C028C8848691D
:10266000CD6844EA0544483043F830408C68088817
:1026700040EA04404C6904F1480E03EBCE03586075
:10268000CB69012B1ED08B69002B33D12448D0F8A5
:1026900004320CEA0303C0F804320B698BBB2048F8
:1026A000D0F814320CEA0303C0F814320B6A012B81
:1026B0002ED01B4AD2F8003223F00103C2F80032B8
:1026C000002030BD164BD3F80C021043C3F80C02A7
:1026D0008C8848690D6844EA0544483043F8304026
:1026E00088894C698D6840EA0540483403EBC4038F
:1026F0005860C8E70A48D0F804321343C0F80432DF
:10270000CBE70748D0F814321343C0F81432CDE7B2
:102710000349D1F81C321A43C1F81C22C9E700BF93
:102720000064004070B5044690F82050EDB2012DD1
:1027300006D0436A43F4002343620125284670BD56
:10274000022380F820300268136823F0010313602D
:1027500001F0DAF8064623685B6813F0010F0CD02D
:1027600001F0D2F8831B0A2BF5D9636A43F40033D6
:102770006362052384F82030E0E700256562DDE729
:1027800030B590F820C00468A4680CF1FF3C5FFAF3
:102790008CFCBCF1010F6BD814F0E05F62D0C4F385
:1027A000016CBCF1020F05D9436A43F40003436294
:1027B000012062E0012404FA0CF41C608B68002BF9
:1027C0003DD10D68CB68046843EA45550CF1180308
:1027D0001B01E55003680C690CF1180E03EB0E1396
:1027E0005C600B7D012B35D0D17993791B0443EAD2
:1027F0000163517943EA012314790168234301EB12
:102800000C11C1F88C31D17893781B0443EA016331
:10281000517843EA0123117802680B4302EB0C1252
:10282000C2F8883102680CF1180C4FEA0C1C52F8FF
:102830000C3043F0010342F80C3000201DE04C68DE
:1028400043EAC403CC6823430CF11804240105684F
:102850002B51BFE7036803EB0E13596841F48071F5
:102860005960C1E7436A43F400134362012004E066
:10287000436A43F480234362012030BD90F820C0B6
:102880000CF1FF3C5FFA8CFCBCF1010F00F295806B
:1028900030B451B90468E46814F0030F10D1436AEE
:1028A00043F400134362012077E00468246914F0C4
:1028B000030F05D1436A43F40013436201206CE027
:1028C00001F11B04240105682C5904F004049460F0
:1028D000002C64D101F11B04240105682C59640DFE
:1028E0001460046801F11B0C4FEA0C1C54F80C40F6
:1028F00004F00204D46004686444646804F00F04C3
:102900001461046864446468C4F30724946104682F
:1029100064446468240C5461026802EB0112D2F82A
:10292000B8211A70026802EB0112D2F8B821C2F382
:1029300007225A70026802EB0112D2F8B821C2F3E2
:1029400007429A70026802EB0112D2F8B821120E07
:10295000DA70026802EB0112D2F8BC211A71026827
:1029600002EB0112D2F8BC21C2F307225A710268AD
:1029700002EB0112D2F8BC21C2F307429A7102683D
:1029800002EB0112D2F8BC21120EDA7179B9026899
:10299000D36843F02003D360002030BC704701F1BE
:1029A0001B04240105682C59E408546099E7026867
:1029B000136943F020031361EEE7436A43F4802375
:1029C00043620120704790F82030013BDBB2012BBD
:1029D00005D9436A43F480234362012070470268AB
:1029E0005369194351610020704770477047704721
:1029F000704770477047704770477047704770471F
:102A000070472DE9F84F054603685C69D3F80480E8
:102A10009F68D3F80CB0D3F810A0D3F8189014F036
:102A200001063BD017F0010616D001229A6017F07C
:102A3000020F08D117F0040F0CD117F0080606D0CA
:102A40004FF4805608E0FFF7D0FF002604E0FFF7C0
:102A5000CFFF01E04FF4006617F4807F0DD02B68A4
:102A60004FF480729A6017F4007F40F0868017F46C
:102A7000806F00F0868046F4005617F4803F0DD03A
:102A80002B684FF480329A6017F4003F40F0838047
:102A900017F4802F00F0838046F4004614F0080FEE
:102AA00007D01BF0100F04D046F400762B681022DC
:102AB000DA6014F0040F02D01BF0080F79D114F083
:102AC000020F04D02B68DB6813F0030F78D114F0E9
:102AD000400F07D01AF0100F04D046F480662B6820
:102AE00010221A6114F0200F02D01AF0080F6BD1D7
:102AF00014F0100F04D02B681B6913F0030F6AD178
:102B000014F4003F02D018F0100F68D114F4803F85
:102B100002D018F0080F69D114F4004F7AD018F0E1
:102B2000040F74D014F4807F04D019F0010F01D089
:102B300046F0010614F4007F04D019F0020F01D012
:102B400046F0020614F4806F04D019F0040F01D08F
:102B500046F0040614F4006F59D019F0700956D0ED
:102B6000B9F1400F65D058D8B9F1200F5ED0B9F156
:102B7000300F42D146F0200644E02846FFF736FFEA
:102B80007BE717F4006F02D046F4804675E72846CD
:102B9000FFF72FFF71E72846FFF729FF7EE717F4BD
:102BA000002F02D046F4803678E72846FFF722FF50
:102BB00074E72B680822DA602846FFF71CFF7EE7DF
:102BC0002846FDF7CFFD82E72B6808221A612846C8
:102BD000FFF713FF8CE72846FFF70EFF90E72B68FF
:102BE00010225A602846FFF709FF8FE72B6808225A
:102BF0005A602846FFF703FF8EE7B9F1100F01D1A5
:102C000046F008062A68936923F0700393612B68E5
:102C100004225A609EB9BDE8F88FB9F1500F0BD06D
:102C2000B9F1600FEED146F48076EBE746F010067E
:102C3000E8E746F04006E5E746F08006E2E76B6A23
:102C40001E436E622846FFF7DBFEE4E7002800F033
:102C5000E08170B582B00446036813F0010F3BD0E9
:102C60009F4B9B6803F00C03042B2CD09C4B9B6860
:102C700003F00C03082B21D06368B3F5803F4FD0DD
:102C8000B3F5A02F52D0964B1A6822F480321A6006
:102C90001A6822F480221A606368002B50D000F07A
:102CA00033FE05468E4B1B6813F4003F14D100F031
:102CB0002BFE401B6428F5D90320B1E1884B5B68EB
:102CC00013F4800FD8D0864B1B6813F4003F03D059
:102CD0006368002B00F09F81236813F0020F54D02B
:102CE0007F4B9B6813F00C0F3ED07D4B9B6803F02D
:102CF0000C03082B33D0E368002B68D0794B0122FA
:102D00001A6000F001FE0546754B1B6813F0020FB8
:102D100054D100F0F9FD401B0228F5D903207FE1D2
:102D20006F4A136843F480331360B5E76C4B1A683D
:102D300042F480221A601A6842F480321A60ABE7CB
:102D400000F0E2FD0546664B1B6813F4003FC3D05C
:102D500000F0DAFD401B6428F5D9032060E1604BE8
:102D60005B6813F4800FC6D15D4B1B6813F0020F34
:102D700003D0E368012B40F05081594A136823F0D7
:102D8000F803216943EAC1031360236813F0080FB5
:102D900042D063696BB3534B0122C3F8802E00F01D
:102DA000B3FD05464E4B5B6F13F0020F34D100F0BC
:102DB000ABFD401B0228F5D9032031E1484A1368D6
:102DC00023F0F803216943EAC1031360DDE7454BB3
:102DD00000221A6000F098FD0546414B1B6813F075
:102DE000020FD2D000F090FD401B0228F5D903203D
:102DF00016E13C4B0022C3F8802E00F085FD05460D
:102E0000374B5B6F13F0020F06D000F07DFD401BC7
:102E10000228F5D9032003E1236813F0040F77D0CB
:102E20002F4B1B6C13F0805F33D1002301932C4B8D
:102E30001A6C42F080521A641B6C03F080530193A9
:102E4000019B0125284B1B6813F4807F23D0A368C6
:102E5000012B34D0052B38D0214B1A6F22F0010200
:102E60001A671A6F22F004021A67A368002B3DD07C
:102E700000F04AFD06461A4B1B6F13F0020F46D1B5
:102E800000F042FD801B41F288339842F3D90320C1
:102E9000C6E00025D6E7144A136843F48073136034
:102EA00000F032FD0646104B1B6813F4807FCED134
:102EB00000F02AFD801B0228F5D90320B0E0084A63
:102EC000136F43F001031367CFE7054B1A6F42F00E
:102ED00004021A671A6F42F001021A67C5E700BFC1
:102EE00000380240000047420070004000F00CFD36
:102EF0000646524B1B6F13F0020F08D000F004FD82
:102F0000801B41F288339842F3D9032088E0EDB961
:102F1000A369002B00F08380484A926802F00C02FB
:102F2000082A51D0022B17D0454B00221A6600F018
:102F3000EBFC0446414B1B6813F0007F42D000F0CD
:102F4000E3FC001B0228F5D9032069E03B4A136C1F
:102F500023F080531364DBE7394B00221A6600F03C
:102F6000D3FC0546354B1B6813F0007F06D000F0FC
:102F7000CBFC401B0228F5D9032051E0E369226A0B
:102F80001343626A43EA8213A26A5208013A43EA8F
:102F90000243E26A43EA0263284A5360284B012253
:102FA0001A6600F0B1FC0446244B1B6813F0007F46
:102FB00006D100F0A9FC001B0228F5D903202FE060
:102FC00000202DE000202BE0012B2BD01B4B5B6859
:102FD00003F48001E269914226D103F03F02216AA5
:102FE0008A4223D1616A47F6C0721A40B2EB811F50
:102FF0001ED103F44031A26A5208013AB1EB024FEC
:1030000018D103F07063E26AB3EB026F14D10020B1
:1030100006E001207047012002E0012000E00020CE
:1030200002B070BD0120FBE70120F9E70120F7E7BE
:103030000120F5E70120F3E70120F1E70038024025
:103040000000474208B5254B9B6803F00C03042B96
:103050003FD0082B3FD1214B5A6802F03F025B68FA
:1030600013F4800F12D01D4B5968C1F388111C480E
:103070000023A1FB0001FDF7ABF8184B5B68C3F31D
:10308000014301335B00B0FBF3F025E0134B5968BB
:10309000C1F3881C4FEA4C11B1EB0C006EEB0E0E25
:1030A0004FEA8E1343EA90638101091A63EB0E0322
:1030B000DB0043EA5173C90011EB0C0C43F1000330
:1030C000990200234FEA8C2041EA9C51FDF780F8D9
:1030D000D3E7034800E0034808BD00BF00380240C2
:1030E000001BB7000024F400002800F09B8070B59E
:1030F0000D4604464F4B1B6803F007038B4208D272
:10310000CBB24C4A1370136803F007038B4240F0B4
:103110008B80236813F0020F17D013F0040F04D034
:10312000454A936843F4E0539360236813F0080F13
:1031300004D0414A936843F4604393603E4A9368E5
:1031400023F0F003A1680B439360236813F0010F91
:1031500032D06368012B21D09A1E012A25D9364A24
:10316000126812F0020F61D033498A6822F003021C
:1031700013438B6000F0C8FB06462F4B9B6803F09F
:103180000C036268B3EB820F16D000F0BDFB801B0E
:1031900041F288339842F0D9032042E0264A12686F
:1031A00012F4003FE0D101203BE0234A126812F004
:1031B000007FD9D1012034E01E4B1B6803F00703C8
:1031C000AB4207D9EAB21B4B1A701B6803F0070326
:1031D000AB422DD1236813F0040F06D0164A936832
:1031E00023F4E053E1680B439360236813F0080F66
:1031F00007D0114A936823F46043216943EAC1036D
:103200009360FFF71FFF0C4B9B68C3F303130B4A3C
:10321000D35CD8400A4B18600A4B186800F028FBB2
:10322000002070BD012070470120FAE70120F8E777
:103230000120F6E7003C02400038024048640008E4
:103240002800002024000020014B1868704700BFB0
:103250002800002008B5FFF7F7FF044B9B68C3F375
:103260008223034AD35CD84008BD00BF0038024027
:103270005864000808B5FFF7E7FF044B9B68C3F3E9
:103280004233034AD35CD84008BD00BF0038024037
:103290005864000830B583B00446036813F0050F86
:1032A00006D1236813F0020F2ED1002003B030BDE9
:1032B0004A4B00229A6600F027FB0546484B1B68E4
:1032C00013F0006F06D000F01FFB431B022BF5D953
:1032D0000320EBE76268A3681B0743EA8213404AB6
:1032E000C2F884303D4B01229A6600F00DFB054682
:1032F0003B4B1B6813F0006FD3D100F005FB431B61
:10330000022BF5D90320D1E700230193344B1A6C2B
:1033100042F080521A641B6C03F080530193019BAE
:10332000304A136843F48073136000F0EDFA0546E9
:103330002C4B1B6813F4807F06D100F0E5FA431B89
:10334000022BF5D90320B1E7254B1B6F13F4407313
:1033500014D0E26802F440729A420FD0204B1A6FE8
:1033600022F440721D490120C1F8400E0020C1F82E
:10337000400E1A671B6F13F0010F13D1E36803F4BB
:103380004072B2F5407F1ED0154A936823F4F813BB
:10339000936013490B6FE268C2F30B0213430B6790
:1033A000002083E700F0B0FA05460D4B1B6F13F0C9
:1033B000020FE3D100F0A8FA401B41F28833984293
:1033C000F3D9032072E706498A6822F4F81223F041
:1033D000704323F4407313438B60DAE700004742E5
:1033E000003802400070004000230F2B00F2E48000
:1033F00070B582B060E085685E000324B44025EAC1
:103400000405CC68B4402C438460456825EA020575
:103410004C68C4F300129A402A4342605AE0DC0828
:10342000083450F8246003F0070295000F22AA40E8
:1034300026EA020E0A69AA4042EA0E0240F8242057
:103440005CE0072200E0002202FA0EF22A43023476
:103450005A4D45F824205A4A94686FEA0C0224EA2F
:103460000C054E6816F4801F01D04CEA0405544C3C
:10347000A560E46802EA04054E6816F4001F01D056
:103480004CEA04054E4CE560646802EA04054E68A7
:1034900016F4003F01D04CEA0405494C65602468ED
:1034A00022404D6815F4803F01D04CEA0402444CA0
:1034B000226001330F2B7DD801229A400C6804EA68
:1034C000020C32EA0404F4D14C6804F00304013C19
:1034D000012C90D94A6802F00302032A09D0C4687B
:1034E0005D000322AA4024EA02048A68AA4022431B
:1034F000C2604A6802F00302022A90D004684FEAD0
:10350000430E032202FA0EF224EA02044A6802F091
:10351000030202FA0EF2224302604A6812F4403FAC
:10352000C7D000220192274A546C44F4804454646A
:10353000526C02F480420192019A9C08A51C1F4A19
:1035400052F8255003F003024FEA820E0F2202FACE
:103550000EF225EA02051C4A90423FF474AF02F5D0
:10356000806290421AD002F58062904218D002F533
:103570008062904216D002F58062904214D002F52B
:103580008062904212D002F58062904210D002F523
:10359000806290423FF455AF082255E7012253E77D
:1035A000022251E703224FE704224DE705224BE7B1
:1035B000062249E702B070BD704700BF00380140E5
:1035C000003C014000380240000002400AB1816125
:1035D00070470904816170477047000008B5054BCA
:1035E0005B69034200D108BD024B5861FFF7F4FF4D
:1035F000F9E700BF003C014010B40368D9B21039AC
:103600000C4AA2FB014212090B4CA25CC2655F2965
:1036100009D923F47F7323F0030304338365806D9A
:103620005DF8044B704723F47F7323F00303836535
:10363000F5E700BFABAAAAAA40640008836A8269C2
:1036400092B9012B0AD0022B02D00BB10020704797
:10365000C36A13F0807F28D100207047C36AB3F19A
:10366000C07F24D000207047B2F5005F09D0022B44
:1036700025D9032B25D1C36A13F0807F23D10020E5
:103680007047032B03D8DFE803F01404140A00206A
:103690007047C36A13F0807F0DD100207047C36A62
:1036A000B3F1C07F09D0002070470120704701208E
:1036B00070470120704701207047012070470120AA
:1036C00070470020704701207047000070B5044625
:1036D00000F01AF9002C5BD00546022384F835303F
:1036E000002384F834302268136823F00103136048
:1036F00023681A6812F0010F0AD000F005F9431B85
:10370000052BF5D920236365032084F8350070BDAF
:103710001A68204810406168A2680A43E1680A43B9
:1037200021690A4361690A43A1690A43E1690A43BD
:10373000216A0A430243616A04291ED01A6026687E
:10374000756925F00705636A1D43042B07D1A36A39
:103750001D43E36A1BB12046FFF770FF90B9756106
:103760002046FFF749FFE26D3F239340836000202E
:103770006065012384F83530C9E7E16A206B0143B5
:103780000A43DBE740236365012084F83500BEE788
:103790000120BCE73F8010F0074AD36823F4E063C0
:1037A0001B041B0C000200F4E060034343F0BF6302
:1037B00043F40033D360704700ED00E000B5194BCF
:1037C000DB68C3F30223C3F1070CBCF1040F28BF6D
:1037D0004FF0040C03F1040EBEF1060F18D9033BA1
:1037E0004FF0FF3E0EFA0CFC21EA0C0199400EFA54
:1037F00003F322EA0303194300280BDB0901C9B2D2
:1038000000F1604000F5614080F800135DF804FBB2
:103810000023E5E700F00F000901C9B2024B19547B
:10382000F4E700BF00ED00E014ED00E0002807DB46
:1038300000F01F02400901239340024A42F8203061
:10384000704700BF00E100E00138B0F1807F0BD28B
:103850004FF0E0235861054AF02182F82310002040
:10386000986107221A6170470120704700ED00E05F
:1038700010B504460E4B18784FF47A73B3FBF0F38F
:103880000C4A1068B0FBF3F0FFF7DEFF68B90F2CAD
:1038900001D901200AE0002221464FF0FF30FFF756
:1038A0008DFF054B1C60002000E0012010BD00BF13
:1038B00020000020280000202400002008B50B4B29
:1038C0001A6842F400721A601A6842F480621A6040
:1038D0001A6842F480721A600320FFF75DFF0F2020
:1038E000FFF7C6FFFEF7BAFD002008BD003C02400E
:1038F000034A1168034B1B780B441360704700BFE9
:103900001410002020000020014B1868704700BFF1
:1039100014100020002800F0CC8070B5044690F808
:103920003D30002B77D0242384F83D302268136883
:1039300023F0010313602268136843F4004313600B
:103940002268136823F400431360FFF783FC626866
:103950005A4B9A4264D85A4B98428CBF0023012399
:10396000002B40F0A8805749A1FB00318B0C256843
:103970006A6822F03F0242EA91426A6021680A6A5C
:1039800022F03F0266684D4DAE424FD801331343DB
:103990000B622168CA6922F44F4222F0FF02666876
:1039A000464B9E424CD8431E7600B3FBF6F30133E0
:1039B00040F6FC70034278D0C3F30B031343CB6192
:1039C00021680B6823F0C003E269206A02431343B5
:1039D0000B6021688B6823F4034323F0FF03226903
:1039E000E068024313438B602168CB6823F0FF0338
:1039F0006269A06902431343CB602268136843F0F5
:103A00000103136000202064202384F83D302063EC
:103A100084F83E0070BD80F83C30FEF76BF882E71A
:103A2000294B98428CBF0023012399E74FF49675E8
:103A300005FB03F3254DA5FB03539B090133A6E7C3
:103A4000A368BBB9451E06EB460CB5FBFCF501357A
:103A5000C5F30B05B5FA85F56D0945BBC3B901384A
:103A600006EB4603B0FBF3F30133C3F30B0343F45C
:103A70000043A3E7451E06EB860C0CEB8C0CB5FB54
:103A8000FCF50135C5F30B05B5FA85F56D09E4E7DD
:103A9000013806EB860303EB8303B0FBF3F301333A
:103AA000C3F30B0343F4404388E7042386E7012371
:103AB00084E7012070470120ACE700BFA086010029
:103AC0007F841E0083DE1B43FF083D00D34D621040
:103AD00038B504460268D36823F0A003D360FFF72B
:103AE00013FF05462368DB6813F0200F07D1FFF7AB
:103AF0000BFF401BB0F57A7FF4D9032000E00020D3
:103B000038BD70B50368DA6812F0400F02D00025A6
:103B1000284670BD0446DA6842F08002DA60FFF79A
:103B2000F3FE064600252368DB6813F0400FEFD153
:103B3000002DEDD1FFF7E8FE831BB3F57A7FF2D9B4
:103B4000042363770125EEE70268D36823F080033E
:103B5000D36003689B6813F0200F01D000207047EA
:103B600010B50446FFF7B4FF10B1042363770120BA
:103B700010BD002841D010B50446437FE3B10223B5
:103B800063772368CA225A62236853225A62204606
:103B9000FFF7B7FFA0B158B92268136C23F4802354
:103BA00013642268136CA1690B43136401236377C8
:103BB0002368FF225A6210BD0377FEF70FF8DEE795
:103BC0002268936823F4E00323F0400393602168A4
:103BD0008A686368206903436069034313438B6009
:103BE0002368E2681A6122681369A16843EA014305
:103BF00013612046FFF7A8FFCDE70120704700289A
:103C00005AD010B50446436A33B94368B3F5827F8E
:103C100005D00023C36102E0002303614361002358
:103C2000A36294F85130002B40D0022384F8513025
:103C30002268136823F040031360636803F48273FF
:103C4000A26802F404421343E26802F400621343E0
:103C5000226902F002021343626902F00102134377
:103C6000A26902F400721343E26902F038021343BE
:103C7000226A02F080021343A26A02F40052216811
:103C800013430B60638B03F00403626A02F01002BB
:103C9000216813434B602268D36923F40063D36126
:103CA00000206065012384F8513010BD84F8503045
:103CB0002046FDF7DBFFB8E70120704730B4036A08
:103CC00023F001030362036A4268846924F07304E9
:103CD0000D682C4323F0020C8B6843EA0C03104D53
:103CE000A84203D005F58065A84205D123F008035A
:103CF000CD682B4323F00403094DA84203D005F5FA
:103D00008065A84205D122F440724D692A438D692D
:103D10002A43426084614A684263036230BC704750
:103D20000000014030B4036A23F480730362036A25
:103D30004268C46924F0730C0C6844EA0C0523F44F
:103D400000738C6843EA0423114CA04203D004F5AD
:103D50008064A04206D123F40063CC6843EA0423C4
:103D600023F480630A4CA04203D004F58064A0428F
:103D700007D122F440524C6942EA04128C6942EAAB
:103D800004124260C5614A68C263036230BC704776
:103D90000000014030B4036A23F480530362036AD5
:103DA0004468C26922F4E6420D6842EA052223F41F
:103DB00000538D6843EA0533094DA84203D005F549
:103DC0008065A84204D124F480444D6944EA8514F6
:103DD0004460C2614A680264036230BC704700BF3D
:103DE0000000014010B4036A046A24F00104046274
:103DF000846924F0F00C4CEA021223F00A030B430E
:103E0000826103625DF8044B704710B4046A24F0C9
:103E1000100404628469036A24F4704C4CEA023290
:103E200023F0A00343EA0113826103625DF8044BAF
:103E30007047836823F070030B4343F007038360EC
:103E40007047000090F83D30DBB2012B32D10223E5
:103E500080F83D300368194A934220D0B3F1804F77
:103E60001DD0A2F57C42934219D002F580629342A4
:103E700015D002F58062934211D002F57842934248
:103E80000DD002F57052934209D0A2F594329342BC
:103E900005D01A6842F001021A60002070479A6843
:103EA00002F00702062A07D01A6842F001021A60DF
:103EB000002070470120704700207047000001403B
:103EC000704700000368304A904212D0B0F1804F32
:103ED0000FD0A2F57C4290420BD002F58062904256
:103EE00007D002F58062904203D002F578429042FA
:103EF00003D123F070034A681343234A90422AD027
:103F0000B0F1804F27D0A2F57C42904223D002F539
:103F1000806290421FD002F5806290421BD002F571
:103F20007842904217D002F57052904213D002F5B9
:103F3000806290420FD002F5806290420BD0A2F5D1
:103F40009832904207D002F58062904203D002F589
:103F50008062904203D123F44073CA68134323F074
:103F600080034A69134303608B68C3620B688362F2
:103F7000054B984203D003F58063984201D10B6949
:103F800003630123436170470000014040B310B553
:103F9000044690F83D30F3B1022384F83D302146C9
:103FA00051F8040BFFF78EFF012384F8463084F8A4
:103FB0003E3084F83F3084F8403084F8413084F853
:103FC000423084F8433084F8443084F8453084F833
:103FD0003D30002010BD80F83C30FDF717FFDBE7D7
:103FE0000120704740B310B5044690F83D30F3B15E
:103FF000022384F83D30214651F8040BFFF762FF9D
:10400000012384F8463084F83E3084F83F3084F849
:10401000403084F8413084F8423084F8433084F8EA
:10402000443084F8453084F83D30002010BD80F8DD
:104030003C30FFF745FFDBE70120704730B4036AEF
:1040400023F010030362036A4468826922F4E642A3
:104050000D6842EA052223F020038D6843EA051328
:10406000114DA84203D005F58065A84206D123F082
:104070008003CD6843EA051323F040030A4DA842AC
:1040800003D005F58065A84207D124F440644D694A
:1040900044EA85048D6944EA8504446082614A6883
:1040A0008263036230BC70470000014038B590F86D
:1040B0003C30012B66D004460D46012380F83C308D
:1040C0000C2A5AD8DFE802F0075959591B59595997
:1040D0003059595944000068FFF7F0FD2268936990
:1040E00043F0080393612268936923F0040393610A
:1040F0002268936929690B43936100203EE00068C0
:10410000FFF79CFF2268936943F400639361226880
:10411000936923F48063936122689369296943EA70
:1041200001239361002029E00068FFF7FBFD22686E
:10413000D36943F00803D3612268D36923F00403F1
:10414000D3612268D36929690B43D361002015E04C
:104150000068FFF71FFE2268D36943F40063D36150
:104160002268D36923F48063D3612268D369296903
:1041700043EA0123D361002000E00120002384F8FA
:104180003C3038BD0220FCE710B4846824F47F4C36
:1041900042EA03220A4342EA0C0282605DF8044BC1
:1041A000704790F83C30012B78D010B504460123BD
:1041B00080F83C30022380F83D300268936823F495
:1041C0007F4323F0770393600B68602B4CD029D892
:1041D000402B54D00CD9502B22D1CA6849680068B2
:1041E000FFF700FE50212068FFF723FE002005E0C6
:1041F000202B0DD009D9302B0AD00120012384F8BF
:104200003D30002384F83C3010BD0BB1102B05D19C
:1042100019462068FFF70DFE0020EFE70120EDE7CB
:104220000120EBE7B3F5805F34D0B3F5005F0CD12C
:10423000CB684A6889680068FFF7A6FF2268936820
:1042400043F4804393600020D8E7702B24D1CB68DF
:104250004A6889680068FFF797FF2268936843F00F
:10426000770393600020C9E7CA6849680068FFF7D0
:10427000CCFD60212068FFF7DCFD0020BEE7CA68A6
:1042800049680068FFF7AEFD40212068FFF7D1FDC7
:104290000020B3E70020B1E70120AFE7022070471C
:1042A00001F01F01012303FA01FC036A23EA0C0356
:1042B0000362036A02FA01F10B43036270470000D4
:1042C00010B504460846002942D194F83E30DBB2CE
:1042D000013B18BF0123002B6ED1002851D10223CE
:1042E00084F83E30012201462068FFF7D9FF236899
:1042F000334A934203D002F58062934203D15A6C51
:1043000042F400425A6423682D4A934249D0B3F1E3
:10431000804F46D0A2F57C42934242D002F58062A3
:1043200093423ED002F5806293423AD002F5784241
:10433000934236D002F57052934232D0A2F59432B5
:1043400093422ED01A6842F001021A60002032E037
:10435000042908D008290DD094F84130DBB2013B84
:1043600018BF0123B7E794F83F30DBB2013B18BF19
:104370000123B0E794F84030DBB2013B18BF0123C2
:10438000A9E7042805D0082807D0022384F8413083
:10439000A8E7022384F83F30A4E7022384F84030E2
:1043A000A0E79A6802F00702062A07D01A6842F0CE
:1043B00001021A60002010BD0120FCE70020FAE78E
:1043C0000000014090F83C30012B3DD010B4012397
:1043D00080F83C30022380F83D3003685A689C68BE
:1043E00022F0700C0A6842EA0C025A600368174A0D
:1043F00093421AD0B3F1804F17D0A2F57C4293427A
:1044000013D002F5806293420FD002F5806293428E
:104410000BD002F57842934207D002F570529342D6
:1044200003D0A2F59432934204D124F080044A6868
:1044300014439C60012380F83D30002380F83C3019
:1044400018465DF8044B7047022070470000014099
:1044500038B504460268136923F44053C1680B431E
:10446000136183680269134342691343C2691A43A3
:104470000168CB6823F4164323F00C031343CB608D
:104480000268536923F4407381690B4353610368E5
:10449000314A934206D002F58062934202D0FEF781
:1044A000D9FE01E0FEF7E6FEE369B3F5004F29D03F
:1044B0000021031849411B1841F10001C90041EADC
:1044C0005371DB00181863684FEA83024FEA937355
:1044D00041F10001FBF77CFE204DA5FB00325109A4
:1044E000642303FB11031B013233A5FB03235B0988
:1044F00003F0F00202EB011203F00F0321681344F2
:104500008B6038BD0023021843EB0301121841F100
:104510000001C90041EA5271D200101841F10001B6
:10452000626892185B41FBF753FE0C4DA5FB00320D
:104530005109642303FB1103DB003233A5FB032382
:104540005B095A0002F4F87202EB011203F0070350
:10455000216813448B60D4E7001001401F85EB51A4
:1045600058B310B5044690F83D300BB3242384F8BB
:104570003D302268D36823F40053D3602046FFF710
:1045800067FF2268136923F490431361226853691B
:1045900023F02A0353612268D36843F40053D360A5
:1045A00000202064202384F83D3084F83E3010BD84
:1045B00080F83C30FDF7BCFED8E7012070470000D2
:1045C0000F49D1F8883043F47003C1F888300D4B9F
:1045D0001A6842F001021A60002098601A6822F0FE
:1045E000847222F480321A60074A5A601A6822F4F0
:1045F00080221A60D8604FF000638B60704700BF64
:1046000000ED00E0003802401030002400F1080303
:1046100043604FF0FF328260C36003610023036098
:10462000704700230361704743684B609A688A6053
:10463000516099600861036801330360704730B4CA
:104640000D68B5F1FF3F11D000F108031C465B680F
:104650001A68AA42FAD963684B6099608C606160FD
:10466000086103680133036030BC70470469F2E7F6
:104670000369416882688A60416851605A68824271
:1046800006D0002202611A68013A1A601868704761
:1046900082685A60F5E710B5044601F083FCA26B0E
:1046A000E36B9A4204D0002401F09EFC204610BD2A
:1046B0000124F9E710B5044601F074FCA36B23B99B
:1046C000012401F091FC204610BD0024F9E770B5EB
:1046D00004461546866B026C5AB903681BB100206C
:1046E0000136A66370BD806801F00AF80023A3605C
:1046F000F6E76DB9406801F0F7FD226C636813447A
:104700006360A268934219D3236863602846E7E791
:10471000C06801F0E9FD226C5142E3689B1AE36036
:104720002268934202D2A3680B44E360022D01D0B9
:104730000020D5E726B1013E0020D1E72846CFE78B
:104740000020CDE70346026C6AB110B50846D9686F
:104750001144D9609C68A14201D31968D960D96815
:1047600001F0C2FD10BD704738B5054601F01AFCD6
:1047700095F8454064B201E0013C64B2002C0ADDCA
:104780006B6A43B105F1240000F0F6FE0028F3D077
:1047900000F094FFF0E7FF2385F8453001F024FC9A
:1047A00001F000FC95F8444064B201E0013C64B2C1
:1047B000002C0ADD2B6943B105F1100000F0DCFE8E
:1047C0000028F3D000F07AFFF0E7FF2385F84430AB
:1047D00001F00AFC38BD38B5E0B10D46044601F0E1
:1047E000E1FB2368E26B216C01FB0230A06000203A
:1047F000A0636360013A02FB0133E360FF2384F8A6
:10480000443084F84530FDB9236963B901F0ECFB0D
:10481000012038BD4FF0500383F31188BFF36F8F31
:10482000BFF34F8FFEE704F1100000F0A5FE002853
:10483000ECD04FF0E0234FF08052C3F8042DBFF3CB
:104840004F8FBFF36F8FE1E704F11000FFF7DEFE3B
:1048500004F12400FFF7DAFED8E710B5034602980A
:104860000C4631B90060C36304640121FFF7B3FF54
:1048700010BD0260F7E740B94FF0500383F3118891
:10488000BFF36F8FBFF34F8FFEE710B584B01C46A8
:10489000844653B192B189B94FF0500383F3118824
:1048A000BFF36F8FBFF34F8FFEE74FF0500383F3DB
:1048B0001188BFF36F8FBFF34F8FFEE76AB14823B4
:1048C0000393039B482B13D04FF0500383F31188BD
:1048D000BFF36F8FBFF34F8FFEE70029EFD04FF08C
:1048E000500383F31188BFF36F8FBFF34F8FFEE741
:1048F000039B012384F8463000949DF818306046ED
:10490000FFF7ABFF204604B010BDF0B585B00192B3
:1049100088B10F461D460446B1B1022D20D1E36B8C
:10492000012B1DD04FF0500383F31188BFF36F8F1D
:10493000BFF34F8FFEE74FF0500383F31188BFF3AF
:104940006F8FBFF34F8FFEE7036C002BE5D04FF066
:10495000500383F31188BFF36F8FBFF34F8FFEE7D0
:1049600000F0BEFE064658B9019B002B48D04FF020
:10497000500383F31188BFF36F8FBFF34F8FFEE7B0
:1049800000263DE02A4639462046FFF7A0FE636A2E
:104990007BB948B14FF0E0234FF08052C3F8042DAB
:1049A000BFF34F8FBFF36F8F01F01EFB012005B0E7
:1049B000F0BD04F1240000F0DFFD0028F4D04FF03A
:1049C000E0234FF08052C3F8042DBFF34F8FBFF3A5
:1049D0006F8FE9E701F008FB0020E8E702A800F08C
:1049E00011FE012619E0002384F8443021E0002361
:1049F00084F8453023E02046FFF7B6FE00F09AFC2D
:104A000001F0D0FAA26BE36B9A42BBD3022DB9D06E
:104A1000019B002BDED0002EE0D001F0E5FA00F083
:104A2000EFFB01F0BFFA94F8442052B2B2F1FF3F1D
:104A3000D9D094F8452052B2B2F1FF3FD7D001F05F
:104A4000D3FA01A902A800F0E9FDD8B92046FFF782
:104A500022FE0028CFD0019904F1100000F058FD8B
:104A60002046FFF781FE00F065FC0028C8D14FF01A
:104A7000E0234FF08052C3F8042DBFF34F8FBFF3F4
:104A80006F8FBDE72046FFF76FFE00F053FC00205C
:104A90008DE72DE9F84390B10F4616461C460546B2
:104AA000B1B1022C20D1EB6B012B1DD04FF0500384
:104AB00083F31188BFF36F8FBFF34F8FFEE74FF083
:104AC000500383F31188BFF36F8FBFF34F8FFEE75F
:104AD000036C002BE5D04FF0500383F31188BFF334
:104AE0006F8FBFF34F8FFEE701F082FBEFF3118969
:104AF0004FF0500383F31188BFF36F8FBFF34F8FD5
:104B0000AA6BEB6B9A4206D3022C04D0002089F3E7
:104B10001188BDE8F88395F845804FFA88F8AB6BAB
:104B2000224639462846FFF7D2FDB8F1FF3F06D0AE
:104B300008F101035BB285F845300120E7E76B6AB5
:104B40000BB90120E3E705F1240000F015FD18B1D1
:104B500026B101203060DAE70120D8E70120D6E74E
:104B6000F0B585B0019290B10F460446C1B100F096
:104B7000B7FD064600BB019B002B5ED04FF05003F3
:104B800083F31188BFF36F8FBFF34F8FFEE74FF0B2
:104B9000500383F31188BFF36F8FBFF34F8FFEE78E
:104BA000036C002BE3D04FF0500383F31188BFF365
:104BB0006F8FBFF34F8FFEE700263EE03946204659
:104BC000FFF7C0FD013DA563236923B901F00CFA8D
:104BD000012005B0F0BD04F1100000F0CDFC00286C
:104BE000F4D04FF0E0234FF08052C3F8042DBFF310
:104BF0004F8FBFF36F8FE9E701F0F6F90020E8E788
:104C000002A800F0FFFC012621E0002384F84430D4
:104C100029E0002384F845302BE02046FFF7A4FD6F
:104C200000F088FB09E02046FFF79EFD00F082FBC4
:104C30002046FFF73FFD00283FD101F0B3F9A56BF7
:104C4000002DBBD1019B002BD6D0002ED8D001F077
:104C5000CBF900F0D5FA01F0A5F994F844305BB235
:104C6000B3F1FF3FD1D094F845305BB2B3F1FF3FD1
:104C7000CFD001F0B9F901A902A800F0CFFC0028BB
:104C8000D1D12046FFF716FD0028C6D0019904F1C6
:104C9000240000F03DFC2046FFF766FD00F04AFBD3
:104CA0000028CAD14FF0E0234FF08052C3F8042D02
:104CB000BFF34F8FBFF36F8FBFE7002089E700007E
:104CC0000023072B0CD8074A52F833200AB10133CE
:104CD000F7E7044A42F8331002EBC3035860704709
:104CE000704700BF1810002070B504460D461646E8
:104CF00001F058F994F844305BB2B3F1FF3F0DD0A6
:104D000094F845305BB2B3F1FF3F0BD001F06CF982
:104D1000A36B5BB12046FFF727FD70BD002384F82D
:104D20004430EDE7002384F84530EFE7324629466A
:104D300004F1240000F004FCECE7002301E0013062
:104D400001330278A52AFAD0C3F38F007047000020
:104D5000084B1B681B6823B9074B4FF0FF321A60E2
:104D60007047044B1B68DB68DB685A68024B1A60AB
:104D7000704700BF5C100020301100202DE9F04783
:104D800080460D4617469946089EDDF824A00A9CE9
:104D90009200A521206B01F0B5FA236B07F1804248
:104DA000013A03EB820727F00707002D38D04FF0B8
:104DB000000CBCF10F0F0BD815F80C2004EB0C0302
:104DC00083F8342015F80C3013B10CF1010CF0E726
:104DD000002384F84330062E00D90626E662666476
:104DE0000025A564201DFFF71CFC04F11800FFF747
:104DF00018FC2461C6F10706A6616462E56484F8C4
:104E0000505084F852504A464146384601F0A0F8C6
:104E10002060BAF1000F01D0CAF80040BDE8F08769
:104E2000002384F83430D6E738B5002407E004EBDB
:104E3000840293000E481844FFF7E8FB0134062C67
:104E4000F5D90C4D2846FFF7E1FB0B4C2046FFF748
:104E5000DDFB0A48FFF7DAFB0948FFF7D7FB0948F3
:104E6000FFF7D4FB084B1D60084B1C6038BD00BF2A
:104E70006410002004110020181100203C110020B3
:104E800068110020541100205C10002060100020E8
:104E900010B5044601F086F8214A13680133136007
:104EA000204B1B685BB1204B1B686BB91D4B1B680B
:104EB000DA6AE36A9A4207D81A4B1C6004E0194B7D
:104EC0001C601368012B28D0184A13680133136043
:104ED000E06A01238340164A11680B43136000EB1C
:104EE0008000211D134B03EB8000FFF79DFB01F0B9
:104EF0007BF80D4B1B687BB10A4B1B68DA6AE36ACF
:104F00009A4209D24FF0E0234FF08052C3F8042DAB
:104F1000BFF34F8FBFF36F8F10BDFFF785FFD3E750
:104F2000F01000205810002050110020FC1000202C
:104F3000001100206410002010B5044690F8513094
:104F400063B1012B11D0022B0ED04FF0500383F32D
:104F50001188BFF36F8FBFF34F8FFEE7006B00F038
:104F60007BFF204600F078FF10BD00F075FFFBE7E7
:104F70000F4B1B68D3B110B501F014F80D4BDB6873
:104F8000DC68201DFFF774FB0B4A1368013B1360BC
:104F9000074A1368013B136001F026F82046FFF72B
:104FA000CBFF034B1B68002BE6D110BD704700BF41
:104FB000F410002068110020F010002008B5FFF761
:104FC000D7FF074B1B68012BF9D94FF0E0234FF0B7
:104FD0008052C3F8042DBFF34F8FBFF36F8FEEE7FE
:104FE0006410002070B504460D461F4B1E681F4B11
:104FF0001A68002182F8521018680430FFF738FB55
:1050000050B91A4B1B68DA6A012303FA02F21849F5
:105010000B6823EA02030B60B4F1FF3F0DD0344468
:10502000124B1B685C60A64210D9124B18680F4BDC
:1050300019680431FFF703FB70BD002DEFD00B4B57
:10504000196804310C48FFF7EFFAF5E70B4B1868C5
:10505000064B19680431FFF7F2FA094B1B68A342AB
:10506000EAD9074B1C60E7E77C11002058100020AC
:105070000011002060100020541100205C1000205E
:105080003011002030B587B00B9C7CB10C9DB5B1C0
:1050900054250495049D542D1AD04FF0500383F3EA
:1050A0001188BFF36F8FBFF34F8FFEE74FF05003B0
:1050B00083F31188BFF36F8FBFF34F8FFEE74FF07D
:1050C000500383F31188BFF36F8FBFF34F8FFEE759
:1050D000049D0C9D2C63022485F851400024039408
:1050E000029505AC01940A9C0094FFF747FE0C98CA
:1050F000FFF7CEFE059807B030BD2DE9F04385B02F
:105100000746884614461E46900000F027FE00B36E
:105110008146542000F022FE0546B0B1C0F8309020
:10512000E5B1002385F85130039302950D9B01935F
:105130000C9B00933346224641463846FFF71EFE3D
:105140002846FFF7A5FE012005E0484600F084FE52
:10515000E6E74FF0FF3005B0BDE8F0834FF0FF30D9
:10516000F9E7000010B588B000240594069407AA5A
:1051700006A905A8FCF742FB059B0293069B019339
:1051800000942346079A18491848FFF77BFF184BED
:10519000186040B100F07AFB012806D0B0F1FF3F63
:1051A00018D008B010BD0020F6E74FF0500383F38D
:1051B0001188BFF36F8FBFF34F8F0E4B4FF0FF324D
:1051C0001A600D4B01221A600C4B00221A6000F08D
:1051D00083FFE6E74FF0500383F31188BFF36F8F2F
:1051E000BFF34F8FFEE700BF60640008BD4F0008AB
:1051F0002C11002030110020501100207C110020C3
:10520000024A136801331360704700BFF810002092
:10521000014B1868704700BF7C110020F8B53A4B6D
:105220001B68002B69D1394B1D6801351D60C5B95C
:10523000374B1B681B6843B14FF0500383F3118851
:10524000BFF36F8FBFF34F8FFEE7314A1168314BC9
:10525000186810601960304A136801331360FFF753
:1052600077FD2E4B1B68AB423DD900272C4B1B68AA
:10527000DB6A03EB83039A002A4B9B58012B00D96E
:105280000127294B1B68002B3CD001273AE001275E
:105290001F4B1B681B6843B31D4B1B68DB68DC6836
:1052A00063689D4226D3261D3046FFF7E1F9A36AC5
:1052B0001BB104F11800FFF7DBF9E36A01229A4001
:1052C0001A49086802430A6003EB83039A003146D7
:1052D00014481044FFF7A8F9E26A114B1B68DB6A17
:1052E0009A42D4D2D4E70027D2E70C4B4FF0FF32DA
:1052F0001A60BBE7094A1360B8E70D4A1368013327
:10530000136000273846F8BDF81000207C110020FB
:105310005C100020601000203411002030110020AB
:10532000581000206410002080110020001100207F
:105330003811002038B5354B1B6843B94FF0500386
:1053400083F31188BFF36F8FBFF34F8FFEE700F039
:1053500029FE2E4B1A68013A1A601B68002B4FD1A8
:105360002B4B1B680BB900244BE00024294B1B6816
:105370001BB3284BDB68DC6804F11800FFF778F9F1
:10538000251D2846FFF774F9E06A01238340224A6D
:1053900011680B43136000EB800029461F4B03EBA1
:1053A0008000FFF741F9E26A1D4B1B68DB6A9A42F5
:1053B000DCD31C4B01221A60D8E70CB1FFF7C8FC04
:1053C000194B1C6884B9174B1C68D4B14FF0E0230B
:1053D0004FF08052C3F8042DBFF34F8FBFF36F8F90
:1053E00001240EE0013C07D0FFF718FF0028F9D098
:1053F0000C4B01221A60F5E70B4B00221A60E2E722
:10540000002400F0F1FD204638BD00BFF810002058
:10541000F01000203C11002000110020641000203A
:1054200058100020801100203811002010B5A8B1BC
:105430000446104B1B6843B14FF0500383F31188AF
:10544000BFF36F8FBFF34F8FFEE7FFF7D9FE002149
:105450002046FFF7C7FDFFF76DFF48B94FF0E02387
:105460004FF08052C3F8042DBFF34F8FBFF36F8FFF
:1054700010BD00BFF8100020204B1B681BB1204B53
:1054800001221A6070471E4B00221A601D4B1B68D8
:10549000B3FA83F3DBB2C3F11F0303EB83018A008A
:1054A00019498A5842B94FF0500383F31188BFF36A
:1054B0006F8FBFF34F8FFEE7134903EB830082002A
:1054C0000A4450684068506003EB830C4FEA8C023A
:1054D00008321144884209D003EB83039A000A4B37
:1054E00013445B68DA68094B1A607047406862468B
:1054F0009100054A0A445060EEE700BFF810002012
:10550000801100200011002064100020581000209D
:1055100058B110B50C46094A11681831FFF78FF8D9
:1055200001212046FFF75EFD10BD4FF0500383F3CD
:105530001188BFF36F8FBFF34F8FFEE75810002025
:1055400038B570B10D4614460A4A11681831FFF794
:105550006BF80CB14FF0FF3521462846FFF742FDAE
:1055600038BD4FF0500383F31188BFF36F8FBFF343
:105570004F8FFEE75810002038B5C368DC6824B3AD
:1055800004F118052846FFF773F8184B1B682BBB6E
:10559000251D2846FFF76CF8E06A01238340144A72
:1055A00011680B43136000EB80002946114B03EB9D
:1055B0008000FFF739F8E26A0F4B1B68DB6A9A42FA
:1055C00011D901200D4B186038BD4FF0500383F303
:1055D0001188BFF36F8FBFF34F8FFEE7294608484E
:1055E000FFF722F8E7E70020EEE700BFF810002001
:1055F00000110020641000205810002080110020AD
:105600003C110020034B1B680360034B1B68436085
:10561000704700BF341100207C110020F8B5B8B1EC
:105620000C460546E9B100F0BDFC214B1A686B68D9
:10563000D01A2049096891F85210D9B11D4B1B6846
:10564000002283F85220012400F0CEFC2046F8BD51
:105650004FF0500383F31188BFF36F8FBFF34F8F69
:10566000FEE74FF0500383F31188BFF36F8FBFF352
:105670004F8FFEE72168B1F1FF3F14D00E4E366820
:105680002F68B74201D093420FD9814203D800233B
:1056900023600124D8E79B1A0B4423602846FFF7B8
:1056A000B1FF0024D0E70024CEE70124CCE700BFFF
:1056B0007C1100205810002034110020014B0122E1
:1056C0001A6070478011002008B5034618B1186BA6
:1056D000FFF733FB08BD014B1B68F8E758100020AB
:1056E000054B1B6833B1054B1B680BB1002070479D
:1056F000022070470120704750110020F810002050
:1057000000284CD038B50446274B1B68834208D08C
:105710004FF0500383F31188BFF36F8FBFF34F8FA8
:10572000FEE7836C43B94FF0500383F31188BFF356
:105730006F8FBFF34F8FFEE7013B8364C16A426CFA
:1057400091422ED00BB1002038BD051D2846FEF732
:105750008FFF70B9E26A02EB82039B001349CB58BA
:105760003BB9012303FA02F211490B6823EA020351
:105770000B60606CE062C0F10703A361012404FACE
:1057800000F30B4A11680B43136000EB80002946BD
:10579000064B03EB8000FEF747FF2046D4E70020CE
:1057A00070470020D0E700BF581000206410002090
:1057B00000110020064B1A6813682BB901230360FF
:1057C00023B9D368186870470023F8E700207047B2
:1057D0008411002008B54160006191420CD8D21AB2
:1057E00083699A4201D3012008BD011D094B186845
:1057F000FEF725FF0020F7E79A4201D2994206D230
:10580000011D054B1868FEF71AFF0020ECE7012088
:10581000EAE700BF881100208411002030B583B072
:1058200000F0C0FB114B1B681BB100F0DDFB03B0A7
:1058300030BD0F4D2846FEF7E9FE0E4C2046FEF720
:10584000E5FE0D4B1D600D4B1C60002300930C4BBF
:105850000C4A10210A20FFF70EF8044B18600028AC
:10586000E3D00949FFF72CFADFE700BFA0120020C0
:105870002C120020401200208411002088110020EA
:10588000581200208C1100206864000810B588B000
:10589000FFF7C4FF124B1B68CBB10024059406949C
:1058A00007AA06A905A8FBF7B5FF059B0293069B6F
:1058B0000193022300932346079A0A490A48FFF7F7
:1058C000E1FB0A4B186010B1012008B010BD4FF089
:1058D000500383F31188BFF36F8FBFF34F8FFEE741
:1058E000A012002070640008F15B0008A4120020E0
:1058F000B8B19C4603461848006858B300B585B057
:1059000000910192029305291CDCFFF7E9FE0228B1
:1059100010D000231A4669460F480068FEF7F5FFCD
:1059200015E04FF0500383F31188BFF36F8FBFF37F
:105930004F8FFEE70023069A694607480068FEF786
:10594000E4FF04E0002362466946FFF7A2F805B0D1
:105950005DF804FB00207047A012002070B582B0F3
:105960001B4B1B681A6862B3DB681E68DC68251D68
:105970002846FEF77DFE236A2046984794F8243097
:1059800013F0040FECD0A36933449E4207D2636046
:10599000246129460E4B1868FEF751FEE0E700210E
:1059A00000910B4632462046FFF7A2FF0028D7D1D0
:1059B0004FF0500383F31188BFF36F8FBFF34F8F06
:1059C000FEE7044A106802490860136002B070BD27
:1059D000841100208811002038B50546FFF718FC17
:1059E0000446074B1B68834205D800232B60044BF9
:1059F0001C60204638BDFFF7B1FF01232B60F6E79E
:105A00005412002070B582B006460D461749096849
:105A1000C968CC68201DFEF72BFE94F824C01CF04A
:105A2000040F08D12CF0010C84F824C0236A20460E
:105A3000984702B070BDA16933462A4631442046DA
:105A4000FFF7C8FE0028F1D0002100910B46324636
:105A50002046FFF74DFF0028E8D14FF0500383F3B5
:105A60001188BFF36F8FBFF34F8FFEE784110020C3
:105A700070B582B006460C46FFF7C2FB01A8FFF7DF
:105A8000ABFF019B33BB05460CB9B04219D224B120
:105A9000124A12681268DAB901242246711B104BAF
:105AA0001868FFF721F9FFF745FCA8B94FF0E0238C
:105AB0004FF08052C3F8042DBFF34F8FBFF36F8FA9
:105AC0000AE0FFF737FC29463046FFF79BFF03E06B
:105AD0001C46E2E7FFF72EFC02B070BD88110020E3
