:020000040800F2
:10000000000002206D610008E5230008E7230008D6
:10001000E9230008EB230008ED230008000000009E
:10002000000000000000000000000000A15E0008C9
:10003000EF23000800000000415F0008F1230008E2
:10004000BD610008BD610008BD610008BD61000818
:10005000BD610008BD61000807240008BD610008FB
:10006000BD610008112400081B240008BD610008C0
:10007000BD610008BD610008BD610008BD610008E8
:10008000BD610008BD610008BD610008BD610008D8
:1000900025240008BD610008BD6100083524000862
:1000A000BD610008BD610008BD610008BD610008B8
:1000B000BD610008BD610008BD610008BD610008A8
:1000C000BD610008BD610008BD610008BD61000898
:1000D000BD610008BD610008BD610008A10E0008F7
:1000E000BD610008BD610008BD610008BD61000878
:1000F000BD610008BD610008BD610008BD61000868
:10010000BD610008BD610008BD610008BD61000857
:10011000BD610008BD610008BD610008BD61000847
:10012000BD610008BD610008BD610008BD61000837
:10013000BD610008BD610008BD610008BD61000827
:1001400041240008BD610008BD610008BD610008D0
:10015000BD610008BD610008BD610008BD61000807
:10016000BD610008BD610008BD610008BD610008F7
:10017000BD610008BD610008BD610008000000000D
:08018000BD610008BD6100082B
:1001900010B5054C237833B9044B13B10448AFF3C1
:1001A00000800123237010BD3000002000000000FB
:1001B000BC62000808B5034B1BB103490348AFF309
:1001C000008008BD0000000034000020BC62000870
:1001D00053B94AB9002908BF00281CBF4FF0FF31AE
:1001E0004FF0FF3000F074B9ADF1080C6DE904CEAA
:1001F00000F006F8DDF804E0DDE9022304B0704702
:100200002DE9F047089D04468E46002B4DD18A42C9
:10021000944669D9B2FA82F252B101FA02F3C2F1FC
:10022000200120FA01F10CFA02FC41EA030E94408D
:100230004FEA1C48210CBEFBF8F61FFA8CF708FBAE
:1002400016E341EA034306FB07F199420AD91CEB86
:10025000030306F1FF3080F01F81994240F21C81B8
:10026000023E63445B1AA4B2B3FBF8F008FB103300
:1002700044EA034400FB07F7A7420AD91CEB040435
:1002800000F1FF3380F00A81A74240F20781644405
:10029000023840EA0640E41B00261DB1D44000238A
:1002A000C5E900433146BDE8F0878B4209D9002DEE
:1002B00000F0EF800026C5E9000130463146BDE878
:1002C000F087B3FA83F6002E4AD18B4202D38242E2
:1002D00000F2F980841A61EB030301209E46002D91
:1002E000E0D0C5E9004EDDE702B9FFDEB2FA82F2E6
:1002F000002A40F09280A1EB0C014FEA1C471FFA44
:100300008CFE0126200CB1FBF7F307FB131140EA2A
:1003100001410EFB03F0884208D91CEB010103F1F7
:10032000FF3802D2884200F2CB804346091AA4B2B9
:10033000B1FBF7F007FB101144EA01440EFB00FE8D
:10034000A64508D91CEB040400F1FF3102D2A645F2
:1003500000F2BB800846A4EB0E0440EA03409CE791
:10036000C6F12007B34022FA07FC4CEA030C20FA3E
:1003700007F401FA06F31C43F9404FEA1C4900FA5E
:1003800006F3B1FBF9F8200C1FFA8CFE09FB1811DB
:1003900040EA014108FB0EF0884202FA06F20BD94E
:1003A0001CEB010108F1FF3A80F08880884240F29E
:1003B0008580A8F102086144091AA4B2B1FBF9F0E2
:1003C00009FB101144EA014100FB0EFE8E4508D9DD
:1003D0001CEB010100F1FF346CD28E456AD9023862
:1003E000614440EA0840A0FB0294A1EB0E01A14247
:1003F000C846A64656D353D05DB1B3EB080261EBB5
:100400000E0101FA07F722FA06F3F1401F43C5E98E
:10041000007100263146BDE8F087C2F12003D840C4
:100420000CFA02FC21FA03F3914001434FEA1C4706
:100430001FFA8CFEB3FBF7F007FB10360B0C43EAF8
:10044000064300FB0EF69E4204FA02F408D91CEBA8
:10045000030300F1FF382FD29E422DD902386344A6
:100460009B1B89B2B3FBF7F607FB163341EA034146
:1004700006FB0EF38B4208D91CEB010106F1FF3895
:1004800016D28B4214D9023E6144C91A46EA00468C
:1004900038E72E46284605E70646E3E61846F8E61E
:1004A0004B45A9D2B9EB020864EB0C0E0138A3E767
:1004B0004646EAE7204694E74046D1E7D0467BE748
:1004C000023B614432E7304609E76444023842E7C0
:1004D000704700BFB0B1AAB10170116841605168A6
:1004E00081609268C26080ED040AC0ED050A0022B6
:1004F0008263426302630262C26282624262426457
:100500000264C263704700000346002800F0A38025
:10051000D0ED107AC0ED117AD0ED0F6AC0ED106AFF
:10052000C0ED060A80ED070A70EEC00AC0ED0F0AA2
:100530000278002A4CD190ED017A20EE877A80ED86
:10054000097AD0ED027A60EEA77A90ED0A6A77EE2A
:10055000867AC0ED0A7A426B8263026B426370EE68
:10056000E60AC0ED0C0AD0ED036A60EEA60AC0ED03
:100570000B0AD0ED056AF4EEE67AF1EE10FA13DD1F
:10058000C0ED0A6AD3ED0A7A37EE277A70EE870A51
:10059000C3ED080AD3ED047AF4EEE70AF1EE10FA9F
:1005A0000CDDC3ED087A15E0F1EE666AF4EEE67A4A
:1005B000F1EE10FAE6D5C0ED0A6AE3E7F1EE677AEC
:1005C000F4EEE70AF1EE10FA04D5C3ED087A01E083
:1005D000012A02D093ED080A704790ED017A30EEBF
:1005E000E66A27EE067A80ED097A90ED026A20EE3F
:1005F000866A80ED0A6A426B8263026B426376EE22
:10060000A66A70EEE60A77EEA00AC0ED0C0AD0EDFD
:10061000037A60EEA77AC0ED0B7A37EE067A77EEB2
:10062000877A90ED087A77EE877AC0ED087A90EDB8
:10063000047AF4EEC77AF1EE10FA02DD80ED087A62
:10064000C8E7B1EE477AF4EEC77AF1EE10FAC1D5F9
:1006500080ED087ABEE79FED010A704700000000B8
:1006600080ED030A0B6883600023036043607047DA
:1006700080ED000A90ED027A90ED036A77EE066A4B
:10068000C7EE267A90ED017A67EE877A86EE267AB3
:1006900027EE000A37EE800A80ED010A7047B4EEBB
:1006A000E00AF1EE10FA07D4B4EEC10AF1EE10FA46
:1006B00004DDB0EE410A7047B0EE600A7047B4EE58
:1006C000E01AF1EE10FA1ED4B4EEC01AF1EE10FAF0
:1006D0000AD571EE600A01E030EE600AB4EEC10A9C
:1006E000F1EE10FAF8DC7047F4EEC00AF1EE10FA01
:1006F00009DD31EE601AB4EEE00AF1EE10FA02D52F
:1007000030EE010AF7E770470246002852D0002376
:1007100022E003EB830102EB8101C868B0F902001B
:1007200007EE900AF8EEE77A9FED237A67EE877A74
:10073000C1ED057A03EBC30102EBC101D1ED237AD0
:100740009FED1E7A67EE877A03EB830102EB81014E
:10075000C1ED047A0133DBB2032BDAD992ED0A5AE8
:10076000D2ED057A35EE677AD2ED0F5A37EE257A5B
:1007700092ED146A37EE467AF5EE006A27EE267A95
:1007800082ED797AF1EE677A77EEC57A35EEA77A5F
:1007900036EE077A27EE267A82ED7A7A77EEE57AD8
:1007A00077EEC67A67EEA67ADFED056A87EEA67A5F
:1007B00082ED7B7A704700BF0A01DA390000FA4304
:1007C000CDCC4C3EB1EE407A37EE607ADFED0F7A59
:1007D00061EE277A37EE277A80ED007A30EE607A84
:1007E00077EE877AC0ED017A70EE207A9FED087A75
:1007F00021EE071A77EE817AC0ED027A70EEC00A18
:1008000031EE201A80ED031A704700BFEB5138BE5D
:10081000AF4761BE002853D038B52DED028B054699
:100820000323037200F038FB2860002417E0204601
:1008300001F012F904EB840305EB8303D86004EBA9
:10084000C400C00058302844DFED1E0A9FED1E0A88
:100850001E4A00210430FFF73DFE0134E4B2032CB0
:10086000E5D9DFED1B0AB1EE080A1A4A002105F5A9
:10087000BE70FFF72FFE9FED188A1849B0EE480AA8
:1008800005F5E270FFF7ECFE1549B0EE480A05F5F4
:10089000EA70FFF7E5FE4FF08043C5F808324FF0ED
:1008A0004043C5F80C324FF07F53C5F810320D4B62
:1008B000C5F814322846FFF727FFBDEC028B38BD80
:1008C000704700BF0000FA4400007A463C6300080D
:1008D000CDCC4C3E306300086F12033B2863000808
:1008E0002C6300080000C0BF18B108B500F03CFC44
:1008F00008BD7047002800F09D8010B52DED028BDB
:1009000084B004460023039302930193034601AA93
:1009100002A903A800F060FC237AA3B1012B3AD00E
:10092000022B6FD0032B32D1039BC4F8F031029B12
:10093000C4F8F431019BC4F8F8310023C4F8C8317D
:10094000C4F8D83123E0039BC4F8F031029BC4F80B
:10095000F4319FED391ADFED390A9DED010AFFF7F9
:10096000AEFE84ED800A94ED821AD4ED830A94EDF4
:100970007C0AFFF794FE84ED7C0A94ED841AD4ED92
:10098000850A94ED7D0AFFF78AFE84ED7D0A04B0A6
:10099000BDEC028B10BDDFED288A9FED288AB0EEFA
:1009A000681AF0EE480A9DED010AFFF788FE84ED13
:1009B000810AD4ED867AB0EE681AF0EE480A30EE7D
:1009C000670AFFF77CFEF0EE400A9FED1D0A04F572
:1009D000BE70FFF799FD84ED7E0A94ED821AD4ED86
:1009E000830A9DED030AFFF75AFE84ED7C0A94ED1D
:1009F000841AD4ED850A9DED020AFFF750FE84EDBE
:100A00007D0AC4E7019BC4F8F83194ED821AD4ED55
:100A1000830A9DED030AFFF742FE84ED7C0A94ED04
:100A2000841AD4ED850A9DED020AFFF738FE84EDA5
:100A30007D0AACE7704700BFDB0F4940DB0F49C0C0
:100A40000000000030B585B00546002300930193F7
:100A500002930393684695ED7E1AD5ED7D0A95EDD8
:100A60007C0AFFF7AFFE2B7A032B16D000239FEDF5
:100A70003B7A16E004AA02EB830252ED047AFDEE03
:100A8000E77A03EB830205EB820217EE901A91835B
:100A90000133DBB2032BEDD95EE00023FAE701332B
:100AA000DBB2032B14D804AA02EB830252ED047AC2
:100AB00003EB830205EB8202C2ED067AF0EEE77AE1
:100AC000B4EEE77AF1EE10FAE9D5B0EE677AE6E730
:100AD000F1EE007AB4EEE77AF1EE10FA11DDC7EE2E
:100AE000876A00230BE003EB830205EB8202D2ED61
:100AF000067A67EEA67AC2ED067A0133DBB2032BE3
:100B0000F1D9002411E004EB840305EB830304EB2B
:100B1000C400C00058302844D3ED060A93ED050AFE
:100B20000430FFF7F1FC0134E4B2032CEBD90023CD
:100B300010E003EBC30205EBC202D2ED1F7AFDEE1B
:100B4000E77A03EB830205EB820217EE901A91839A
:100B50000133DBB2032BECD905B030BD000000003F
:100B6000034690B1417A027A91420ED021B11AB96E
:100B70000021C0F8001207E0012901D0012A05D0A8
:100B8000022901D0022A06D05A727047D3F81812EF
:100B9000C3F80412F8E7D3F81812C3F80412F3E705
:100BA00008B540F2651004F0F1FB2248FFF732FE71
:100BB0001FE0022000F03EFB80B3032000F03AFB70
:100BC00060B3042000F036FB58B927E01948B0F9AB
:100BD0005830B0F94420B0F93010B0F91C0000F0E2
:100BE00011FF022004F0D2FB002004F01DFD124B87
:100BF0001860104C2046FFF777FE2046FFF7B0FF45
:100C00002046FFF781FD2046FFF774FE2046FFF7E0
:100C100019FF012000F00EFB0028CAD1002000F0CF
:100C200009FB0028D2D000231A461946184600F0C6
:100C3000E9FED6E7500000204C000020002A7CD0BE
:100C400070B52DED028B82B005460E461446002885
:100C500063D0002961D01268B2F9023000930A33E0
:100C60009BB2142B01D800230093B2F900300193FA
:100C70000A339BB2142B01D800230193DDED007AD7
:100C8000F8EEE78ADFED2D7A68EEA78ADDED017ACE
:100C9000B8EEE78ADFED2A7A28EE278A938A13F0E6
:100CA000010F3ED0D4ED828A13F0040F3FD094EDB3
:100CB000848AB0EE680A04F5E270FFF7D9FCB0EE62
:100CC000480A04F5EA70FFF7D3FCDFED1E7AF4EE74
:100CD000E78AF1EE10FA09D5DFED1B7AF4EEE78A28
:100CE000F1EE10FA02DD0023C4F8C831DFED177A07
:100CF000B4EEE78AF1EE10FA09D5DFED157AB4EE1D
:100D0000E78AF1EE10FA02DD0023C4F8D831D4F8F6
:100D1000C8312B60D4F8D831336002B0BDEC028BFF
:100D200070BD13F0020FBFD0D4ED838ABCE713F07F
:100D3000080FBED094ED858ABBE77047A69BC43BE5
:100D40000AD7A3BB90C2753D90C275BDCCCC4C3DBB
:100D5000CCCC4CBD00285FD0034600295CD030B518
:100D600090F800C042784CEA022CCCF30A0CA1F8AF
:100D700000C042788078D20842EA4012C2F30A0EDC
:100D8000A1F802E09A78D878920942EA80021879AC
:100D900042EA8022C2F30A028A8018795C7940080C
:100DA00040EAC410C0F30A00C8805C79C4F301149F
:100DB0008C725C79A409CC729C79DD7944EA0524B3
:100DC0008C811C7A5D7A44EA0524CC819C7ADD7A98
:100DD00044EA05240C821C7B8C745C7BCC749C7B69
:100DE000DD7B44EA05248C821C7C5B7C44EA032383
:100DF0001CB20B81ACF5806CA1F800C0AEF5806E22
:100E0000A1F802E0A2F580628A80A0F58060C88027
:100E1000A4F580630B8130BD7047000010B4164B01
:100E20001B685C6944F040045C61DC6844F01004B9
:100E3000DC60124B1C68236823F00103236003E08D
:100E40001C6824F001041C600C4B1B681C6814F027
:100E5000010FF5D10A4C9C60D86019615A601A687C
:100E600042F480221A60054B1A68136843F00103AC
:100E700013605DF8044B7047A80F0020480F002056
:100E80000448004008B5034824228118FFF7C6FF34
:100E900008BD00BF8C02002000487047740200208B
:100EA00000B583B0324B1B681A6812F0200F09D0CE
:100EB000002200921A6800925B680093009B03B0C6
:100EC0005DF804FB2B4A126812F0100FF7D00022D5
:100ED00001921A6801925B680193019B264B1B6883
:100EE0001A6812F4002F20D11A6822F001021A6049
:100EF000214802685368C3F124039BB21F490B8049
:100F000024215160116841F40021116001680A68D0
:100F100042F001020A60122BD1D119491948FFF79A
:100F200019FF002000F092F9C9E71A6822F00102C7
:100F30001A60114908684368C3F124030F4A1380FB
:100F4000242343601048836A23F4002383620968E2
:100F50000B6843F001030B601388122BAFD10849D3
:100F60000A48FFF7F7FE002000F070F9A7E700BF7E
:100F7000A80F002000480040480F0020D4020020A5
:100F8000740200208C02002000600240B0020020A9
:100F900030B129B122B11BB1002303600B60136093
:100FA000704730B129B122B11BB1002303600B603F
:100FB00013607047844630B329B322B31BB318685B
:100FC000B0F9020000EB8000400007EE900AF8EE56
:100FD000E77ACCED007A1868B0F900006FF0090CE0
:100FE0000CFB00F007EE900AF8EEE77AC1ED007A0C
:100FF0001B68B3F904300CFB03F307EE903AF8EEEC
:10100000E77AC2ED007A7047B0B138B515461C4694
:1010100089B182B17CB12246FFF710FE2368B3F993
:10102000043007EE903AF8EEE77A9FED047A67EE27
:10103000877AC5ED007A38BD704700BF0AD723BC58
:10104000002855D038B515461C46002935D0002A51
:1010500033D0002C31D02246FFF7F0FD23689B8A65
:1010600013F0200F09D0234A12784AB9214A0121EE
:101070001170214A0021116002E01E4A0021117006
:1010800013F00F0F1AD01D4B1D4A1A60194B1B7815
:10109000C3B91C4B00221A60174BD3ED007A9FEDA9
:1010A0001A7AF4EEC77AF1EE10FA03DD77EEC77A1A
:1010B000C3ED007A134B1B682B6038BD0F4B134AEE
:1010C0001A60E3E70C4C94ED000A05F0B3F80B4B03
:1010D000D3ED007A20EE270A0A4B83ED000AD4ED07
:1010E000007A9FED0B7A77EE877AC4ED007AD3E72A
:1010F000704700BFDC020020E0020020000000205A
:101100007CD9A03ED8020020DB0FC9403333333FE7
:101110007C59444400B338B515461C46D9B1D2B108
:10112000CCB12246FFF78AFD94ED810A2368B3F91A
:10113000043007EE903AF8EEE77A9FED087A67EE12
:10114000877A9FED071ADFED070A30EE670AFFF78F
:10115000B6FA85ED000A38BD704700BFBD370636C8
:10116000DB0F4940DB0F49C0024610B303689B7A8E
:10117000032B07D0022B0ED0012B06D1154B0321D8
:10118000197002E0134B04211970124B1B7833B90C
:101190000323137270470F4B01211970F5E7012BE0
:1011A00008D0022B09D0032B0AD0042B0BD0052B1F
:1011B0000CD07047022313727047002313727047DC
:1011C00001231372704702231372704703231372B3
:1011D000EFE700BFD602002048B3844639B332B3EC
:1011E0002BB310B5124804786CB1012C0FD0022C2F
:1011F00011D0032C13D0042C15D0052C06D1604639
:10120000FFF7D8FE02E06046FFF7C2FE10BD604661
:10121000FFF7C7FEFAE76046FFF712FFF6E7604602
:10122000FFF778FFF2E76046FFF7EEFEEEE7704764
:10123000D602002000EBC000034B03EB8000C07C13
:10124000C0F34010704700BFE4020020F8B5044628
:10125000234E00EBC005AF0006EB8505F3596B602C
:1012600003F086FFF051EB7C13F0400F04D0EA7CD2
:101270006FF38612EA74E86004EBC403184A02EBC9
:1012800083039B6913B39847B0B1154B04EBC402B9
:1012900003EB820202F11001D27C42F02002CA70FC
:1012A000D2B242F08002CA7004EBC40403EB8403A0
:1012B0001B6A53B1984708E004EBC404084B03EBE6
:1012C0008404E37C6FF3C713E374F8BD04EBC40438
:1012D000034800EB8404E37C6FF3C713E374F4E783
:1012E000E402002010B4030E0D4A1370C0F307424D
:1012F00003FB02F20B490A80C0F3072103FB01F153
:10130000094C2180C0B203FB00F0084B1880084B49
:101310001B6858639963DA635DF8044B704700BF3C
:10132000000500200605002004050020020500201D
:10133000C80E002038B52DED088B002529E07BEE86
:101340008ABA3BEE29BA7AEE89AA38EE288AFCEEF0
:10135000EB7A17EE903AFCEECB7A17EE900A020485
:1013600042EA0360FCEEEA7A17EE903A40EA032381
:10137000FCEEC87A17EE900A1843FFF7B3FF01207E
:1013800004F01FFC0134A4B2B4F57A7FD7D3013541
:10139000ADB2052DD1D8234A52F82530190E0BEEE7
:1013A000901AF8EE6BBAC3F307410BEE101AB8EEC1
:1013B0004BBAC3F307210AEE901AF8EE6AAADBB221
:1013C00007EE903AB8EE678A6B1C52F823301A0E7B
:1013D00006EE102AB8EE466A36EE6B6AC3F3074291
:1013E00006EE902AF8EE666A76EECB6AC3F3072221
:1013F00007EE102AB8EE477A37EE6A7ADBB207EECC
:10140000903AF8EE677A77EEC87ADFED075A86EE03
:1014100025AAC6EEA59A87EE259AC7EEA58A0024CE
:10142000B2E700BF0400002000007A4430B599B054
:10143000302200210DEB020004F0F4FE002407949A
:10144000089409940A940B940394049405940694C4
:1014500001941F4B1A6C42F080521A641B6C03F00B
:1014600080530193019B02941A4B1A6842F4804204
:101470001A601B6803F480430293029B01230C93C0
:101480004FF480330D93022512954FF4800313938C
:1014900006231493A82315931695072317930CA8D6
:1014A00001F0CEFB0F230793089509944FF4A05346
:1014B0000A934FF480530B93052107A801F0DEFD3A
:1014C0000395054B069303A801F0ACFE19B030BD9F
:1014D000003802400070004000031E0008B502F012
:1014E000A9F9FFF7A3FF00F023F800F0BFFA00F01E
:1014F00043F900F061F900F08DFB00F0F7FD00F01A
:101500004DFE00F0EFFE00F041FC00F0E3FA00F0C9
:1015100059FB00F095FD00F0ABFE00F0FDF9FFF780
:10152000B1FC00F0E7F804F012FBFEE770470000A2
:101530002DE9F0478CB000240794089409940A948C
:101540000B940094564B1A6B42F002021A631A6B0A
:1015500002F002020092009A01941A6B42F001021A
:101560001A631A6B02F001020192019A02941A6B3B
:1015700042F008021A631A6B02F008020292029A01
:1015800003941A6B42F004021A631A6B02F004020D
:101590000392039A04941A6B42F080021A631A6B46
:1015A00002F080020492049A05941A6B42F0400201
:1015B0001A631A6B02F040020592059A06941A6BA0
:1015C00042F020021A631B6B03F020030693069B74
:1015D000344F01224021384601F0B4FFDFF8CCA09F
:1015E00001221021504601F0ADFFDFF8C480012236
:1015F0001146404601F0A6FF4023079301250895B8
:1016000009950A9507A9384601F0B6FE09260796FE
:10161000DFF8A090CDF82090099507A9384601F091
:10162000ABFE102307930895099502270A9707A98F
:10163000504601F0A1FE30230793CDF82090099584
:1016400007A9194801F098FE0795089509950A978A
:1016500007A9404601F090FE22460621084602F006
:1016600069F8062002F09EF822460521304602F075
:1016700061F8304602F096F8224605210A2002F071
:1016800059F80A2002F08EF822460521172002F0B0
:1016900051F8172002F086F80CB0BDE8F08700BFC3
:1016A00000380240001802400008024000000240DA
:1016B000000402400000211008B5012004F081FA66
:1016C000FBE70000034B0360034B0B6080231360B8
:1016D000704700BF1407002014050020034B03606F
:1016E000034B0B604FF4807313607047680B00204E
:1016F0006807002010B596B01B4C0DF13C0CA646B7
:10170000BEE80F00ACE80F009EE807008CE8070079
:1017100000210FA804F020FA144B18600DF1200CE2
:1017200004F11C0EBEE80F00ACE80F009EE80700B5
:101730008CE80700002108A804F00EFA0C4B186092
:101740000DF1040E04F1380CBCE80F00AEE80F00F8
:101750009CE807008EE80700002101A804F0FCF9CE
:10176000044B186016B010BDD462000810050020AC
:10177000080500200C05002008B50D480D4B03603E
:101780000323436000238360C3604FF4102202618F
:101790004FF400124261037643768376C376037773
:1017A000437700F077FE00B908BDFFF7BFFEFBE707
:1017B000E00B00200064004008B50D480D4B0360AD
:1017C0000323436000238360C3604FF4102202614F
:1017D0004FF400124261037643768376C376037733
:1017E000437700F057FE00B908BDFFF79FFEFBE707
:1017F000080C00200068004010B58AB00023059353
:10180000069307930893099303683D4A934204D0D3
:101810003C4A934234D00AB010BD3B4A13680133AE
:101820001360012B1FD000240194384B1A6B42F037
:1018300008021A631B6B03F008030193019B032347
:1018400005930222069208930923099305A93048BB
:1018500001F092FD22460621142001F06BFF1420B6
:1018600001F0A0FFD7E700230093284B1A6C42F049
:1018700000721A641B6C03F000730093009BD2E7A4
:1018800000230293214B1A6C42F080621A641B6C95
:1018900003F080630293029B1B4A136801331360B9
:1018A000012B20D000240494184B1A6B42F0020242
:1018B0001A631B6B03F002030493049B60230593DC
:1018C00002230693032308930923099305A91148CA
:1018D00001F052FD22460621402001F02BFF40205E
:1018E00001F060FF97E700230393084B1A6C42F066
:1018F00000721A641B6C03F000730393039BD1E71F
:101900000064004000680040BC0B0020003802402A
:10191000000C02400004024010B58AB00122089277
:101920000023069307920093019302930393059378
:1019300004930E4C6946204600F052FE204600F00B
:10194000EBFE0221204601F038F80E23099305939F
:10195000074C6946204600F043FE204600F0DCFEBE
:101960000221204601F029F80AB010BDE00B00204A
:10197000080C002010B58AB001AB03AA002100F0CA
:1019800077FF0398A0F20123062B01D90AB010BDFE
:10199000C0B2431EDBB2194A1370194903EB830C22
:1019A0004FEA4C0201EB020C8C5EACF808409DF84B
:1019B00004409DF805E04EEA042E21F802E09DF86F
:1019C0000620120212B29DF807E042EA0E02ACF8BD
:1019D00002209DF80820120212B29DF809E042EAA6
:1019E0000E02ACF804209DF80AC003EB83035A00F2
:1019F000114481F806C0FFF729FCC7E7300C00202E
:101A0000340C002010B582B08E4694460F494FF436
:101A100000720A6000228A60CA6008220A610C4AC9
:101A20000412147050704FEA2E20907082F803E078
:101A30004FEA2C20107182F805C018129071D371F2
:101A400001AB044800F096FE02B010BDC80B0020A8
:101A5000C00B0020E00B002000F0030000EB800032
:101A6000014B03EB40007047340C002010B582B0EE
:101A700000240094164B1A6B42F480021A631A6B0E
:101A800002F480020092009A01941A6B42F4001250
:101A90001A631B6B03F400130193019B224605217B
:101AA0000C2001F047FE0C2001F07CFE22460521AF
:101AB0003A2001F03FFE3A2001F074FE2246052153
:101AC0003B2001F037FE3B2001F06CFE02B010BD60
:101AD0000038024008B50B480B4B03600B4B4360CA
:101AE00000238360C3604FF48042026143618361DD
:101AF000C361036201F0CAFE00B908BDFFF716FD1D
:101B0000FBE700BF7C0C0020005C0040801A060050
:101B10002DE9F04389B000230393049305930693C2
:101B200007930268234B9A4202D009B0BDE8F083C4
:101B300000250095204C236B43F004032363236BA3
:101B400003F004030093009B0195236B43F0010312
:101B50002363236B03F001030193019B4FF4007394
:101B600003934FF01209CDF810904FF00108CDF813
:101B70001480032706970426079603A90F4801F04F
:101B8000FBFB4FF480730393CDF81090CDF81480D5
:101B90000697079603A90A4801F0EEFB0295236C0D
:101BA00043F400032364236C03F400030293029BB9
:101BB000BBE700BF005C0040003802400008024064
:101BC0000000024008B50A480A4B03600023436046
:101BD0007C22826040F67F42C26003614361836180
:101BE00001F05FFF00B908BDFFF7A0FCFBE700BFF5
:101BF000D00C0020002800400268044B9A4200D01C
:101C00007047034B0122C3F83C2EF9E7002800403F
:101C10000000474208B50F480F4B03604FF4827332
:101C2000436000238360C36002220261012242619B
:101C30004FF4007282613822C261036243628362A0
:101C40000A23C36201F08FFF00B908BDFFF76EFCE5
:101C5000FBE700BFB00D0020003001402DE9F0434C
:101C600089B00023039304930593069307930268B6
:101C70003F4B9A4202D009B0BDE8F08304460025EC
:101C8000009503F584335A6C42F480525A645A6CBE
:101C900002F480520092009A01951A6B42F00202FF
:101CA0001A631A6B02F002020192019A02951A6BF2
:101CB00042F001021A631B6B03F001030293029BC3
:101CC000182303934FF00209CDF810904FF001084C
:101CD000CDF81480032706970526079603A9254803
:101CE00001F04AFB80230393CDF81090CDF81480C7
:101CF0000697079603A9204801F03EFB1F48204B9A
:101D000003604FF0C06343608560C5604FF480633B
:101D1000036145618561C5614FF4403303624562EB
:101D200001F090FCE8B9154BE3649C631548164B31
:101D300003604FF0C0634360402383600023C360AF
:101D40004FF48062026143618361C3614FF40032EA
:101D50000262436201F076FC30B90A4BA3649C63D3
:101D600089E7FFF7E3FBDEE7FFF7E0FBF5E700BFFE
:101D7000003001400004024000000240F00C00204E
:101D800040640240500D00205864024000B587B006
:101D90000023029303930493059300930193154842
:101DA000154A0260A7224260836044F61F62C26047
:101DB00003614361836102F051F890B94FF480539D
:101DC000029302A90B4802F030F968B9002300938E
:101DD00001936946074802F0C5F940B907B05DF8BC
:101DE00004FBFFF7A3FBE9E7FFF7A0FBEEE7FFF734
:101DF0009DFBF3E7080F00200004014086B0036854
:101E0000284A934218D0284A934223D0274A934223
:101E10002DD0274A934237D0264A934218D1002327
:101E20000593254B5A6C42F400325A645B6C03F400
:101E300000330593059B0BE0002301931E4B1A6CA6
:101E400042F002021A641B6C03F002030193019B2F
:101E500006B0704700230293174B1A6C42F004023D
:101E60001A641B6C03F004030293029BF0E7002347
:101E70000393114B1A6C42F008021A641B6C03F0B6
:101E800008030393039BE3E7002304930A4B5A6C74
:101E900042F002025A645B6C03F002030493049B59
:101EA000D6E700BF0004004000080040000C0040DE
:101EB00000040140004401400038024030B58BB0BE
:101EC00000230593069307930893099303684F4AE9
:101ED00093420AD04E4A934229D04E4A934248D068
:101EE0004D4A93426FD00BB030BD002301934B4B52
:101EF0001A6B42F004021A631B6B03F00403019394
:101F0000019B4FF4807305930223069301220792ED
:101F10000893099305A9424801F02EFA414C204646
:101F200001F025FF0821204602F0FCF8DBE7002342
:101F300002933A4B1A6B42F008021A631B6B03F0D0
:101F400008030293029B4FF48043059302230693F8
:101F5000012207920893099305A9334801F00CFA6E
:101F6000324C204601F003FF0821204602F0DAF847
:101F7000B9E700250395294B1A6B42F080021A63DA
:101F80001B6B03F080030393039B4FF4E053059313
:101F900002230693012207920893099305A9244876
:101FA00001F0EAF9234C204601F0E1FE29462046E3
:101FB00002F0B8F80421204602F0B4F808212046C7
:101FC00002F0B0F88FE700250495144B1A6B42F02D
:101FD00020021A631B6B03F020030493049B40232D
:101FE0000593022306930122079208930323099382
:101FF00005A9114801F0C0F9104C204601F0B7FEC8
:102000002946204602F08EF86DE700BF000400402C
:1020100000080040000C004000440140003802402D
:1020200000080240480E0020000C0240880E0020EC
:10203000001C0240C80E002000140240080E0020C0
:1020400000B58FB000230A930B930C930D93089364
:1020500009930193029303930493059306930793C3
:102060002048214A02604360836042F2CF02C2608E
:102070000361836101F0F2FE28BB4FF480530A93A1
:102080000AA9184801F0D1FF00BB164801F000FF73
:10209000F8B900230893099308A9124802F062F8DE
:1020A000D0B9602301930023029303930593082280
:1020B00001A90C4801F03EFF88B90A48FFF7FEFE6F
:1020C0000FB05DF804FBFFF731FAD6E7FFF72EFA01
:1020D000DBE7FFF72BFADCE7FFF728FAE1E7FFF78A
:1020E00025FAEAE7480E00200004004000B58FB052
:1020F00000230A930B930C930D9308930993019378
:102100000293039304930593069307932148224A6D
:102110000260A722426083604FF6FF72C2600361D3
:10212000836101F09BFE28BB4FF480530A930AA9F8
:10213000184801F07AFF00BB164801F0A9FEF8B973
:1021400000230893099308A9124802F00BF8D0B9AC
:10215000602301930023029303930593082201A9AE
:102160000C4801F0E7FE88B90A48FFF7A7FE0FB058
:102170005DF804FBFFF7DAF9D6E7FFF7D7F9DBE7FD
:10218000FFF7D4F9DCE7FFF7D1F9E1E7FFF7CEF984
:10219000EAE700BF880E00200008004000B58FB0BD
:1021A00000230A930B930C930D93089309930193C7
:1021B0000293039304930593069307932A482B4AAB
:1021C0000260436083604FF6FF72C2600361836107
:1021D00001F044FE002831D14FF480530A930AA93C
:1021E000214801F022FF60BB1F4801F051FE58BB9F
:1021F00000230893099308A91B4801F0B3FF30BBE3
:1022000060230193002202920392059201A91648CD
:1022100001F090FEF0B904220DEB0201124801F02A
:1022200089FED0B9082201A90F4801F083FEB8B990
:102230000D48FFF743FE0FB05DF804FBFFF776F99A
:10224000CAE7FFF773F9CFE7FFF770F9D0E7FFF7B9
:102250006DF9D5E7FFF76AF9DDE7FFF767F9E1E721
:10226000FFF764F9E4E700BFC80E0020000C00404F
:1022700000B589B00023019302930393049305935F
:10228000069307931548164A02604360836041F243
:102290008732C2600361836101F0E0FDA0B90F489D
:1022A00001F0F6FD98B96023019300220292039297
:1022B000059201A9094801F03DFE58B90748FFF70A
:1022C000FDFD09B05DF804FBFFF730F9E7E7FFF724
:1022D0002DF9E8E7FFF72AF9F0E700BF080E002024
:1022E0000044014008B50B480B4B03600B4B4360A7
:1022F00000238360C3604FF4806202610C2242615C
:102300008361C36102F0E6F800B908BDFFF70EF97A
:10231000FBE700BFA80F002000480040A086010096
:1023200030B589B000230393049305930693079374
:102330000268284B9A4201D009B030BD04460025FE
:10234000019503F5F8331A6C42F480221A641A6C72
:1023500002F480220192019A02951A6B42F0040263
:102360001A631B6B03F004030293029B4FF4406358
:102370000393022304930123059303230693072366
:10238000079303A9144800F0F7FF1448144B0360A7
:102390004FF0006343608560C5604FF48063036164
:1023A00045618561C5614FF400330362456201F008
:1023B00049F958B9094B63639C6300220421272023
:1023C00001F0B8F9272001F0EDF9B5E7FFF7AEF815
:1023D000F0E700BF0048004000080240480F00201E
:1023E000286002407047FEE7FEE7FEE7FEE7704721
:1023F00008B501F039FA03F023F9012800D108BD2E
:1024000003F0D0FDFBE708B5012001F0A3F808BDFB
:1024100008B5082001F09EF808BD08B5102001F0AD
:1024200099F808BD08B5024800F0E5FA08BD00BFFC
:10243000E00B002008B5202001F08CF808BD00005A
:1024400008B5024800F0D7FA08BD00BF080C00200C
:1024500000B583B0002200920D4B596C41F48041CD
:102460005964596C01F48041009100990192196CF2
:1024700041F0805119641B6C03F080530193019B60
:102480000F216FF0010001F055F903B05DF804FB76
:1024900000380240002800F0A18038B5044690F8CA
:1024A0002030D3B12268136823F00203136001F0D7
:1024B000E7F9054623685A6812F0020F10D001F0C0
:1024C000DFF9401B0A28F5D9636A43F400336362DD
:1024D000052384F82030012038BDFFF78DF9E1E7AE
:1024E0001A6842F001021A6001F0CAF90546236831
:1024F0005A6812F0010F0DD101F0C2F9401B0A28F1
:10250000F5D9636A43F400336362052384F820300D
:102510000120E1E7227E012A3DD01A6822F08002E4
:102520001A60637E012B3BD02268136823F04003BE
:102530001360A37E012B39D02268136823F0200397
:102540001360E37E012B37D02268136843F0100339
:102550001360237F012B35D02268136823F0080312
:102560001360637F012B33D02268136823F00403C8
:102570001360A368E268134322691343626913433B
:102580006268013A21681343CB6100206062012335
:1025900084F82030A0E71A6842F080021A60C0E791
:1025A0002268136843F040031360C2E7226813688F
:1025B00043F020031360C4E72268136823F010037C
:1025C0001360C6E72268136843F008031360C8E786
:1025D0002268136843F004031360CAE701207047C0
:1025E00090F82030013BDBB2012B05D9436A43F45C
:1025F000802343620120704730B5464BD3F8002258
:1026000042F00102C3F80022D3F8002222F47C52E7
:10261000C3F80022D3F80022486A42EA0022C3F835
:1026200000224A6902F01F02012000FA02F2D3F8E8
:102630001C026FEA020C20EA0200C3F81C02CB69FC
:10264000C3B9344BD3F80C020CEA0000C3F80C02F7
:102650008C884869CD6844EA0544483043F83040E6
:102660008C68088840EA04404C6904F1480E03EB8A
:10267000CE035860CB69012B1ED08B69002B33D160
:102680002448D0F804320CEA0303C0F804320B6982
:102690008BBB2048D0F814320CEA0303C0F8143284
:1026A0000B6A012B2ED01B4AD2F8003223F0010313
:1026B000C2F80032002030BD164BD3F80C02104394
:1026C000C3F80C028C8848690D6844EA0544483018
:1026D00043F8304088894C698D6840EA05404834A9
:1026E00003EBC4035860C8E70A48D0F80432134328
:1026F000C0F80432CBE70748D0F814321343C0F8CF
:102700001432CDE70349D1F81C321A43C1F81C2218
:10271000C9E700BF0064004070B5044690F820503F
:10272000EDB2012D06D0436A43F400234362012534
:10273000284670BD022380F820300268136823F019
:102740000103136001F09CF8064623685B6813F0F0
:10275000010F0CD001F094F8831B0A2BF5D9636AA2
:1027600043F400336362052384F82030E0E700255A
:102770006562DDE730B590F820C00468A4680CF10C
:10278000FF3C5FFA8CFCBCF1010F6BD814F0E05FEA
:1027900062D0C4F3016CBCF1020F05D9436A43F463
:1027A00000034362012062E0012404FA0CF41C607F
:1027B0008B68002B3DD10D68CB68046843EA455512
:1027C0000CF118031B01E55003680C690CF1180E9D
:1027D00003EB0E135C600B7D012B35D0D17993791F
:1027E0001B0443EA0163517943EA01231479016828
:1027F000234301EB0C11C1F88C31D17893781B0481
:1028000043EA0163517843EA0123117802680B43DC
:1028100002EB0C12C2F8883102680CF1180C4FEA76
:102820000C1C52F80C3043F0010342F80C3000202D
:102830001DE04C6843EAC403CC6823430CF1180440
:10284000240105682B51BFE7036803EB0E13596899
:1028500041F480715960C1E7436A43F40013436255
:10286000012004E0436A43F480234362012030BD29
:1028700090F820C00CF1FF3C5FFA8CFCBCF1010F1A
:1028800000F2958030B451B90468E46814F0030F85
:1028900010D1436A43F400134362012077E00468D7
:1028A000246914F0030F05D1436A43F40013436213
:1028B00001206CE001F11B04240105682C5904F08F
:1028C00004049460002C64D101F11B042401056808
:1028D0002C59640D1460046801F11B0C4FEA0C1CA8
:1028E00054F80C40C4F34004D46004686444646841
:1028F00004F00F041461046864446468C4F307249A
:102900009461046864446468240C5461026802EBB6
:102910000112D2F8B8211A70026802EB0112D2F843
:10292000B821C2F307225A70026802EB0112D2F8F2
:10293000B821C2F307429A70026802EB0112D2F882
:10294000B821120EDA70026802EB0112D2F8BC2133
:102950001A71026802EB0112D2F8BC21C2F30722FD
:102960005A71026802EB0112D2F8BC21C2F307428D
:102970009A71026802EB0112D2F8BC21120EDA71D0
:1029800079B90268D36843F02003D360002030BCDB
:10299000704701F11B04240105682C59E4085460B8
:1029A00099E70268136943F020031361EEE7436A75
:1029B00043F4802343620120704790F82030013BAC
:1029C000DBB2012B05D9436A43F480234362012023
:1029D000704702685369194351610020704770477E
:1029E000704770477047704770477047704770472F
:1029F0007047704770472DE9F84F054603685C69DA
:102A0000D3F804809F68D3F80CB0D3F810A0D3F8A3
:102A1000189014F001063BD017F0010616D00122E1
:102A20009A6017F0020F08D117F0040F0CD117F0BD
:102A3000080606D04FF4805608E0FFF7D0FF0026C6
:102A400004E0FFF7CFFF01E04FF4006617F4807F4A
:102A50000DD02B684FF480729A6017F4007F40F01D
:102A6000868017F4806F00F0868046F4005617F4D5
:102A7000803F0DD02B684FF480329A6017F4003FEE
:102A800040F0838017F4802F00F0838046F40046E6
:102A900014F0080F07D01BF0100F04D046F4007696
:102AA0002B681022DA6014F0040F02D01BF0080F1C
:102AB00079D114F0020F04D02B68DB6813F0030FF8
:102AC00078D114F0400F07D01AF0100F04D046F45C
:102AD00080662B6810221A6114F0200F02D01AF0C1
:102AE000080F6BD114F0100F04D02B681B6913F082
:102AF000030F6AD114F4003F02D018F0100F68D110
:102B000014F4803F02D018F0080F69D114F4004F7C
:102B10007AD018F0040F74D014F4807F04D019F028
:102B2000010F01D046F0010614F4007F04D019F023
:102B3000020F01D046F0020614F4806F04D019F0A1
:102B4000040F01D046F0040614F4006F59D019F0B8
:102B5000700956D0B9F1400F65D058D8B9F1200F9F
:102B60005ED0B9F1300F42D146F0200644E028464D
:102B7000FFF736FF7BE717F4006F02D046F480467C
:102B800075E72846FFF72FFF71E72846FFF729FF73
:102B90007EE717F4002F02D046F4803678E7284607
:102BA000FFF722FF74E72B680822DA602846FFF758
:102BB0001CFF7EE72846FEF7DDFE82E72B68082231
:102BC0001A612846FFF713FF8CE72846FFF70EFF30
:102BD00090E72B6810225A602846FFF709FF8FE71D
:102BE0002B6808225A602846FFF703FF8EE7B9F1E9
:102BF000100F01D146F008062A68936923F070038C
:102C000093612B6804225A609EB9BDE8F88FB9F130
:102C1000500F0BD0B9F1600FEED146F48076EBE7A0
:102C200046F01006E8E746F04006E5E746F0800685
:102C3000E2E76B6A1E436E622846FFF7DBFEE4E7BD
:102C4000002800F0BA8170B582B00446036813F022
:102C5000010F3BD09F4B9B6803F00C03042B2CD03F
:102C60009C4B9B6803F00C03082B21D06368B3F5E1
:102C7000803F4FD0B3F5A02F52D0964B1A6822F464
:102C800080321A601A6822F480221A606368002B6E
:102C900050D000F0F5FD05468E4B1B6813F4003F45
:102CA00014D100F0EDFD401B6428F5D903208BE121
:102CB000884B5B6813F4800FD8D0864B1B6813F4E5
:102CC000003F03D06368002B00F07981236813F084
:102CD000020F54D07F4B9B6813F00C0F3ED07D4BFE
:102CE0009B6803F00C03082B33D0E368002B68D0FB
:102CF000794B01221A6000F0C3FD0546754B1B6835
:102D000013F0020F54D100F0BBFD401B0228F5D98F
:102D1000032059E16F4A136843F480331360B5E729
:102D20006C4B1A6842F480221A601A6842F48032AE
:102D30001A60ABE700F0A4FD0546664B1B6813F470
:102D4000003FC3D000F09CFD401B6428F5D9032050
:102D50003AE1604B5B6813F4800FC6D15D4B1B6892
:102D600013F0020F03D0E368012B40F02A81594A87
:102D7000136823F0F803216943EAC1031360236851
:102D800013F0080F42D063696BB3534B0122C3F8B1
:102D9000802E00F075FD05464E4B5B6F13F0020F61
:102DA00034D100F06DFD401B0228F5D903200BE162
:102DB000484A136823F0F803216943EAC10313600A
:102DC000DDE7454B00221A6000F05AFD0546414BF5
:102DD0001B6813F0020FD2D000F052FD401B0228F6
:102DE000F5D90320F0E03C4B0022C3F8802E00F020
:102DF00047FD0546374B5B6F13F0020F06D000F01E
:102E00003FFD401B0228F5D90320DDE0236813F0C5
:102E1000040F77D02F4B1B6C13F0805F33D100234E
:102E200001932C4B1A6C42F080521A641B6C03F015
:102E300080530193019B0125284B1B6813F4807F6D
:102E400023D0A368012B34D0052B38D0214B1A6F27
:102E500022F001021A671A6F22F004021A67A368AF
:102E6000002B3DD000F00CFD06461A4B1B6F13F0F3
:102E7000020F46D100F004FD801B41F288339842D6
:102E8000F3D90320A0E00025D6E7144A136843F4E1
:102E90008073136000F0F4FC0646104B1B6813F4BB
:102EA000807FCED100F0ECFC801B0228F5D90320F6
:102EB0008AE0084A136F43F001031367CFE7054B1D
:102EC0001A6F42F004021A671A6F42F001021A6781
:102ED000C5E700BF003802400000474200700040D4
:102EE00000F0CEFC06463A4B1B6F13F0020F08D0E1
:102EF00000F0C6FC801B41F288339842F3D90320CE
:102F000062E0E5B9A369002B5DD0314A926802F016
:102F10000C02082A5AD0022B17D02E4B00221A6618
:102F200000F0AEFC04462A4B1B6813F0007F42D031
:102F300000F0A6FC001B0228F5D9032044E0244A37
:102F4000136C23F080531364DCE7224B00221A66D3
:102F500000F096FC05461E4B1B6813F0007F06D060
:102F600000F08EFC401B0228F5D903202CE0E36919
:102F7000226A1343626A43EA8213A26A5208013A40
:102F800043EA0243E26A43EA0263114A5360114B87
:102F900001221A6600F074FC04460D4B1B6813F006
:102FA000007F06D100F06CFC001B0228F5D903203D
:102FB0000AE0002008E0002006E001207047012020
:102FC00002E0012000E0002002B070BD0120FBE71C
:102FD000003802400000474208B5254B9B6803F0CB
:102FE0000C03042B3FD0082B3FD1214B5A6802F031
:102FF0003F025B6813F4800F12D01D4B5968C1F378
:1030000088111C480023A1FB0001FDF7E1F8184BD3
:103010005B68C3F3014301335B00B0FBF3F025E0D1
:10302000134B5968C1F3881C4FEA4C11B1EB0C00EB
:103030006EEB0E0E4FEA8E1343EA90638101091A7C
:1030400063EB0E03DB0043EA5173C90011EB0C0C78
:1030500043F10003990200234FEA8C2041EA9C517E
:10306000FDF7B6F8D3E7034800E0034808BD00BF0A
:1030700000380240001BB7000024F400002800F0D4
:103080009A8070B50D4604464F4B1B6803F00F0342
:103090008B4208D2CBB24C4A1370136803F00F0373
:1030A0008B4240F08A80236813F0020F17D013F090
:1030B000040F04D0454A936843F4E05393602368B7
:1030C00013F0080F04D0414A936843F460439360BF
:1030D0003E4A936823F0F003A1680B439360236892
:1030E00013F0010F32D06368012B21D09A1E012A00
:1030F00025D9364A126812F0020F60D033498A6827
:1031000022F0030213438B6000F0BAFB06462F4BFC
:103110009B6803F00C036268B3EB820F16D000F0DB
:10312000AFFB801B41F288339842F0D9032041E085
:10313000264A126812F4003FE0D101203AE0234A07
:10314000126812F0007FD9D1012033E01E4B1B68BA
:1031500003F00F03AB4207D9EAB21B4B1A701B688E
:1031600003F00F03AB422CD1236813F0040F06D0F9
:10317000164A936823F4E053E1680B439360236895
:1031800013F0080F07D0114A936823F460432169B4
:1031900043EAC1039360FFF71FFF0C4B9B68C3F327
:1031A00003130B4AD35CD8400A4B18600F2000F081
:1031B0001BFB002070BD012070470120FAE70120B1
:1031C000F8E70120F6E700BF003C0240003802406B
:1031D0006863000828000020014B1868704700BF92
:1031E0002800002008B5FFF7F7FF044B9B68C3F3E6
:1031F0008223034AD35CD84008BD00BF0038024098
:103200007863000808B5FFF7E7FF044B9B68C3F33A
:103210004233034AD35CD84008BD00BF00380240A7
:103220007863000830B583B00446036813F0050FD7
:1032300006D1236813F0020F2ED1002003B030BD59
:103240004A4B00229A6600F01BFB0546484B1B6860
:1032500013F0006F06D000F013FB431B022BF5D9CF
:103260000320EBE76268A3681B0743EA8213404A26
:10327000C2F884303D4B01229A6600F001FB0546FE
:103280003B4B1B6813F0006FD3D100F0F9FA431BDE
:10329000022BF5D90320D1E700230193344B1A6C9C
:1032A00042F080521A641B6C03F080530193019B1F
:1032B000304A136843F48073136000F0E1FA054666
:1032C0002C4B1B6813F4807F06D100F0D9FA431B06
:1032D000022BF5D90320B1E7254B1B6F13F4407384
:1032E00014D0E26802F440729A420FD0204B1A6F59
:1032F00022F440721D490120C1F8400E0020C1F89F
:10330000400E1A671B6F13F0010F13D1E36803F42B
:103310004072B2F5407F1ED0154A936823F4F8132B
:10332000936013490B6FE268C2F30B0213430B6700
:10333000002083E700F0A4FA05460D4B1B6F13F045
:10334000020FE3D100F09CFA401B41F2883398420F
:10335000F3D9032072E706498A6822F4F81223F0B1
:10336000704323F4407313438B60DAE70000474255
:10337000003802400070004000230F2B00F2D8807C
:10338000F0B583B03AE0072200E00022AA403243C1
:103390000234684D45F82420674A14686FEA0C022D
:1033A00024EA0C054E6816F4803F01D04CEA04056F
:1033B000614C2560646802EA04054E6816F4003F1B
:1033C00001D04CEA04055C4C6560A46802EA04057F
:1033D0004E6816F4801F01D04CEA0405564CA560D7
:1033E000E46822404D6815F4001F01D04CEA040245
:1033F000514CE26001330F2B00F2988001229A4079
:103400000C6804EA020C32EA0404F3D14C68022C82
:1034100001D0122C10D1DD08083550F8257003F0CA
:103420000704A6000F24B44027EA040E0C69B44038
:1034300044EA0E0440F8254006684FEA430E032490
:1034400004FA0EF4E54326EA04064C6804F003048B
:1034500004FA0EF4344304604C68661E012E03D94E
:10346000112C01D0122C0FD186682E40CC6804FAA2
:103470000EF434438460446824EA02024C68C4F3C6
:1034800000149C4014434460C26815408A6802FAE4
:103490000EF22A43C2604A6812F0805FAAD000226E
:1034A0000192264A546C44F480445464526C02F4F1
:1034B00080420192019A9C08A51C1E4A52F8256080
:1034C00003F0030295000F22AA4026EA02061C4AD6
:1034D00090423FF45AAF02F5806290421AD002F552
:1034E0008062904218D002F58062904216D002F5B8
:1034F0008062904214D002F58062904212D002F5B0
:103500008062904210D002F5806290423FF43BAF5F
:1035100008223BE7012239E7022237E7032235E799
:10352000042233E7052231E706222FE703B0F0BD7E
:10353000704700BF00380140003C014000380240A5
:10354000000002400AB1816170470904816170473F
:103550007047000008B5054B5B69034200D108BD08
:10356000024B5861FFF7F4FFF9E700BF003C014050
:1035700010B40368D9B210390C4AA2FB01421209F7
:103580000B4CA25CC2655F2909D923F47F7323F039
:10359000030304338365806D5DF8044B704723F4A7
:1035A0007F7323F003038365F5E700BFABAAAAAAE4
:1035B00060630008836A826992B9012B0AD0022BEA
:1035C00002D00BB100207047C36A13F0807F28D16E
:1035D00000207047C36AB3F1C07F24D00020704739
:1035E000B2F5005F09D0022B25D9032B25D1C36A80
:1035F00013F0807F23D100207047032B03D8DFE82E
:1036000003F01404140A00207047C36A13F0807F8B
:103610000DD100207047C36AB3F1C07F09D00020EC
:10362000704701207047012070470120704701203A
:10363000704701207047012070470020704701202B
:103640007047000070B5044600F01AF9002C5BD0FA
:103650000546002384F83430022384F8353022688C
:10366000136823F00103136023681A6812F0010F36
:103670000AD000F005F9431B052BF5D9202363651B
:10368000032084F8350070BD1A6820481040616836
:10369000A2680A43E1680A4321690A4361690A434F
:1036A000A1690A43E1690A43216A0A430243616A44
:1036B00004291ED01A602668756925F00705636A1B
:1036C0001D43042B07D1A36A1D43E36A1BB12046A7
:1036D000FFF770FF90B975612046FFF749FFE26D73
:1036E0003F239340836000206065012384F83530D8
:1036F000C9E7E16A206B01430A43DBE740236365C6
:10370000012084F83500BEE70120BCE73F8010F0BF
:10371000074AD36823F4E0631B041B0C000200F487
:10372000E060034343F0BF6343F40033D36070476A
:1037300000ED00E000B5194BDB68C3F30223C3F1D1
:10374000070CBCF1040F28BF4FF0040C03F1040E6A
:10375000BEF1060F18D9033B4FF0FF3E0EFA0CFCEA
:1037600021EA0C0199400EFA03F322EA03031943FC
:1037700000280BDB0901C9B200F1604000F561408F
:1037800080F800135DF804FB0023E5E700F00F006C
:103790000901C9B2024B1954F4E700BF00ED00E083
:1037A00014ED00E0002807DB00F01F0240090123B0
:1037B0009340024A42F82030704700BF00E100E029
:1037C0000138B0F1807F0BD24FF0E0235861054AF9
:1037D000F02182F823100020986107221A617047B7
:1037E0000120704700ED00E010B504460E4B18783C
:1037F0004FF47A73B3FBF0F30C4A1068B0FBF3F0AC
:10380000FFF7DEFF68B90F2C01D901200AE0002282
:1038100021464FF0FF30FFF78DFF054B1C60002065
:1038200000E0012010BD00BF200000202800002083
:103830002400002008B50B4B1A6842F400721A608D
:103840001A6842F480621A601A6842F480721A6040
:103850000320FFF75DFF0F20FFF7C6FFFEF7F8FD1F
:10386000002008BD003C0240034A1168034B1B784E
:103870000B441360704700BFE80F002020000020B9
:10388000014B1868704700BFE80F0020002800F0C7
:10389000C28070B5044690F83D30002B6DD02423D3
:1038A00084F83D302268136823F001031360FFF7AA
:1038B00099FC62685A4B9A4264D85A4B98428CBF22
:1038C00000230123002B40F0A8805749A1FB0031C1
:1038D0008B0C25686A6822F03F0242EA91426A60D6
:1038E00021680A6A22F03F0266684D4DAE424FD809
:1038F000013313430B622168CA6922F44F4222F05C
:10390000FF026668464B9E424CD8431E7600B3FBCE
:10391000F6F3013340F6FC70034278D0C3F30B0397
:103920001343CB6121680B6823F0C003E269206A6E
:10393000024313430B6021688B6823F4034323F095
:10394000FF032269E068024313438B602168CB6860
:1039500023F0FF036269A06902431343CB6022682E
:10396000136843F00103136000202064202384F8CF
:103970003D30206384F83E0070BD80F83C30FEF797
:10398000C7F88CE7294B98428CBF0023012399E7A5
:103990004FF4967505FB03F3254DA5FB03539B09D7
:1039A0000133A6E7A368BBB9451E06EB460CB5FB81
:1039B000FCF50135C5F30B05B5FA85F56D0945BB79
:1039C000C3B9013806EB4603B0FBF3F30133C3F38D
:1039D0000B0343F40043A3E7451E06EB860C0CEBF8
:1039E0008C0CB5FBFCF50135C5F30B05B5FA85F577
:1039F0006D09E4E7013806EB860303EB8303B0FBB4
:103A0000F3F30133C3F30B0343F4404388E7042388
:103A100086E7012384E7012070470120ACE700BF5F
:103A2000A08601007F841E0083DE1B43FF083D004B
:103A3000D34D621038B504460268D36823F0A00362
:103A4000D360FFF71DFF05462368DB6813F0200FE6
:103A500007D1FFF715FF401BB0F57A7FF4D903209B
:103A600000E0002038BD38B50368DA6812F0400F76
:103A700001D0002038BD04464FF0FF32DA60FFF776
:103A8000FFFE05462368DB6813F0400F07D1FFF700
:103A9000F7FE431BB3F57A7FF4D90320EAE7002051
:103AA000E8E738B500285CD00446437F002B41D0BE
:103AB000022363772368CA225A62236853225A6218
:103AC0002046FFF7D0FF0546002837D122689368CB
:103AD00023F4E00323F04003936021688A6863685D
:103AE000206903436069034313438B602368E268E2
:103AF0001A6122681369A16843EA014313612268CD
:103B0000D36823F08003D36023689B6813F0200FF1
:103B10001BD02268136C23F4802313642268136C77
:103B2000A1690B4313642368FF225A620123637760
:103B3000284638BD0377FEF75FF8B9E72368FF2210
:103B40005A62042363770125F2E72046FFF772FFEC
:103B50000028DED02368FF225A6204236377012500
:103B6000E6E70125E4E700283BD010B50446002332
:103B7000836290F85130002B2ED0022384F851300C
:103B80002268136823F0400313606368A26813433C
:103B9000E26813432269134362691343A26902F482
:103BA00000721343E2691343226A1343A16A226835
:103BB0000B431360638B03F00403616A22680B43B9
:103BC00053602268D36923F40063D36100206065E9
:103BD000012384F8513010BD80F85030FEF73EF8D4
:103BE000CBE701207047000030B4036A23F00103E3
:103BF0000362036A4268846924F073040D682C43ED
:103C000023F0020C8B6843EA0C03104DA84203D04A
:103C100005F58065A84205D123F00803CD682B4344
:103C200023F00403094DA84203D005F58065A8429E
:103C300005D122F440724D692A438D692A434260BE
:103C400084614A684263036230BC704700000140EF
:103C500030B4036A23F480730362036A4268C46960
:103C600024F0730C0C6844EA0C0523F400738C6890
:103C700043EA0423114CA04203D004F58064A0421F
:103C800006D123F40063CC6843EA042323F4806361
:103C90000A4CA04203D004F58064A04207D122F46C
:103CA00040524C6942EA04128C6942EA04124260B2
:103CB000C5614A68C263036230BC704700000140BE
:103CC00030B4036A23F480530362036A4468C26910
:103CD00022F4E6420D6842EA052223F400538D687F
:103CE00043EA0533094DA84203D005F58065A84293
:103CF00004D124F480444D6944EA85144460C261CF
:103D00004A680264036230BC704700BF0000014093
:103D100010B4036A046A24F001040462846924F084
:103D2000F00C4CEA021223F00A030B438261036297
:103D30005DF8044B704710B4046A24F01004046268
:103D40008469036A24F4704C4CEA023223F0A00325
:103D500043EA0113826103625DF8044B7047836894
:103D600023F070030B4343F0070383607047022383
:103D700080F83D300268936803F00703062B03D0F8
:103D8000136843F001031360012380F83D300020E5
:103D9000704770470368304A904212D0B0F1804FAC
:103DA0000FD0A2F57C4290420BD002F58062904287
:103DB00007D002F58062904203D002F5784290422B
:103DC00003D123F070034A681343234A90422AD058
:103DD000B0F1804F27D0A2F57C42904223D002F56B
:103DE000806290421FD002F5806290421BD002F5A3
:103DF0007842904217D002F57052904213D002F5EB
:103E0000806290420FD002F5806290420BD0A2F502
:103E10009832904207D002F58062904203D002F5BA
:103E20008062904203D123F44073CA68134323F0A5
:103E300080034A69134303608B68C3620B68836223
:103E4000054B984203D003F58063984201D10B697A
:103E5000036301234361704700000140B0B110B516
:103E6000044690F83D3063B1022384F83D3021468A
:103E700051F8040BFFF78EFF012384F83D3000203A
:103E800010BD80F83C30FDF7B9FFEDE70120704729
:103E9000B0B110B5044690F83D3063B1022384F808
:103EA0003D30214651F8040BFFF774FF012384F8DD
:103EB0003D30002010BD80F83C30FFF76AFFEDE791
:103EC0000120704730B4036A23F010030362036AD1
:103ED0004468826922F4E6420D6842EA052223F032
:103EE00020038D6843EA0513114DA84203D005F560
:103EF0008065A84206D123F08003CD6843EA05130C
:103F000023F040030A4DA84203D005F58065A8427E
:103F100007D124F440644D6944EA85048D6944EA7C
:103F20008504446082614A688263036230BC7047E2
:103F30000000014038B590F83C30012B66D00446B3
:103F40000D46012380F83C30022380F83D300C2AD6
:103F50001AD8DFE802F007191919201919193419AC
:103F6000191947000068FFF73FFE2268936943F084
:103F7000080393612268936923F004039361226824
:103F8000936929690B439361012384F83D30002034
:103F900084F83C0038BD0068FFF794FF22689369FD
:103FA00043F4006393612268936923F4806393610F
:103FB00022689369296943EA01239361E4E7006871
:103FC000FFF746FE2268D36943F00803D3612268F5
:103FD000D36923F00403D3612268D36929690B43B1
:103FE000D361D1E70068FFF76BFE2268D36943F421
:103FF0000063D3612268D36923F48063D3612268AC
:10400000D369296943EA0123D361BDE70220C1E7EF
:1040100010B4846824F47F4C42EA03220A4342EA43
:104020000C0282605DF8044B704790F83C30012B25
:1040300066D010B50446012380F83C30022380F896
:104040003D300268936823F47F4323F07703936045
:104050000B68602B40D022D8402B47D00BD9502B77
:104060000ED1CA6849680068FFF752FE50212068E7
:10407000FFF775FE04E0202B0CD008D9302B09D0B7
:10408000012384F83D30002084F83C0010BD0BB1C2
:10409000102BF5D119462068FFF761FEF0E7702B71
:1040A0000ED0B3F5005FEBD1CB684A688968006831
:1040B000FFF7AEFF2268936843F480439360DFE725
:1040C000CB684A6889680068FFF7A2FF2268936896
:1040D00043F077039360D3E7CA6849680068FFF745
:1040E0002AFE60212068FFF73AFEC9E7CA684968DE
:1040F0000068FFF70DFE40212068FFF730FEBFE7A4
:104100000220704701F01F01012303FA01FC036A3A
:1041100023EA0C030362036A02FA01F10B43036210
:104120007047000010B5044601220068FFF7EAFF5F
:1041300023680B4A934203D002F58062934203D175
:104140005A6C42F400425A642268936803F00703F1
:10415000062B03D0136843F001031360002010BD49
:104160000000014090F83C30012B1DD030B54FF0DD
:10417000010E80F83CE0022380F83D30026854686C
:10418000936824F070040D682C4323F0800C4B6876
:1041900043EA0C0354600268936080F83DE000231A
:1041A00080F83C30184630BD022070472DE9F843B6
:1041B00004460268136923F44053C1680B4313613A
:1041C00083680269134342691343C2691A43016851
:1041D000CB6823F4164323F00C031343CB6002682F
:1041E000536923F4407381690B435361C369B3F589
:1041F000004F5ED00368B54A934200F0108102F58B
:104200008062934200F00B81FEF7ECFF00EB800030
:1042100000EB80006568AD00B0FBF5F5AC4FA7FB87
:1042200005356D092E01FEF7DDFF00EB800000EB88
:1042300080006568AD00B0FBF5F5FEF7D3FF00EB3D
:10424000800000EB800063689B00B0FBF3F3A7FBEA
:1042500003235B094FF0640808FB13531B0132333F
:10426000A7FB03235B0903F0F003F518FEF7BAFF81
:1042700000EB800000EB80006668B600B0FBF6F64D
:10428000FEF7B0FF00EB800000EB800063689B004E
:10429000B0FBF3F0A7FB0030400908FB1060000101
:1042A0003230A7FB0037C7F3431723682F449F60C2
:1042B00009E10368854A93425AD002F5806293422D
:1042C00056D0FEF78FFF00EB800000EB80006568A2
:1042D0006D00B0FBF5F57E4FA7FB05356D094FEA84
:1042E0000519FEF77FFF00EB800000EB8000666899
:1042F0007600B0FBF6F6FEF775FF00EB800000EBF2
:10430000800065686D00B0FBF5F5A7FB05356D090C
:104310004FF0640808FB1565ED003235A7FB053545
:104320006D096D0005F4F8754D44FEF75BFF00EB79
:10433000800000EB800066687600B0FBF6F6FEF7C2
:1043400051FF00EB800000EB800063685B00B0FB76
:10435000F3F3A7FB03235B0908FB1363DB00323392
:10436000A7FB0337C7F3421723682F449F60AAE0D7
:10437000FEF748FF00EB800000EB800065686D00F1
:10438000B0FBF5F5524FA7FB05356D094FEA05194E
:10439000FEF738FF00EB800000EB800066687600D7
:1043A000B0FBF6F6FEF72EFF00EB800000EB80007E
:1043B00065686D00B0FBF5F5A7FB05356D094FF09D
:1043C000640808FB1565ED003235A7FB05356D095E
:1043D0006D0005F4F8754D44FEF714FF00EB800006
:1043E00000EB800066687600B0FBF6F6FEF70AFF89
:1043F00000EB800000EB800063685B00B0FBF3F330
:10440000A7FB03235B0908FB1363DB003233A7FB25
:104410000337C7F3421723682F449F6053E0FEF72A
:10442000F1FE00EB800000EB80006568AD00B0FBA2
:10443000F5F5274FA7FB05356D092E01FEF7E2FEC6
:1044400000EB800000EB80006568AD00B0FBF5F587
:10445000FEF7D8FE00EB800000EB800063689B0055
:10446000B0FBF3F3A7FB03235B094FF0640808FBE1
:1044700013531B013233A7FB03235B0903F0F00343
:10448000F518FEF7BFFE00EB800000EB80006668C9
:10449000B600B0FBF6F6FEF7B5FE00EB800000EBD1
:1044A000800063689B00B0FBF3F0A7FB003040097D
:1044B00008FB106000013230A7FB0037C7F3431739
:1044C00023682F449F60BDE8F88300BF00100140BF
:1044D0001F85EB5158B310B5044690F839300BB333
:1044E000242384F839302268D36823F40053D3603E
:1044F0002046FFF75BFE2268136923F490431361A3
:104500002268536923F02A0353612268D36843F475
:104510000053D3600020E063202384F8393084F80E
:104520003A3010BD80F83830FDF7FAFED8E70120A8
:10453000704700000F49D1F8883043F47003C1F888
:1045400088300D4B1A6842F001021A600020986012
:104550001A6822F0847222F480321A60074A5A6084
:104560001A6822F480221A60D8604FF000638B60D2
:10457000704700BF00ED00E000380240103000241A
:1045800000F1080343604FF0FF328260C3600361B3
:1045900000230360704700230361704743684B604A
:1045A0009A688A605160996008610368013303600A
:1045B000704730B40D68B5F1FF3F11D000F108032A
:1045C0001C465B681A68AA42FAD963684B60996016
:1045D0008C606160086103680133036030BC704720
:1045E0000469F2E70369416882688A604168516042
:1045F0005A68824206D0002202611A68013A1A60A3
:104600001868704782685A60F5E710B5044601F0F3
:1046100059FCA26BE36B9A4204D0002401F074FCB5
:10462000204610BD0124F9E710B5044601F04AFC0C
:10463000A36B23B9012401F067FC204610BD0024C0
:10464000F9E770B504461546866B026C5AB90368E3
:104650001BB100200136A66370BD406801F000F870
:1046600000236360F6E76DB9806801F0CDFD226C30
:10467000A3681344A3606268934219D32368A360BC
:104680002846E7E7C06801F0BFFD226C5142E368AD
:104690009B1AE3602268934202D263680B44E36092
:1046A000022D01D00020D5E726B1013E0020D1E740
:1046B0002846CFE70020CDE70346026C6AB110B56B
:1046C0000846D9681144D9605C68A14201D31968D1
:1046D000D960D96801F098FD10BD704738B505461E
:1046E00001F0F0FB95F8454064B201E0013C64B292
:1046F000002C0ADD6B6A43B105F1240000F0ECFEEA
:104700000028F3D000F08AFFF0E7FF2385F845305A
:1047100001F0FAFB01F0D6FB95F8444064B201E0E9
:10472000013C64B2002C0ADD2B6943B105F1100095
:1047300000F0D2FE0028F3D000F070FFF0E7FF2376
:1047400085F8443001F0E0FB38BD38B5E0B10D46E6
:10475000044601F0B7FB2368E26B216C01FB0230D9
:1047600060600020A063A360013A02FB0133E360B4
:10477000FF2384F8443084F84530FDB9236963B9D8
:1047800001F0C2FB012038BD4FF0500383F31188C4
:10479000BFF36F8FBFF34F8FFEE704F1100000F0FF
:1047A0009BFE0028ECD04FF0E0234FF08052C3F87E
:1047B000042DBFF34F8FBFF36F8FE1E704F11000BB
:1047C000FFF7DEFE04F12400FFF7DAFED8E710B5AC
:1047D000034602980C4631B90060C36304640121AA
:1047E000FFF7B3FF10BD0260F7E740B94FF0500389
:1047F00083F31188BFF36F8FBFF34F8FFEE710B5C0
:1048000084B01C46844653B192B189B94FF050032D
:1048100083F31188BFF36F8FBFF34F8FFEE74FF025
:10482000500383F31188BFF36F8FBFF34F8FFEE701
:104830006AB148230393039B482B13D04FF05003D6
:1048400083F31188BFF36F8FBFF34F8FFEE700290B
:10485000EFD04FF0500383F31188BFF36F8FBFF396
:104860004F8FFEE7012384F8463000949DF81830FE
:104870006046FFF7ACFF204604B010BDF0B585B030
:10488000019288B10F461D460446B1B1022D20D1D8
:10489000E36B012B1DD04FF0500383F31188BFF35E
:1048A0006F8FBFF34F8FFEE74FF0500383F31188F4
:1048B000BFF36F8FBFF34F8FFEE7036C002BE5D084
:1048C0004FF0500383F31188BFF36F8FBFF34F8F07
:1048D000FEE700F0B5FE064658B9019B002B48D014
:1048E0004FF0500383F31188BFF36F8FBFF34F8FE7
:1048F000FEE700263DE02A4639462046FFF7A1FEA6
:10490000636A7BB948B14FF0E0234FF08052C3F89F
:10491000042DBFF34F8FBFF36F8F01F0F5FA012025
:1049200005B0F0BD04F1240000F0D6FD0028F4D05D
:104930004FF0E0234FF08052C3F8042DBFF34F8FA8
:10494000BFF36F8FE9E701F0DFFA0020E8E702A884
:1049500000F008FE012619E0002384F8443021E02D
:10496000002384F8453023E02046FFF7B7FE00F02F
:1049700091FC01F0A7FAA26BE36B9A42BBD3022D24
:10498000B9D0019B002BDED0002EE0D001F0BCFAA4
:1049900000F0E6FB01F096FA94F8442052B2B2F12E
:1049A000FF3FD9D094F8452052B2B2F1FF3FD7D0A3
:1049B00001F0AAFA01A902A800F0E0FDD8B920464A
:1049C000FFF723FE0028CFD0019904F1100000F07A
:1049D0004FFD2046FFF782FE00F05CFC0028C8D1A6
:1049E0004FF0E0234FF08052C3F8042DBFF34F8FF8
:1049F000BFF36F8FBDE72046FFF770FE00F04AFC63
:104A000000208DE72DE9F84390B10F4616461C466D
:104A10000546B1B1022C20D1EB6B012B1DD04FF01C
:104A2000500383F31188BFF36F8FBFF34F8FFEE7FF
:104A30004FF0500383F31188BFF36F8FBFF34F8F95
:104A4000FEE7036C002BE5D04FF0500383F3118891
:104A5000BFF36F8FBFF34F8FFEE701F059FBEFF30A
:104A600011894FF0500383F31188BFF36F8FBFF3A9
:104A70004F8FAA6BEB6B9A4206D3022C04D0002016
:104A800089F31188BDE8F88395F845804FFA88F8D6
:104A9000224639462846FFF7D4FDB8F1FF3F06D03D
:104AA00008F101035BB285F845300120E8E76B6A45
:104AB0000BB90120E4E705F1240000F00DFD18B169
:104AC00026B101203060DBE70120D9E70120D7E7DC
:104AD000F0B585B0019290B10F460446C1B100F027
:104AE000AFFD064600BB019B002B5ED04FF050038C
:104AF00083F31188BFF36F8FBFF34F8FFEE74FF043
:104B0000500383F31188BFF36F8FBFF34F8FFEE71E
:104B1000036C002BE3D04FF0500383F31188BFF3F5
:104B20006F8FBFF34F8FFEE700263EE039462046E9
:104B3000FFF7C2FD013DA563236923B901F0E4F944
:104B4000012005B0F0BD04F1100000F0C5FC002804
:104B5000F4D04FF0E0234FF08052C3F8042DBFF3A0
:104B60004F8FBFF36F8FE9E701F0CEF90020E8E740
:104B700002A800F0F7FC012621E0002384F844306D
:104B800029E0002384F845302BE02046FFF7A6FDFE
:104B900000F080FB09E02046FFF7A0FD00F07AFB63
:104BA0002046FFF741FD00283FD101F08BF9A56BAE
:104BB000002DBBD1019B002BD6D0002ED8D001F008
:104BC000A3F900F0CDFA01F07DF994F844305BB21E
:104BD000B3F1FF3FD1D094F845305BB2B3F1FF3F62
:104BE000CFD001F091F901A902A800F0C7FC00287C
:104BF000D1D12046FFF718FD0028C6D0019904F155
:104C0000240000F035FC2046FFF768FD00F042FB71
:104C10000028CAD14FF0E0234FF08052C3F8042D92
:104C2000BFF34F8FBFF36F8FBFE7002089E700000E
:104C30000023072B0CD8074A52F833200AB101335E
:104C4000F7E7044A42F8331002EBC3035860704799
:104C5000704700BFEC0F002070B504460D461646A5
:104C600001F030F994F844305BB2B3F1FF3F0DD05E
:104C700094F845305BB2B3F1FF3F0BD001F044F93B
:104C8000A36B5BB12046FFF729FD70BD002384F8BC
:104C90004430EDE7002384F84530EFE732462946FB
:104CA00004F1240000F0FCFBECE7002301E00130FC
:104CB00001330278A52AFAD0C3F38F0070470000B1
:104CC000084B1B681B6823B9074B4FF0FF321A6073
:104CD0007047044B1B68DB68DB685A68024B1A603C
:104CE000704700BF30100020081100202DE9F04768
:104CF00080460D4617469946089EDDF824A00A9C7A
:104D00009200A521206B01F08DFA236B07F1804200
:104D1000013A03EB820727F007074FF0000CBCF1C4
:104D20000F0F0BD815F80C2004EB0C0383F834207C
:104D300015F80C3013B10CF1010CF0E7002384F8E6
:104D40004330062E00D90626E66266640025A56477
:104D5000201DFFF720FC04F11800FFF71CFC246164
:104D6000C6F10706A6616462E56484F8505084F8D1
:104D700052504A464146384601F07CF82060BAF16C
:104D8000000F01D0CAF80040BDE8F08738B5002414
:104D900007E004EB840293000E481844FFF7F0FB91
:104DA0000134062CF5D90C4D2846FFF7E9FB0B4CD6
:104DB0002046FFF7E5FB0A48FFF7E2FB0948FFF74B
:104DC000DFFB0948FFF7DCFB084B1D60084B1C604C
:104DD00038BD00BF38100020DC100020F01000208B
:104DE000101100203C11002028110020301000205C
:104DF0003410002010B5044601F064F8214A13680D
:104E000001331360204B1B685BB1204B1B686BB9EF
:104E10001D4B1B68DA6AE36A9A4207D81A4B1C607A
:104E200004E0194B1C601368012B28D0184A136842
:104E300001331360E06A01238340164A11680B4373
:104E4000136000EB8000211D134B03EB8000FFF784
:104E5000A5FB01F059F80D4B1B687BB10A4B1B6891
:104E6000DA6AE36A9A4209D24FF0E0234FF08052A7
:104E7000C3F8042DBFF34F8FBFF36F8F10BDFFF743
:104E800085FFD3E7C41000202C100020241100203F
:104E9000D4100020D81000203810002010B504468F
:104EA00090F8513063B1012B11D0022B0ED04FF08E
:104EB000500383F31188BFF36F8FBFF34F8FFEE76B
:104EC000006B00F061FF204600F05EFF10BD00F0B7
:104ED0005BFFFBE70F4B1B68D3B110B500F0F2FF8F
:104EE0000D4BDB68DC68201DFFF77CFB0B4A136869
:104EF000013B1360074A1368013B136001F004F89B
:104F00002046FFF7CBFF034B1B68002BE6D110BDFB
:104F1000704700BFC81000203C110020C4100020C2
:104F200008B5FFF7D7FF074B1B68012BF9D94FF0E6
:104F3000E0234FF08052C3F8042DBFF34F8FBFF32F
:104F40006F8FEEE73810002070B504460D461F4BFA
:104F50001E681F4B1A68002182F85210186804302E
:104F6000FFF740FB50B91A4B1B68DA6A012303FABA
:104F700002F218490B6823EA02030B60B4F1FF3F09
:104F80000DD03444124B1B685C60A64210D9124B02
:104F900018680F4B19680431FFF70BFB70BD002D2B
:104FA000EFD00B4B196804310C48FFF7F7FAF5E71F
:104FB0000B4B1868064B19680431FFF7FAFA094BD6
:104FC0001B68A342EAD9074B1C60E7E75011002099
:104FD0002C100020D81000203410002028110020B0
:104FE000301000200811002030B587B00B9C7CB138
:104FF0000C9DB5B154250495049D542D1AD04FF045
:10500000500383F31188BFF36F8FBFF34F8FFEE719
:105010004FF0500383F31188BFF36F8FBFF34F8FAF
:10502000FEE74FF0500383F31188BFF36F8FBFF398
:105030004F8FFEE70C9D2C63022485F8514000241D
:105040000394029505AC01940A9C0094FFF74EFE70
:105050000C98FFF7CFFE059807B030BD2DE9F0435F
:1050600085B00746884614461E46900000F014FEA0
:1050700000B38146542000F00FFE0546B0B1C0F8E1
:105080003090E5B1002385F85130039302950D9BD4
:1050900001930C9B00933346224641463846FFF766
:1050A00025FE2846FFF7A6FE012005E0484600F051
:1050B0006BFEE6E74FF0FF3005B0BDE8F0834FF040
:1050C000FF30F9E710B588B000240594069407AACC
:1050D00006A905A8FCF7F6FA059B0293069B019327
:1050E00000942346079A18491848FFF77DFF184B8C
:1050F000186040B100F07AFB012806D0B0F1FF3F04
:1051000018D008B010BD0020F6E74FF0500383F32D
:105110001188BFF36F8FBFF34F8F0E4B4FF0FF32ED
:105120001A600D4B01221A600C4B00221A6000F02D
:1051300063FFE6E74FF0500383F31188BFF36F8FEF
:10514000BFF34F8FFEE700BF80630008214F0008C8
:10515000041100200811002024110020501100200B
:10516000024A136801331360704700BFD01000205B
:10517000014B1868704700BF50110020F8B53A4B3A
:105180001B68002B64D1394B1D6801351D60C5B902
:10519000374B1B681B6843B14FF0500383F31188F2
:1051A000BFF36F8FBFF34F8FFEE7314A1168314B6A
:1051B000186810601960304A136801331360FFF7F4
:1051C0007FFD2E4B1B68AB4238D900272C4B1B6848
:1051D000DB6A03EB83039A002A4B9B58012B3CD9D3
:1051E00001273AE00127224B1B681B6843B3204B81
:1051F0001B68DB68DC6863689D4226D3261D304649
:10520000FFF7F0F9A36A1BB104F11800FFF7EAF900
:10521000E36A01229A401C49086802430A6003EBD2
:1052200083039A00314617481044FFF7B7F9E26A42
:10523000134B1B68DB6A9A42D4D2D4E70027D2E72B
:105240000E4B4FF0FF321A60C0E70C4A1360BDE707
:105250000E4A13680133136000270D4B1B6803B11E
:1052600001273846F8BD00BFD010002050110020A3
:1052700030100020341000200C11002008110020F4
:105280002C10002038100020D8100020CC10002056
:105290005411002038B5354B1B6843B94FF050030B
:1052A00083F31188BFF36F8FBFF34F8FFEE700F0DA
:1052B00009FE2E4B1A68013A1A601B68002B4FD169
:1052C0002B4B1B680BB900244BE00024294B1B68B7
:1052D0001BB3284BDB68DC6804F11800FFF782F988
:1052E000251D2846FFF77EF9E06A01238340224A04
:1052F00011680B43136000EB800029461F4B03EB42
:105300008000FFF74BF9E26A1D4B1B68DB6A9A428B
:10531000DCD31C4B01221A60D8E70CB1FFF7D0FC9C
:10532000194B1C6884B9174B1C68D4B14FF0E023AB
:105330004FF08052C3F8042DBFF34F8FBFF36F8F30
:1053400001240EE0013C07D0FFF718FF0028F9D038
:105350000C4B01221A60F5E70B4B00221A60E2E7C2
:10536000002400F0D1FD204638BD00BFD010002041
:10537000C410002010110020D81000203810002088
:105380002C10002054110020CC10002010B5A8B122
:105390000446104B1B6843B14FF0500383F3118850
:1053A000BFF36F8FBFF34F8FFEE7FFF7D9FE0021EA
:1053B0002046FFF7C9FDFFF76DFF48B94FF0E02326
:1053C0004FF08052C3F8042DBFF34F8FBFF36F8FA0
:1053D00010BD00BFD0100020204B1B681BB1204B1C
:1053E00001221A6070471E4B00221A601D4B1B6879
:1053F000B3FA83F3DBB2C3F11F0303EB83018A002B
:1054000019498A5842B94FF0500383F31188BFF30A
:105410006F8FBFF34F8FFEE7134903EB83008200CA
:105420000A4450684068506003EB830C4FEA8C02DA
:1054300008321144884209D003EB83039A000A4BD7
:1054400013445B68DA68094B1A607047406862462B
:105450009100054A0A445060EEE700BFD0100020DA
:1054600054110020D8100020381000202C100020EB
:1054700058B110B50C46094A11681831FFF799F870
:1054800001212046FFF760FD10BD4FF0500383F36C
:105490001188BFF36F8FBFF34F8FFEE72C100020F2
:1054A00038B570B10D4614460A4A11681831FFF735
:1054B00075F80CB14FF0FF3521462846FFF744FD43
:1054C00038BD4FF0500383F31188BFF36F8FBFF3E4
:1054D0004F8FFEE72C10002038B5C368DC6824B37A
:1054E00004F118052846FFF77DF8184B1B682BBB05
:1054F000251D2846FFF776F8E06A01238340144A09
:1055000011680B43136000EB80002946114B03EB3D
:105510008000FFF743F8E26A0F4B1B68DB6A9A4290
:1055200011D901200D4B186038BD4FF0500383F3A3
:105530001188BFF36F8FBFF34F8FFEE729460848EE
:10554000FFF72CF8E7E70020EEE700BFD0100020BF
:10555000D8100020381000202C10002054110020FA
:1055600010110020034B1B680360034B1B68436052
:10557000704700BF0C11002050110020F8B5B8B1E1
:105580000C460546E9B100F09DFC214B1A686B689A
:10559000D01A2049096891F85210D9B11D4B1B68E7
:1055A000002283F85220012400F0AEFC2046F8BD12
:1055B0004FF0500383F31188BFF36F8FBFF34F8F0A
:1055C000FEE74FF0500383F31188BFF36F8FBFF3F3
:1055D0004F8FFEE72168B1F1FF3F14D00E4E3668C1
:1055E0002F68B74201D093420FD9814203D80023DC
:1055F00023600124D8E79B1A0B4423602846FFF759
:10560000B1FF0024D0E70024CEE70124CCE700BF9F
:10561000501100202C1000200C110020014B012201
:105620001A6070475411002008B5034618B1186B72
:10563000FFF73BFB08BD014B1B68F8E72C1000206F
:10564000054B1B6833B1054B1B680BB1002070473D
:10565000022070470120704724110020D010002044
:1056600000284CD038B50446274B1B68834208D02D
:105670004FF0500383F31188BFF36F8FBFF34F8F49
:10568000FEE7836C43B94FF0500383F31188BFF3F7
:105690006F8FBFF34F8FFEE7013B8364C16A426C9B
:1056A00091422ED00BB1002038BD051D2846FEF7D3
:1056B00099FF70B9E26A02EB82039B001349CB5851
:1056C0003BB9012303FA02F211490B6823EA0203F2
:1056D0000B60606CE062C0F10703A361012404FA6F
:1056E00000F30B4A11680B43136000EB800029465E
:1056F000064B03EB8000FEF751FF2046D4E7002065
:1057000070470020D0E700BF2C1000203810002088
:10571000D8100020064B1A681368B3FA83F35B09AC
:10572000036013B9D368186870470020704700BF42
:105730005811002008B54160006191420CD8D21A7E
:1057400083699A4201D3012008BD011D094B1868E5
:10575000FEF72FFF0020F7E79A4201D2994206D2C6
:10576000011D054B1868FEF724FF0020ECE701201F
:10577000EAE700BF5C1100205811002030B583B06B
:1057800000F0A0FB114B1B681BB100F0BDFB03B088
:1057900030BD0F4D2846FEF7F3FE0E4C2046FEF7B7
:1057A000EFFE0D4B1D600D4B1C60002300930C4B56
:1057B0000C4A10210A20FFF718F8044B1860002843
:1057C000E3D00949FFF734FADFE700BF7412002085
:1057D0000012002014120020581100205C1100203B
:1057E0002C120020601100208863000810B588B0DA
:1057F000FFF7C4FF124B1B68CBB10024059406943D
:1058000007AA06A905A8FBF769FF059B0293069B5B
:105810000193022300932346079A0A490A48FFF797
:10582000E3FB0A4B186010B1012008B010BD4FF027
:10583000500383F31188BFF36F8FBFF34F8FFEE7E1
:1058400074120020906300082D5B0008781200207D
:10585000B8B19C4603461848006858B300B585B0F7
:1058600000910192029305291CDCFFF7E9FE022852
:1058700010D000231A4669460F480068FEF7FEFF65
:1058800015E04FF0500383F31188BFF36F8FBFF320
:105890004F8FFEE70023069A694607480068FEF727
:1058A000EDFF04E0002362466946FFF7ABF805B060
:1058B0005DF804FB002070477412002070B582B0C0
:1058C0001A4B1B681A6852B3DB681E68DC68251D1A
:1058D0002846FEF787FE636A20469847E369012B56
:1058E000EED1A36933449E4207D263602461294606
:1058F0000E4B1868FEF75DFEE2E7002100910B46B3
:1059000032462046FFF7A4FF0028D9D14FF05003BC
:1059100083F31188BFF36F8FBFF34F8FFEE7044A05
:10592000106802490860136002B070BD5811002071
:105930005C11002038B50546FFF71AFC0446074BFA
:105940001B68834205D800232B60044B1C60204653
:1059500038BDFFF7B3FF01232B60F6E728120020C4
:1059600070B582B006460D4614490968C968CC680E
:10597000201DFEF737FEE169012904D0636A204645
:10598000984702B070BDA16933462A46314420468B
:10599000FFF7D0FE0028F1D0002100910B463246DF
:1059A0002046FFF755FF0028E8D14FF0500383F35E
:1059B0001188BFF36F8FBFF34F8FFEE758110020A0
:1059C00070B582B006460C46FFF7CAFB01A8FFF788
:1059D000B1FF019B2BBB05460CB9B0421AD22CB1CA
:1059E000124B1B681C68B4FA84F464092246711BCC
:1059F0000F4B1868FFF730F9FFF74CFC98B94FF0E0
:105A0000E0234FF08052C3F8042DBFF34F8FBFF354
:105A10006F8F08E0FFF73EFC29463046FFF7A0FFF6
:105A200001E0FFF737FC02B070BD00BF5C11002041
:105A30007412002010B588B002E0049B002B0FDA2E
:105A4000002204A9384B1868FFF742F8002869D0F3
:105A5000049B002BF1DA07990698059B9847ECE721
:105A6000069C636913B1201DFEF7BCFD03A8FFF778
:105A700061FF049B092BE3D801A252F823F000BF79
:105A8000A95A0008A95A0008A95A0008415A000852
:105A9000EF5A0008155B0008A95A0008A95A000827
:105AA000415A0008EF5A0008059BA16902461944B3
:105AB0002046FFF73FFE0028C2D0636A2046984781
:105AC000E369012BBCD1A269002100910B46059826
:105AD00002442046FFF7BCFE0028B1D14FF050032E
