:020000040800F2
:10000000000002207D2800084D0800084F08000865
:1000100051080008530800085508000800000000B7
:100020000000000000000000000000005708000869
:1000300059080008000000005B0800085D0800087F
:10004000CD280008CD280008CD280008CD280008BC
:10005000CD280008CD280008CD280008CD280008AC
:10006000CD280008CD280008CD280008CD2800089C
:10007000CD280008CD280008CD280008CD2800088C
:10008000CD280008CD280008CD280008CD2800087C
:1000900065080008CD280008CD280008CD280008F4
:1000A000CD280008CD280008CD280008CD2800085C
:1000B000CD280008CD280008CD280008CD2800084C
:1000C000CD280008CD280008CD280008CD2800083C
:1000D000CD28000875080008CD280008CD280008A4
:1000E000CD280008CD280008CD280008CD2800081C
:1000F000CD280008CD280008CD280008CD2800080C
:10010000CD280008CD280008CD280008CD280008FB
:10011000CD280008CD280008CD280008CD280008EB
:10012000CD280008CD280008CD280008CD280008DB
:10013000CD280008CD280008CD280008CD280008CB
:10014000CD280008CD280008CD280008CD280008BB
:10015000CD280008CD28000885080008CD28000813
:10016000CD280008CD280008CD280008CD2800089B
:10017000CD280008CD280008CD2800080000000088
:08018000CD280008CD2800087D
:1001900010B5054C237833B9044B13B10448AFF3C1
:1001A00000800123237010BD7000002000000000BB
:1001B0002032000808B5034B1BB103490348AFF3D5
:1001C000008008BD000000007400002020320008FC
:1001D00001F0FF01102A2BDB10F0070F08D010F8F8
:1001E000013B013A8B422DD010F0070F42B3F6D1FC
:1001F000F0B441EA012141EA014122F007047FF015
:1002000000070023F0E80256083C85EA010586EA6B
:10021000010685FA47F5A3FA87F586FA47F6A5FAA7
:1002200087F68EB9EED1F0BC01F0FF0102F00702B3
:1002300032B110F8013B013A83EA010313B1F8D15E
:100240000020704701387047002D06BF354603383F
:10025000073815F0010F07D1013015F4807F02BF78
:10026000013015F4C03F0130F0BC0138704700BFC9
:1002700053B94AB9002908BF00281CBF4FF0FF310D
:100280004FF0FF3000F074B9ADF1080C6DE904CE09
:1002900000F006F8DDF804E0DDE9022304B0704761
:1002A0002DE9F047089D04468E46002B4DD18A4229
:1002B000944669D9B2FA82F252B101FA02F3C2F15C
:1002C000200120FA01F10CFA02FC41EA030E9440ED
:1002D0004FEA1C48210CBEFBF8F61FFA8CF708FB0E
:1002E00016E341EA034306FB07F199420AD91CEBE6
:1002F000030306F1FF3080F01F81994240F21C8118
:10030000023E63445B1AA4B2B3FBF8F008FB10335F
:1003100044EA034400FB07F7A7420AD91CEB040494
:1003200000F1FF3380F00A81A74240F20781644464
:10033000023840EA0640E41B00261DB1D4400023E9
:10034000C5E900433146BDE8F0878B4209D9002D4D
:1003500000F0EF800026C5E9000130463146BDE8D7
:10036000F087B3FA83F6002E4AD18B4202D3824241
:1003700000F2F980841A61EB030301209E46002DF0
:10038000E0D0C5E9004EDDE702B9FFDEB2FA82F245
:10039000002A40F09280A1EB0C014FEA1C471FFAA3
:1003A0008CFE0126200CB1FBF7F307FB131140EA8A
:1003B00001410EFB03F0884208D91CEB010103F157
:1003C000FF3802D2884200F2CB804346091AA4B219
:1003D000B1FBF7F007FB101144EA01440EFB00FEED
:1003E000A64508D91CEB040400F1FF3102D2A64552
:1003F00000F2BB800846A4EB0E0440EA03409CE7F1
:10040000C6F12007B34022FA07FC4CEA030C20FA9D
:1004100007F401FA06F31C43F9404FEA1C4900FABD
:1004200006F3B1FBF9F8200C1FFA8CFE09FB18113A
:1004300040EA014108FB0EF0884202FA06F20BD9AD
:100440001CEB010108F1FF3A80F08880884240F2FD
:100450008580A8F102086144091AA4B2B1FBF9F041
:1004600009FB101144EA014100FB0EFE8E4508D93C
:100470001CEB010100F1FF346CD28E456AD90238C1
:10048000614440EA0840A0FB0294A1EB0E01A142A6
:10049000C846A64656D353D05DB1B3EB080261EB14
:1004A0000E0101FA07F722FA06F3F1401F43C5E9EE
:1004B000007100263146BDE8F087C2F12003D84024
:1004C0000CFA02FC21FA03F3914001434FEA1C4766
:1004D0001FFA8CFEB3FBF7F007FB10360B0C43EA58
:1004E000064300FB0EF69E4204FA02F408D91CEB08
:1004F000030300F1FF382FD29E422DD90238634406
:100500009B1B89B2B3FBF7F607FB163341EA0341A5
:1005100006FB0EF38B4208D91CEB010106F1FF38F4
:1005200016D28B4214D9023E6144C91A46EA0046EB
:1005300038E72E46284605E70646E3E61846F8E67D
:100540004B45A9D2B9EB020864EB0C0E0138A3E7C6
:100550004646EAE7204694E74046D1E7D0467BE7A7
:10056000023B614432E7304609E76444023842E71F
:10057000704700BF10B58AB001220892002306938D
:100580000792009301930293039305930493074CFE
:100590006946204601F0FCF9204601F095FA022157
:1005A000204601F0E2FB0AB010BD00BF04020020AB
:1005B00000B58BB001AB03AA002101F031FB039B16
:1005C000A3F20122062A2DD8013BDBB2174A137091
:1005D000174903EB83004200881831F902C0A0F8E4
:1005E00008C09DF804E09DF805C04CEA0E2C21F8E7
:1005F00002C09DF80620120212B29DF807C042EA1E
:100600000C0242809DF80820120212B29DF809C027
:1006100042EA0C0282809DF80A0003EB83035A0031
:100620008B1898710BB05DF804FB00BFAC00002084
:10063000B000002010B582B08E4694460F494FF4AA
:1006400000720A6000228A60CA6008220A610C4AAD
:100650000412147050704FEA2E20907082F803E05C
:100660004FEA2C20107182F805C018129071D371D6
:1006700001AB044801F056FA02B010BD940000200E
:100680008C000020040200200FB410B502AA52F81A
:10069000041B084B1A60084C204602F05BF982B23A
:1006A000064B1A802146064801F078FEBDE810404E
:1006B00004B07047F800002000010020FC0000207A
:1006C0008C02002072B6FEE700B595B03022002102
:1006D00008A802F021F900230393049305930693DD
:1006E000079301931F4A116C41F080511164126C01
:1006F00002F080520192019A02931B4A116841F460
:1007000080411160126802F480420292029A022231
:10071000089201210B9110210C910E920F93082346
:100720001093A823119312920423139308A800F0A6
:10073000CDF898B90F230393022304930023059364
:100740004FF4A05306934FF480530793052103A859
:1007500000F00AFB20B915B05DF804FBFFF7B2FF0B
:10076000FFF7B0FF003802400070004008B500F00D
:10077000C1FFFFF7A9FF00F01FF801F039FC01F0FD
:1007800003F801F04FFCFFF7F5FE00231A46194667
:10079000C820FFF74FFF0649B1F90430B1F9022034
:1007A00009880448FFF770FFC82000F0CFFFECE78E
:1007B000B00000203832000830B58BB0002405941A
:1007C000069407940894099401941E4B1A6B42F006
:1007D00001021A631A6B02F001020192019A02945B
:1007E0001A6B42F002021A631A6B02F002020292C2
:1007F000029A03941A6B42F008021A631A6B02F011
:1008000008020392039A04941A6B42F080021A635E
:100810001B6B03F080030493049B0B4D22464FF4A3
:10082000E051284600F068FC4FF4E05305930123A3
:1008300006930794089405A9284600F06BFB0BB0BB
:1008400030BD00BF00380240001C0240FEE7FEE75A
:10085000FEE7FEE7FEE770477047704708B500F017
:1008600063FF08BD08B5024801F09DFA08BD00BF4E
:100870000402002008B5024801F0C0FE08BD00BF18
:100880008C02002008B5024800F0B4FD08BD00BF8E
:100890002C02002082B0002100910B4B5A6C42F4D4
:1008A00080425A645A6C02F480420092009A01918C
:1008B0001A6C42F080521A641B6C03F0805301934F
:1008C000019B02B0704700BF00380240002800F0D2
:1008D000E08170B582B00446036813F0010F3BD08D
:1008E0009F4B9B6803F00C03042B2CD09C4B9B6804
:1008F00003F00C03082B21D06368B3F5803F4FD081
:10090000B3F5A02F52D0964B1A6822F480321A60A9
:100910001A6822F480221A606368002B50D000F01D
:100920000FFF05468E4B1B6813F4003F14D100F0F7
:1009300007FF401B6428F5D90320B1E1884B5B68B1
:1009400013F4800FD8D0864B1B6813F4003F03D0FC
:100950006368002B00F09F81236813F0020F54D0CE
:100960007F4B9B6813F00C0F3ED07D4B9B6803F0D0
:100970000C03082B33D0E368002B68D0794B01229D
:100980001A6000F0DDFE0546754B1B6813F0020F80
:1009900054D100F0D5FE401B0228F5D903207FE199
:1009A0006F4A136843F480331360B5E76C4B1A68E1
:1009B00042F480221A601A6842F480321A60ABE76F
:1009C00000F0BEFE0546664B1B6813F4003FC3D023
:1009D00000F0B6FE401B6428F5D9032060E1604BAF
:1009E0005B6813F4800FC6D15D4B1B6813F0020FD8
:1009F00003D0E368012B40F05081594A136823F07B
:100A0000F803216943EAC1031360236813F0080F58
:100A100042D063696BB3534B0122C3F8802E00F0C0
:100A20008FFE05464E4B5B6F13F0020F34D100F082
:100A300087FE401B0228F5D9032031E1484A13689C
:100A400023F0F803216943EAC1031360DDE7454B56
:100A500000221A6000F074FE0546414B1B6813F03B
:100A6000020FD2D000F06CFE401B0228F5D9032003
:100A700016E13C4B0022C3F8802E00F061FE0546D3
:100A8000374B5B6F13F0020F06D000F059FE401B8E
:100A90000228F5D9032003E1236813F0040F77D06F
:100AA0002F4B1B6C13F0805F33D1002301932C4B31
:100AB0001A6C42F080521A641B6C03F0805301934D
:100AC000019B0125284B1B6813F4807F23D0A3686A
:100AD000012B34D0052B38D0214B1A6F22F00102A4
:100AE0001A671A6F22F004021A67A368002B3DD020
:100AF00000F026FE06461A4B1B6F13F0020F46D17C
:100B000000F01EFE801B41F288339842F3D9032087
:100B1000C6E00025D6E7144A136843F480731360D7
:100B200000F00EFE0646104B1B6813F4807FCED1FA
:100B300000F006FE801B0228F5D90320B0E0084A29
:100B4000136F43F001031367CFE7054B1A6F42F0B1
:100B500004021A671A6F42F001021A67C5E700BF64
:100B600000380240000047420070004000F0E8FDFD
:100B70000646524B1B6F13F0020F08D000F0E0FD49
:100B8000801B41F288339842F3D9032088E0EDB905
:100B9000A369002B00F08380484A926802F00C029F
:100BA000082A51D0022B17D0454B00221A6600F0BC
:100BB000C7FD0446414B1B6813F0007F42D000F094
:100BC000BFFD001B0228F5D9032069E03B4A136CE6
:100BD00023F080531364DBE7394B00221A6600F0E0
:100BE000AFFD0546354B1B6813F0007F06D000F0C3
:100BF000A7FD401B0228F5D9032051E0E369226AD2
:100C00001343626A43EA8213A26A5208013A43EA32
:100C10000243E26A43EA0263284A5360284B0122F6
:100C20001A6600F08DFD0446244B1B6813F0007F0C
:100C300006D100F085FD001B0228F5D903202FE026
:100C400000202DE000202BE0012B2BD01B4B5B68FC
:100C500003F48001E269914226D103F03F02216A48
:100C60008A4223D1616A47F6C0721A40B2EB811FF3
:100C70001ED103F44031A26A5208013AB1EB024F8F
:100C800018D103F07063E26AB3EB026F14D1002055
:100C900006E001207047012002E0012000E0002072
:100CA00002B070BD0120FBE70120F9E70120F7E762
:100CB0000120F5E70120F3E70120F1E700380240C9
:100CC0000000474208B5254B9B6803F00C03042B3A
:100CD0003FD0082B3FD1214B5A6802F03F025B689E
:100CE00013F4800F12D01D4B5968C1F388111C48B2
:100CF0000023A1FB0001FFF7BBFA184B5B68C3F3AD
:100D0000014301335B00B0FBF3F025E0134B59685E
:100D1000C1F3881C4FEA4C11B1EB0C006EEB0E0EC8
:100D20004FEA8E1343EA90638101091A63EB0E03C5
:100D3000DB0043EA5173C90011EB0C0C43F10003D3
:100D4000990200234FEA8C2041EA9C51FFF790FA68
:100D5000D3E7034800E0034808BD00BF0038024065
:100D6000001BB7000024F400002800F09B8070B541
:100D70000D4604464F4B1B6803F007038B4208D215
:100D8000CBB24C4A1370136803F007038B4240F058
:100D90008B80236813F0020F17D013F0040F04D0D8
:100DA000454A936843F4E0539360236813F0080FB7
:100DB00004D0414A936843F4604393603E4A936889
:100DC00023F0F003A1680B439360236813F0010F35
:100DD00032D06368012B21D09A1E012A25D9364AC8
:100DE000126812F0020F61D033498A6822F00302C0
:100DF00013438B6000F0A4FC06462F4B9B6803F066
:100E00000C036268B3EB820F16D000F099FC801BD4
:100E100041F288339842F0D9032042E0264A126812
:100E200012F4003FE0D101203BE0234A126812F0A7
:100E3000007FD9D1012034E01E4B1B6803F007036B
:100E4000AB4207D9EAB21B4B1A701B6803F00703C9
:100E5000AB422DD1236813F0040F06D0164A9368D5
:100E600023F4E053E1680B439360236813F0080F09
:100E700007D0114A936823F46043216943EAC10310
:100E80009360FFF71FFF0C4B9B68C3F303130B4AE0
:100E9000D35CD8400A4B18600A4B186800F004FC79
:100EA000002070BD012070470120FAE70120F8E71B
:100EB0000120F6E7003C024000380240683200089A
:100EC0000800002004000020014B1868704700BF94
:100ED0000800002008B5FFF7F7FF044B9B68C3F339
:100EE0008223034AD35CD84008BD00BF00380240CB
:100EF0007832000808B5FFF7E7FF044B9B68C3F39F
:100F00004233034AD35CD84008BD00BF00380240DA
:100F10007832000800230F2B00F2E48070B582B015
:100F200060E085685E000324B44025EA0405CC68CF
:100F3000B4402C438460456825EA02054C68C4F33C
:100F400000129A402A4342605AE0DC08083450F804
:100F5000246003F0070295000F22AA4026EA020E41
:100F60000A69AA4042EA0E0240F824205CE0072207
:100F700000E0002202FA0EF22A4302345A4D45F8EC
:100F800024205A4A94686FEA0C0224EA0C054E6841
:100F900016F4801F01D04CEA0405544CA560E468A7
:100FA00002EA04054E6816F4001F01D04CEA04055D
:100FB0004E4CE560646802EA04054E6816F4003F92
:100FC00001D04CEA0405494C6560246822404D6814
:100FD00015F4803F01D04CEA0402444C22600133F6
:100FE0000F2B7DD801229A400C6804EA020C32EAE9
:100FF0000404F4D14C6804F00304013C012C90D9A2
:101000004A6802F00302032A09D0C4685D00032283
:10101000AA4024EA02048A68AA402243C2604A68BD
:1010200002F00302022A90D004684FEA430E032222
:1010300002FA0EF224EA02044A6802F0030202FAFB
:101040000EF2224302604A6812F4403FC7D00022E9
:101050000192274A546C44F480445464526C02F464
:1010600080420192019A9C08A51C1F4A52F8255003
:1010700003F003024FEA820E0F2202FA0EF225EA73
:1010800002051C4A90423FF474AF02F58062904220
:101090001AD002F58062904218D002F58062904228
:1010A00016D002F58062904214D002F58062904220
:1010B00012D002F58062904210D002F58062904218
:1010C0003FF455AF082255E7012253E7022251E7CA
:1010D00003224FE704224DE705224BE7062249E7AA
:1010E00002B070BD704700BF00380140003C0140B5
:1010F00000380240000002400AB1816170470904D3
:101100008161704730B405682C6824F480242C6019
:10111000046863608368402B05D0036899600368A6
:10112000DA6030BC704703689A600368D960F8E7FA
:1011300010B40368D9B210390C4AA2FB014212095B
:101140000B4CA25CC2655F2909D923F47F7323F09D
:10115000030304338365806D5DF8044B704723F40B
:101160007F7323F003038365F5E700BFABAAAAAA48
:1011700060320008836A826992B9012B0AD0022B7F
:1011800002D00BB100207047C36A13F0807F28D1D2
:1011900000207047C36AB3F1C07F24D0002070479D
:1011A000B2F5005F09D0022B25D9032B25D1C36AE4
:1011B00013F0807F23D100207047032B03D8DFE892
:1011C00003F01404140A00207047C36A13F0807FF0
:1011D0000DD100207047C36AB3F1C07F09D0002051
:1011E000704701207047012070470120704701209F
:1011F0007047012070470120704700207047012090
:101200007047000070B5044600F09AFA002C5BD0DD
:101210000546022384F83530002384F834302268F0
:10122000136823F00103136023681A6812F0010F9A
:101230000AD000F085FA431B052BF5D920236365FE
:10124000032084F8350070BD1A682048104061689A
:10125000A2680A43E1680A4321690A4361690A43B3
:10126000A1690A43E1690A43216A0A430243616AA8
:1012700004291ED01A602668756925F00705636A7F
:101280001D43042B07D1A36A1D43E36A1BB120460B
:10129000FFF770FF90B975612046FFF749FFE26DD7
:1012A0003F239340836000206065012384F835303C
:1012B000C9E7E16A206B01430A43DBE7402363652A
:1012C000012084F83500BEE70120BCE73F8010F024
:1012D00038B50446856D90F8340001282BD00120E4
:1012E00084F8340094F83500C0B2012804D00023FB
:1012F00084F83430022038BD022084F83500002004
:1013000060652046FFF7FEFEE26D3F239340AB6031
:101310002268136843F016031360236C23B122681C
:10132000136843F0080313602268136843F0010355
:1013300013600020DFE70220DDE770B50446866D0C
:1013400000F0FEF994F83530DBB2022B06D0802392
:101350006365002384F83430012070BD054622689F
:10136000136823F0160313602268536923F0800387
:101370005361236CE3B12268136823F00803136000
:101380002268136823F00103136023681B6813F0BD
:10139000010F11D000F0D4F9431B052BF5D9202300
:1013A0006365032084F83500002384F83430D4E7E3
:1013B000A36C002BDFD1E3E7E26D3F239340B360E2
:1013C000012384F83530002084F83400C5E790F814
:1013D0003530DBB2022B03D08023436501207047F8
:1013E000052380F835300268136823F00103136089
:1013F00000207047F0B583B0044600230193724B80
:101400001D68724BA3FB0535AD0A876D3E68C26D42
:1014100008239340334210D003681A6812F0040F77
:101420000BD01A6822F004021A60C26D08239340A0
:10143000BB60436D43F001034365E26D01239340BC
:10144000334209D02268526912F0800F04D0BB6089
:10145000636D43F002036365E26D042393403342FE
:1014600009D02268126812F0020F04D0BB60636DCD
:1014700043F004036365E26D10239340334224D0AC
:101480002268126812F0080F1FD0BB6023681A6828
:1014900012F4802F0DD01B6813F4002F04D1236C9D
:1014A0009BB12046984710E0A36C73B12046984743
:1014B0000BE01A6812F4807F03D11A6822F0080248
:1014C0001A60236C0BB120469847E26D20239340AD
:1014D000334255D02268126812F0100F50D0BB6012
:1014E00094F83530DBB2052B0ED023681A6812F45D
:1014F000802F33D01B6813F4002F2AD1636C002B8C
:101500003ED0204698473BE02268136823F016033C
:1015100013602268536923F080035361236CA3B1E5
:101520002268136823F008031360E26D3F239340A1
:10153000BB60012384F83530002384F83430236DF8
:10154000002B3FD0204698473CE0A36C002BE7D10E
:10155000EBE7E36BA3B12046984711E01A6812F459
:10156000807F09D11A6822F010021A60012384F8E2
:101570003530002384F83430E36B0BB120469847B4
:10158000636DFBB1636D13F0010F17D0052384F871
:1015900035302268136823F001031360019B013387
:1015A0000193AB4204D823681B6813F0010FF5D1F7
:1015B000012384F83530002384F83430E36C0BB118
:1015C0002046984703B0F0BD08000020B5814E1BAF
:1015D000074AD36823F4E0631B041B0C000200F4E9
:1015E000E060034343F0BF6343F40033D3607047CC
:1015F00000ED00E000B5194BDB68C3F30223C3F133
:10160000070CBCF1040F28BF4FF0040C03F1040ECB
:10161000BEF1060F18D9033B4FF0FF3E0EFA0CFC4B
:1016200021EA0C0199400EFA03F322EA030319435D
:1016300000280BDB0901C9B200F1604000F56140F0
:1016400080F800135DF804FB0023E5E700F00F00CD
:101650000901C9B2024B1954F4E700BF00ED00E0E4
:1016600014ED00E0002807DB00F01F024009012311
:101670009340024A42F82030704700BF00E100E08A
:101680000138B0F1807F0BD24FF0E0235861054A5A
:10169000F02182F823100020986107221A61704718
:1016A0000120704700ED00E010B504460E4B18789D
:1016B0004FF47A73B3FBF0F30C4A1068B0FBF3F00D
:1016C000FFF7DEFF68B90F2C01D901200AE00022E4
:1016D00021464FF0FF30FFF78DFF054B1C600020C7
:1016E00000E0012010BD00BF000000200800002025
:1016F0000400002008B50B4B1A6842F400721A600F
:101700001A6842F480621A601A6842F480721A60A1
:101710000320FFF75DFF0F20FFF7C6FFFFF7BAF8C2
:10172000002008BD003C0240034A1168034B1B78AF
:101730000B441360704700BF00020020000000202F
:10174000014B1868704700BF0002002038B50446FE
:10175000FFF7F6FF0546B4F1FF3F02D0044B1B78BC
:101760001C44FFF7EDFF401BA042FAD338BD00BF79
:1017700000000020034AD2F8883043F47003C2F816
:101780008830704700ED00E008B50D480D4B036050
:101790000323436000238360C3604FF4102202617F
:1017A0004FF400124261037643768376C376037763
:1017B000437700F047F800B908BDFEF783FFFBE769
:1017C000040200200064004010B588B00023039399
:1017D00004930593069307930268184B9A4201D02D
:1017E00008B010BD0024019403F5EA331A6C42F0EE
:1017F00000721A641A6C02F000720192019A02944B
:101800001A6B42F008021A631B6B03F00803029381
:10181000029B032303930222049206930923079356
:1018200003A90748FFF776FB224621461420FFF75D
:10183000E1FE1420FFF716FFD2E700BF006400406E
:10184000000C0240002800F0A18038B5044690F852
:101850002030D3B12268136843F001031360FFF70F
:101860006FFF054623685A6812F0010F10D1FFF789
:1018700067FF401B0A28F5D9636A43F400336362AB
:10188000052384F82030012038BDFFF79DFFE1E7F4
:101890001A6822F002021A60FFF752FF0546236819
:1018A0005A6812F0020F0DD0FFF74AFF401B0A28BA
:1018B000F5D9636A43F400336362052384F820306A
:1018C0000120E1E7227E012A3DD01A6822F0800241
:1018D0001A60637E012B3BD02268136823F040031B
:1018E0001360A37E012B39D02268136823F02003F4
:1018F0001360E37E012B37D02268136843F0100396
:101900001360237F012B35D02268136823F008036E
:101910001360637F012B33D02268136823F0040324
:101920001360A368E2681343226913436269134397
:101930006268013A21681343CB6100206062012391
:1019400084F82030A0E71A6842F080021A60C0E7ED
:101950002268136843F040031360C2E722681368EB
:1019600043F020031360C4E72268136823F01003D8
:101970001360C6E72268136843F008031360C8E7E2
:101980002268136843F004031360CAE7012070471C
:1019900090F82030013BDBB2012B05D9436A43F4B8
:1019A000802343620120704730B5464BD3F80022B4
:1019B00042F00102C3F80022D3F8002222F47C5244
:1019C000C3F80022D3F80022486A42EA0022C3F892
:1019D00000224A6902F01F02012000FA02F2D3F845
:1019E0001C026FEA020C20EA0200C3F81C02CB6959
:1019F000C3B9344BD3F80C020CEA0000C3F80C0254
:101A00008C884869CD6844EA0544483043F8304042
:101A10008C68088840EA04404C6904F1480E03EBE6
:101A2000CE035860CB69012B1ED08B69002B33D1BC
:101A30002448D0F804320CEA0303C0F804320B69DE
:101A40008BBB2048D0F814320CEA0303C0F81432E0
:101A50000B6A012B2ED01B4AD2F8003223F001036F
:101A6000C2F80032002030BD164BD3F80C021043F0
:101A7000C3F80C028C8848690D6844EA0544483074
:101A800043F8304088894C698D6840EA0540483405
:101A900003EBC4035860C8E70A48D0F80432134384
:101AA000C0F80432CBE70748D0F814321343C0F82B
:101AB0001432CDE70349D1F81C321A43C1F81C2275
:101AC000C9E700BF0064004070B5044690F820509C
:101AD000EDB2012D06D0436A43F400234362012591
:101AE000284670BD022380F820300268136823F076
:101AF00001031360FFF724FE064623685B6813F0BA
:101B0000010F0CD0FFF71CFE831B0A2BF5D9636A6B
:101B100043F400336362052384F82030E0E70025B6
:101B20006562DDE730B590F820C00468A4680CF168
:101B3000FF3C5FFA8CFCBCF1010F6BD814F0E05F46
:101B400062D0C4F3016CBCF1020F05D9436A43F4BF
:101B500000034362012062E0012404FA0CF41C60DB
:101B60008B68002B3DD10D68CB68046843EA45556E
:101B70000CF118031B01E55003680C690CF1180EF9
:101B800003EB0E135C600B7D012B35D0D17993797B
:101B90001B0443EA0163517943EA01231479016884
:101BA000234301EB0C11C1F88C31D17893781B04DD
:101BB00043EA0163517843EA0123117802680B4339
:101BC00002EB0C12C2F8883102680CF1180C4FEAD3
:101BD0000C1C52F80C3043F0010342F80C3000208A
:101BE0001DE04C6843EAC403CC6823430CF118049D
:101BF000240105682B51BFE7036803EB0E135968F6
:101C000041F480715960C1E7436A43F400134362B1
:101C1000012004E0436A43F480234362012030BD85
:101C200090F820C00CF1FF3C5FFA8CFCBCF1010F76
:101C300000F2958030B451B90468E46814F0030FE1
:101C400010D1436A43F400134362012077E0046833
:101C5000246914F0030F05D1436A43F4001343626F
:101C600001206CE001F11B04240105682C5904F0EB
:101C700004049460002C64D101F11B042401056864
:101C80002C59640D1460046801F11B0C4FEA0C1C04
:101C900054F80C4004F00204D4600468644464689E
:101CA00004F00F041461046864446468C4F30724F6
:101CB0009461046864446468240C5461026802EB13
:101CC0000112D2F8B8211A70026802EB0112D2F8A0
:101CD000B821C2F307225A70026802EB0112D2F84F
:101CE000B821C2F307429A70026802EB0112D2F8DF
:101CF000B821120EDA70026802EB0112D2F8BC2190
:101D00001A71026802EB0112D2F8BC21C2F3072259
:101D10005A71026802EB0112D2F8BC21C2F30742E9
:101D20009A71026802EB0112D2F8BC21120EDA712C
:101D300079B90268D36843F02003D360002030BC37
:101D4000704701F11B04240105682C59E408546014
:101D500099E70268136943F020031361EEE7436AD1
:101D600043F4802343620120704790F82030013B08
:101D7000DBB2012B05D9436A43F48023436201207F
:101D800070470268536919435161002070477047DA
:101D9000704770477047704770477047704770478B
:101DA0007047704770472DE9F84F054603685C6936
:101DB000D3F804809F68D3F80CB0D3F810A0D3F800
:101DC000189014F001063BD017F0010616D001223E
:101DD0009A6017F0020F08D117F0040F0CD117F01A
:101DE000080606D04FF4805608E0FFF7D0FF002623
:101DF00004E0FFF7CFFF01E04FF4006617F4807FA7
:101E00000DD02B684FF480729A6017F4007F40F079
:101E1000868017F4806F00F0868046F4005617F431
:101E2000803F0DD02B684FF480329A6017F4003F4A
:101E300040F0838017F4802F00F0838046F4004642
:101E400014F0080F07D01BF0100F04D046F40076F2
:101E50002B681022DA6014F0040F02D01BF0080F78
:101E600079D114F0020F04D02B68DB6813F0030F54
:101E700078D114F0400F07D01AF0100F04D046F4B8
:101E800080662B6810221A6114F0200F02D01AF01D
:101E9000080F6BD114F0100F04D02B681B6913F0DE
:101EA000030F6AD114F4003F02D018F0100F68D16C
:101EB00014F4803F02D018F0080F69D114F4004FD9
:101EC0007AD018F0040F74D014F4807F04D019F085
:101ED000010F01D046F0010614F4007F04D019F080
:101EE000020F01D046F0020614F4806F04D019F0FE
:101EF000040F01D046F0040614F4006F59D019F015
:101F0000700956D0B9F1400F65D058D8B9F1200FFB
:101F10005ED0B9F1300F42D146F0200644E02846A9
:101F2000FFF736FF7BE717F4006F02D046F48046D8
:101F300075E72846FFF72FFF71E72846FFF729FFCF
:101F40007EE717F4002F02D046F4803678E7284663
:101F5000FFF722FF74E72B680822DA602846FFF7B4
:101F60001CFF7EE72846FEF723FB82E72B6808224A
:101F70001A612846FFF713FF8CE72846FFF70EFF8C
:101F800090E72B6810225A602846FFF709FF8FE779
:101F90002B6808225A602846FFF703FF8EE7B9F145
:101FA000100F01D146F008062A68936923F07003E8
:101FB00093612B6804225A609EB9BDE8F88FB9F18D
:101FC000500F0BD0B9F1600FEED146F48076EBE7FD
:101FD00046F01006E8E746F04006E5E746F08006E2
:101FE000E2E76B6A1E436E622846FFF7DBFEE4E71A
:101FF00000B583B000210191094B1A6B42F48002B5
:102000001A631B6B03F480030193019B0A4646206D
:10201000FFF7F0FA4620FFF725FB03B05DF804FB5D
:102020000038024008B50A480A4B03604FF4E13318
:10203000436000238360C36003610C2242618361BB
:10204000C36100F07BF900B908BDFEF73BFBFBE77D
:102050008C020020001001402DE9F04188B00023DF
:1020600003930493059306930793026803F1804357
:1020700003F588339A4202D008B0BDE8F0810446E7
:102080000025009503F594335A6C42F010025A640F
:102090005A6C02F010020092009A01951A6B42F0FD
:1020A00002021A631A6B02F002020192019A02956F
:1020B0001A6B42F001021A631B6B03F001030293D7
:1020C000029B802303934FF00208CDF81080032772
:1020D00006970726079603A91948FEF71BFF4FF43A
:1020E00000730393CDF8108005950697079603A912
:1020F0001448FEF70FFF1448144B03604FF00063C1
:10210000436040238360C5604FF480630361456191
:102110008561C5614FF4403303624562FFF772F891
:1021200058B9094B63639C63002211462520FFF7D1
:1021300061FA2520FFF796FA9EE7FEF7C3FAF0E76B
:1021400000040240000002402C020020B86402405B
:10215000026802F10C0353E8003F23F0C0030C3285
:1021600042E800310029F3D1202380F83D30704748
:10217000026802F10C0353E8003F23F490730C3221
:1021800042E800310029F3D1026802F1140353E858
:10219000003F23F00103143242E800310029F3D15B
:1021A000036B012B05D0202380F83E30002303630E
:1021B0007047026802F10C0353E8003F23F010035C
:1021C0000C3242E800310029F3D1ECE790F83D30C1
:1021D000DBB2212B01D0022070478368B3F5805F0A
:1021E00017D0036A5A1C02621A7803685A60C38CBB
:1021F0009BB2013B9BB2C3844BB90268D36823F006
:102200008003D3600268D36843F04003D3600020AA
:1022100070470369002BE4D1036A1B880268C3F38B
:1022200008035360036A02330362E0E738B50446EB
:102230000268136923F44053C1680B431361836838
:102240000269134342691343C2691A430168CB68A8
:1022500023F4164323F00C031343CB600268536945
:1022600023F4407381690B4353610368314A9342FD
:1022700006D002F58062934202D0FEF72BFE01E009
:10228000FEF738FEE369B3F5004F29D000210318AB
:1022900049411B1841F10001C90041EA5371DB00BB
:1022A000181863684FEA83024FEA937341F1000103
:1022B000FDF7DEFF204DA5FB00325109642303FB2F
:1022C00011031B013233A5FB03235B0903F0F0026A
:1022D00002EB011203F00F03216813448B6038BD39
:1022E0000023021843EB0301121841F10001C90059
:1022F00041EA5271D200101841F10001626892184F
:102300005B41FDF7B5FF0C4DA5FB0032510964237D
:1023100003FB1103DB003233A5FB03235B095A00E7
:1023200002F4F87202EB011203F007032168134470
:102330008B60D4E7001001401F85EB5158B310B5F6
:10234000044690F83D300BB3242384F83D302268D6
:10235000D36823F40053D3602046FFF767FF226859
:10236000136923F4904313612268536923F02A030D
:1023700053612268D36843F40053D3600020206483
:10238000202384F83D3084F83E3010BD80F83C3086
:10239000FFF762FED8E701207047000038B590F8DB
:1023A0003D30DBB2202B38D10446002937D0002A3B
:1023B00037D090F83C30012B35D0012380F83C30E9
:1023C00001628284C28400250564212380F83D30A7
:1023D000436B1648D863636B15481864636B1548E4
:1023E000D864636B1D6520681346021D606BFEF7A1
:1023F0006FFF23686FF040021A6084F83C50226837
:1024000002F1140353E8003F43F08003143242E822
:1024100000310029F3D1002000E0022038BD012066
:10242000FCE70120FAE70220F8E700BF3B240008A0
:10243000A3240008B1240008704708B50346806B48
:102440001B681B6813F4807F1AD10023C3840268C1
:1024500002F1140353E8003F23F08003143242E8F2
:1024600000310029F3D1026802F10C0353E8003F68
:1024700043F040030C3242E800310029F3D108BD9B
:10248000FFF7DAFFFBE708B50168CA6822F04002EF
:10249000CA60202280F83D20FFF7CEFF002008BD53
:1024A000704708B5806BFFF7FBFF08BD70477047AA
:1024B00010B5846B23685A6994F83D30DBB2212B48
:1024C00010D023685A6902F0400294F83E30DBB223
:1024D000222B11D0236C43F0100323642046FFF716
:1024E000E6FF10BD02F08002002AEAD00023E38458
:1024F0002046FFF72DFEE4E7002AEBD00023E3851A
:102500002046FFF735FEE5E708B5806B0023C3855D
:10251000C384FFF7CCFF08BD704790F83E30DBB2B4
:10252000222B67D18368B3F5805F4DD0826AB3F503
:10253000805F04D0002B54D10369002B51D1036874
:102540005B681370836A01338362C38D9BB2013B66
:102550009BB2C385002B4FD100B583B00268D3680E
:1025600023F02003D3600268D36823F48073D36020
:102570000268536923F001035361202380F83E3041
:10258000036B012B33D100230363026802F10C03B8
:1025900053E8003F23F010030C3242E800310029D9
:1025A000F3D103681A6812F0100F06D000220192CE
:1025B0001A6801925B680193019B818DFFF7ACFF64
:1025C000002003B05DF804FB0269002AAED1826AE4
:1025D00003685B68C3F308031380836A0233836272
:1025E000B3E703685B6803F07F031370AAE7FFF7A4
:1025F0005DFFE5E7022070470020704730B583B0EB
:10260000044602681368D068516913F00F0505D1BC
:1026100013F0200F02D010F0200F19D12DB111F0BE
:10262000010119D110F4907F16D1216B01297DD0C1
:1026300013F0800F03D010F0800F40F0158113F0DD
:10264000400F03D010F0400F40F0128103B030BDB6
:102650002046FFF762FFF9E713F0010F06D010F4F0
:10266000807F03D0226C42F00102226413F0040F39
:1026700004D019B1226C42F00202226413F0020F5E
:1026800004D019B1226C42F00402226413F0080F46
:1026900007D010F0200F00D119B1226C42F00802CF
:1026A0002264226C002AD1D013F0200F02D010F047
:1026B000200F29D123685B6903F04003226C12F0DC
:1026C000080F00D163B32046FFF752FD23685B6912
:1026D00013F0400F20D0226802F1140353E8003FAA
:1026E00023F04003143242E800310029F3D1A36BF8
:1026F00073B1614A1A65A06BFEF769FE0028A5D088
:10270000A06B036D9847A1E72046FFF706FFD1E7CE
:102710002046FFF7CCFE99E72046FFF7C8FE95E775
:102720002046FFF7C4FE002323648FE713F0100F49
:102730003FF47EAF10F0100F3FF47AAF0023019307
:102740001368019353680193019B536913F0400F81
:1027500050D0A26B13685B689BB2002B3FF476AF3E
:10276000A18D99427FF672AFE385D369B3F5807F7F
:1027700037D0226802F10C0353E8003F23F4807342
:102780000C3242E800310029F3D1226802F114032F
:1027900053E8003F23F00103143242E800310029DE
:1027A000F3D1226802F1140353E8003F23F0400301
:1027B000143242E800310029F3D1202384F83E305E
:1027C00000232363226802F10C0353E8003F23F047
:1027D00010030C3242E800310029F3D1A06BFEF760
:1027E000ACFDA18DE38D9BB2C91A89B22046FFF7DB
:1027F00093FE2BE7A18DE38D9BB2C91A89B2E38DBD
:102800009BB2002B3FF422AF00293FF41FAF226898
:1028100002F10C0353E8003F23F490730C3242E8BA
:1028200000300028F3D1226802F1140353E8003F7E
:1028300023F00103143242E800300028F3D12023B2
:1028400084F83E3000232363226802F10C0353E82E
:10285000003F23F010030C3242E800300028F3D18F
:102860002046FFF759FEF1E62046FFF7AFFCEDE604
:102870002046FFF708FEE9E609250008DFF834D016
:102880000D480E490E4A002302E0D458C4500433C8
:10289000C4188C42F9D30B4A0B4C002301E013609F
:1028A0000432A242FBD3FEF765FF00F011F8FDF7FA
:1028B0005DFF704700000220000000207000002033
:1028C000C432000870000020E4020020FEE700008F
:1028D00070B50D4D0D4C641BA4100026A64209D105
:1028E0000B4D0C4C00F09CFC641BA4100026A6426F
:1028F00005D170BD55F8043B98470136EEE755F811
:10290000043B98470136F2E7BC320008BC320008AD
:10291000BC320008C032000802440346934200D192
:10292000704703F8011BF9E700B59BB000910491D3
:102930006FF000410591029105490391694600F04D
:102940006FF8009B00221A701BB05DF804FB00BFFB
:102950000802FFFF13460A46014602480068FFF7D7
:10296000E3BF00BF0C0000202DE9F0478E689E42B7
:1029700082460C4690461F4638D88A8912F4906FDA
:1029800032D025680969A5EB0109656905EB4505A4
:1029900005EBD57501334B446D109D4238BF1D4684
:1029A000530531D5294600F063FB064650B90C2388
:1029B000CAF80030A38943F04003A3814FF0FF30F1
:1029C000BDE8F08721694A4600F0BEFAA38923F4E6
:1029D000906343F08003A381266165614E44A5EBBB
:1029E00009052660A5603E46BE4200D93E462068E5
:1029F0003246414600F0B6FAA3689B1BA3602368E9
:102A0000334423600020DBE72A4600F0A5FB06469E
:102A10000028E1D12169504600F0BEFAC7E7000066
:102A20002DE9F04F98468B891B069DB007460D4651
:102A300014460ED50B6963B9402100F019FB2860DC
:102A4000286120B90C233B604FF0FF30D1E04023D8
:102A50006B610023099320238DF82930CDF80C8079
:102A60003023DFF8A8818DF82A304FF00109234682
:102A70009A4613F8012B0AB1252AF9D1BAEB040BB7
:102A80000BD05B46224629463846FFF76DFF0130E2
:102A900000F0AA80099A5A4409929AF80030002B53
:102AA00000F0A28000234FF0FF32CDE905230AF1A8
:102AB000010A049307938DF853301A935446052264
:102AC00014F8011B5148FDF783FB049AD8B9D006CE
:102AD00044BF20238DF85330110744BF2B238DF8BA
:102AE00053309AF800302A2B15D0079A544600200C
:102AF0004FF00A0C214611F8013B303B092B4ED90F
:102B0000B0B1079214E0A0EB080309FA03F31343F2
:102B10000493A246D2E7039B191D1B680391002B67
:102B2000BBBF5B4242F0020207930793B8BF049217
:102B300023782E2B0CD163782A2B35D1039B1A1DB9
:102B40001B680392002BB8BF4FF0FF33023405938C
:102B5000DFF8C8A0217803225046FDF739FB40B1C9
:102B60004023A0EB0A0003FA00F0049B0343013466
:102B7000049314F8011B26488DF828100622FDF74F
:102B800027FB002838D0234B1BBB039B073323F0C4
:102B9000070308330393099B3344099367E70CFB4E
:102BA00002320C460120A5E70023013405931946A3
:102BB0004FF00A0C204610F8012B303A092A03D9AD
:102BC000002BC5D00591C3E70CFB0121044601236E
:102BD000F0E703AB00932A460F4B04A93846AFF346
:102BE0000080421C0646D6D1AB895B063FF52CAF70
:102BF00009981DB0BDE8F08F03AB00932A46064B41
:102C000004A9384600F07AF8EBE700BF80320008EC
:102C10008A32000800000000692900088632000896
:102C20002DE9F047164699468A680B69DDF8208041
:102C30009342B8BF1346336091F8432007460C46D1
:102C40000AB1013333602368990642BF3368023307
:102C50003360256815F0060506D104F1190AE3680A
:102C600032689B1AAB4226DC94F84320131E22687C
:102C700018BF012392062BD404F14302494638467B
:102C8000C04701301ED02368E568326803F00603B0
:102C9000042B08BFAD1AA36822690CBF25EAE575AD
:102CA00000259342C4BF9B1AED1800261A34B54282
:102CB0001AD1002008E00123524649463846C04751
:102CC000013003D14FF0FF30BDE8F0870135C6E792
:102CD000E1185A1C302081F84300224494F8451032
:102CE00082F843100233C7E701232246494638469B
:102CF000C0470130E6D00136D9E700002DE9FF4793
:102D00000F7E0C9D782F914680460C469A4601F125
:102D1000430207D8622F0AD8002F00F0D880582F1E
:102D200000F0A38004F1420584F842703AE0A7F174
:102D30006303152BF6D801A151F823F0952D000857
:102D4000A92D0008252D0008252D0008252D000897
:102D5000252D0008A92D0008252D0008252D000887
:102D6000252D0008252D0008B52E0008D92D0008B6
:102D7000972E0008252D0008252D0008D72E0008C5
:102D8000252D0008D92D0008252D0008252D000827
:102D90009F2E00082B681A1D1B682A6004F142054B
:102DA00084F842300123A3E020682968060601F177
:102DB00004030AD50E682B60002E03DA2D23764219
:102DC00084F843305E480A2319E00E682B6010F047
:102DD000400F18BF36B2EFE72B682068191D296035
:102DE000010601D51E6802E04606FBD51E88544840
:102DF0006F2F0CBF08230A23002184F84310656855
:102E0000A560002DA2BF216821F0040121600EB948
:102E1000002D4DD01546B6FBF3F103FB1167C75DDE
:102E200005F8017D3746BB420E46F4D9082B0BD17D
:102E30002368DE0708D5236961689942DEBF302325
:102E400005F8013C05F1FF35521B2261CDF800A0C9
:102E50004B4603AA21464046FFF7E2FE01304CD123
:102E60004FF0FF3004B0BDE8F087354881F8457079
:102E70002968236851F8046B29601D0614D5DF0703
:102E800044BF43F0200323601EB9236823F02003CE
:102E900023601023B0E7236843F0200323607823E6
:102EA000284884F84530E3E7590648BFB6B2E6E75C
:102EB0001546BBE72B6826686169181D2860350632
:102EC0001B6801D5196002E07006FBD5198000234C
:102ED00023611546BAE72B681A1D2A601D686268CF
:102EE00000212846FDF774F908B1401B6060636853
:102EF0002361002384F84330A8E723692A46494622
:102F00004046D0470130ABD023689B0713D4E0681C
:102F1000039B9842B8BF1846A4E7012332464946AE
:102F20004046D04701309BD00135E36803995B1AD6
:102F3000AB42F2DCEBE7002504F11906F5E700BF30
:102F400091320008A23200080A44914200F1FF3396
:102F500000D1704710B511F8014B03F8014F9142B1
:102F6000F9D110BD884210B501EB020402D98442A8
:102F7000234607D8431EA14208D011F8012B03F8BD
:102F8000012FF8E7024401468A4200D110BD13F830
:102F9000014D02F8014DF7E737B5002944D051F84B
:102FA000043C0190002BA1F10404B8BFE41800F028
:102FB00013F91E4A0198136833B96360146003B0B3
:102FC000BDE8304000F00EB9A34208D92568611968
:102FD0008B4201BF19685B6849192160EDE71A4609
:102FE0005B680BB1A342FAD911685518A5420BD101
:102FF000246821445418A3421160E0D11C685B6826
:10300000536021441160DAE702D90C230360D6E74C
:10301000256861198B4204BF19685B68636004BF4F
:10302000491921605460CAE703B030BDD0020020C6
:1030300070B50E4E0C463168054611B900F0BCF86B
:1030400030602146284600F0B7F8431C0AD0C41C63
:1030500024F00304A04207D0211A284600F0ACF85F
:10306000013001D14FF0FF34204670BDD402002062
:103070002DE9F041CD1C25F0030508350C2D38BF96
:103080000C25002D074601DBA94205D90C233B6026
:1030900000263046BDE8F0812E4E00F09DF83368E2
:1030A0001C4634BB29463846FFF7C2FF431C044682
:1030B0004DD134682646002E40D12368314638462B
:1030C00004EB030800F078F880453AD12168033515
:1030D0006D1A25F0030508350C2D38BF0C2529463F
:1030E0003846FFF7A5FF01302BD023682B4423601F
:1030F0000EE02268521B1ED40B2A16D96119A34276
:10310000256018BF5960636808BF316062514B6029
:10311000384604F10B0600F065F826F00706231D7B
:10312000F21AB6D09B1BA350B3E76268A3420CBF50
:1031300032605A60ECE723466468B2E7344676684A
:10314000B9E70C233B60384600F04CF8A1E7256056
:10315000DEE700BFD00200202DE9F0418046144692
:103160000E4621B9BDE8F0411146FFF781BF2AB9EB
:10317000FFF712FF25462846BDE8F08100F038F839
:103180008442074602D8B4EB500F12D8214640467D
:10319000FFF76EFF05460028EDD0BC4222463146BF
:1031A00028BF3A46FFF7D0FE31464046FFF7F4FE0F
:1031B000E1E73546DFE7000038B5064D0023044659
:1031C00008462B6000F01EF8431C02D12B6803B1A7
:1031D000236038BDD8020020014800F011B800BFBC
:1031E000DC020020014800F00CB800BFDC02002027
:1031F00051F8043C181F002BBCBF0B58C018704777
:1032000070477047044A05491368002B08BF0B46F6
:103210001844106018467047E0020020E8020020C1
:10322000F8B500BFF8BC08BC9E467047F8B500BFB3
:08323000F8BC08BC9E46704783
:103238006563643A25642C73706565645F72706DAC
:103248003A25642C676976656E5F63757272656E80
:10325800743A25640D0A00000006101600061016C0
:10326800000000000000000001020304060708092E
:103278000000000001020304232D302B2000686C9D
:103288004C00656667454647003031323334353681
:1032980037383941424344454600303132333435BA
:0C32A800363738396162636465660000E7
:0832B400ECCFFF7F01000000D8
:0432BC00B501000850
:0432C0009101000870
:1032C40001000000100000000024F40010000020A1
:1032D40000000000000000000000000000000000EA
:1032E40000000000000000000000000000000000DA
:1032F40000000000000000000000000000000000CA
:1033040000000000000000000000000000000000B9
:1033140000000000000000000000000000000000A9
:103324000000000000000000000000000000000099
:040000050800287D4A
:00000001FF
