:020000040800F2
:10000000000002202D3500082511000827110008E6
:10001000291100082B1100082D1100080000000014
:100020000000000000000000000000006132000835
:100030002F110008000000000133000831110008F2
:100040007D3500087D3500087D3500087D350008C8
:100050007D3500087D3500087D3500087D350008B8
:100060007D3500087D350008471100087D35000802
:100070007D3500087D3500087D3500087D35000898
:100080007D3500087D3500087D3500087D35000888
:100090007D3500087D3500087D35000851110008C8
:1000A0007D3500087D3500087D3500087D35000868
:1000B0007D3500087D3500087D3500087D35000858
:1000C0007D3500087D3500087D3500087D35000848
:1000D0007D3500087D3500087D3500087D35000838
:1000E0007D3500087D3500087D3500087D35000828
:1000F0007D3500087D3500087D3500087D35000818
:100100007D3500087D3500087D3500087D35000807
:100110007D3500087D3500087D3500087D350008F7
:100120007D3500087D3500087D3500087D350008E7
:100130007D3500087D3500087D3500087D350008D7
:100140007D3500087D3500087D3500087D350008C7
:100150007D3500087D3500087D3500087D350008B7
:100160007D3500087D3500087D3500087D350008A7
:100170007D3500087D3500087D3500080000000051
:080180007D3500087D35000803
:1001900010B5054C237833B9044B13B10448AFF3C1
:1001A00000800123237010BD180000200000000013
:1001B000D835000808B5034B1BB103490348AFF31A
:1001C000008008BD000000001C000020D835000899
:1001D000034613F8012B002AFBD1181A0138704787
:1001E00053B94AB9002908BF00281CBF4FF0FF319E
:1001F0004FF0FF3000F074B9ADF1080C6DE904CE9A
:1002000000F006F8DDF804E0DDE9022304B07047F1
:100210002DE9F047089D04468E46002B4DD18A42B9
:10022000944669D9B2FA82F252B101FA02F3C2F1EC
:10023000200120FA01F10CFA02FC41EA030E94407D
:100240004FEA1C48210CBEFBF8F61FFA8CF708FB9E
:1002500016E341EA034306FB07F199420AD91CEB76
:10026000030306F1FF3080F01F81994240F21C81A8
:10027000023E63445B1AA4B2B3FBF8F008FB1033F0
:1002800044EA034400FB07F7A7420AD91CEB040425
:1002900000F1FF3380F00A81A74240F207816444F5
:1002A000023840EA0640E41B00261DB1D44000237A
:1002B000C5E900433146BDE8F0878B4209D9002DDE
:1002C00000F0EF800026C5E9000130463146BDE868
:1002D000F087B3FA83F6002E4AD18B4202D38242D2
:1002E00000F2F980841A61EB030301209E46002D81
:1002F000E0D0C5E9004EDDE702B9FFDEB2FA82F2D6
:10030000002A40F09280A1EB0C014FEA1C471FFA33
:100310008CFE0126200CB1FBF7F307FB131140EA1A
:1003200001410EFB03F0884208D91CEB010103F1E7
:10033000FF3802D2884200F2CB804346091AA4B2A9
:10034000B1FBF7F007FB101144EA01440EFB00FE7D
:10035000A64508D91CEB040400F1FF3102D2A645E2
:1003600000F2BB800846A4EB0E0440EA03409CE781
:10037000C6F12007B34022FA07FC4CEA030C20FA2E
:1003800007F401FA06F31C43F9404FEA1C4900FA4E
:1003900006F3B1FBF9F8200C1FFA8CFE09FB1811CB
:1003A00040EA014108FB0EF0884202FA06F20BD93E
:1003B0001CEB010108F1FF3A80F08880884240F28E
:1003C0008580A8F102086144091AA4B2B1FBF9F0D2
:1003D00009FB101144EA014100FB0EFE8E4508D9CD
:1003E0001CEB010100F1FF346CD28E456AD9023852
:1003F000614440EA0840A0FB0294A1EB0E01A14237
:10040000C846A64656D353D05DB1B3EB080261EBA4
:100410000E0101FA07F722FA06F3F1401F43C5E97E
:10042000007100263146BDE8F087C2F12003D840B4
:100430000CFA02FC21FA03F3914001434FEA1C47F6
:100440001FFA8CFEB3FBF7F007FB10360B0C43EAE8
:10045000064300FB0EF69E4204FA02F408D91CEB98
:10046000030300F1FF382FD29E422DD90238634496
:100470009B1B89B2B3FBF7F607FB163341EA034136
:1004800006FB0EF38B4208D91CEB010106F1FF3885
:1004900016D28B4214D9023E6144C91A46EA00467C
:1004A00038E72E46284605E70646E3E61846F8E60E
:1004B0004B45A9D2B9EB020864EB0C0E0138A3E757
:1004C0004646EAE7204694E74046D1E7D0467BE738
:1004D000023B614432E7304609E76444023842E7B0
:1004E000704700BF38B54FF4FA7002F045FDDFEDFC
:1004F000250A9FED250A254A0021254800F080F8AD
:1005000000F06EFA0028FBD122481023C36101F0ED
:100510001BFC50B9002002F061FA02F0A1FB1E4B57
:1005200018601E4B01221A700CE000F0F1FBF1E79D
:10053000174BD3ED087AFCEEE77A17EE903A98B2B3
:1005400000F024F94FF0FF31012002F031FC0128C6
:10055000F8D1134D2A461349134800F04FFA0C4CBA
:10056000DFED120A95ED000A204600F063F8D4EDA5
:10057000087AF5EEC07AF1EE10FAD9D5002222629F
:10058000D6E700BF0080894500A08C4514360008DE
:1005900054000020BC030020340000205000002044
:1005A0009C00002038000020440000200000204271
:1005B000102800D070470F4B1B78002BFAD010B5D5
:1005C00002F0E6FB012800D110BD0B4C21460B4B7D
:1005D000186802F029FC2368002BF5D04FF0E023C7
:1005E0004FF08052C3F8042DBFF34F8FBFF36F8FCE
:1005F000EAE700BF50000020A000002034000020E7
:10060000B0B1AAB10170116841605168816092680F
:10061000C26080ED040AC0ED050A002282634263D5
:1006200002630262C2628262426242640264C26324
:10063000704700000346002800F0A380D0ED107A38
:10064000C0ED117AD0ED0F6AC0ED106AC0ED060A58
:1006500080ED070A70EEC00AC0ED0F0A0278002A8A
:100660004CD190ED017A20EE877A80ED097AD0EDB9
:10067000027A60EEA77A90ED0A6A77EE867AC0ED8C
:100680000A7A426B8263026B426370EEE60AC0ED47
:100690000C0AD0ED036A60EEA60AC0ED0B0AD0ED9D
:1006A000056AF4EEE67AF1EE10FA13DDC0ED0A6A9F
:1006B000D3ED0A7A37EE277A70EE870AC3ED080A7F
:1006C000D3ED047AF4EEE70AF1EE10FA0CDDC3ED97
:1006D000087A15E0F1EE666AF4EEE67AF1EE10FAC9
:1006E000E6D5C0ED0A6AE3E7F1EE677AF4EEE70AD1
:1006F000F1EE10FA04D5C3ED087A01E0012A02D028
:1007000093ED080A704790ED017A30EEE66A27EE25
:10071000067A80ED097A90ED026A20EE866A80ED15
:100720000A6A426B8263026B426376EEA66A70EEDF
:10073000E60A77EEA00AC0ED0C0AD0ED037A60EE6F
:10074000A77AC0ED0B7A37EE067A77EE877A90EDCE
:10075000087A77EE877AC0ED087A90ED047AF4EEA5
:10076000C77AF1EE10FA02DD80ED087AC8E7B1EE43
:10077000477AF4EEC77AF1EE10FAC1D580ED087A27
:10078000BEE79FED010A704700000000014B58636F
:10079000704700BF0044014010B50C4600F040FA1D
:1007A000204600F03DFA10BD10B50C4640F0800028
:1007B00000F036FA552000F033FA207010BD38B53D
:1007C0000D46144640F0800000F02AFA06E055205D
:1007D00000F026FA05F8010B013CE4B2002CF6D13A
:1007E00038BD0000F8B500F0F3F9802000F018FAE9
:1007F000552000F015FA552000F012FA00F0F2F939
:10080000962000F0BBF900F0E3F9802000F008FA30
:10081000552000F005FA552000F002FA00F0E2F948
:10082000962000F0ABF900F0D3F9B6217E20FFF757
:10083000B3FF00F0D7F9502000F0BDF900F0C8F97F
:10084000802000F0EDF9552000F0EAF9552000F085
:10085000E7F900F0C7F9962000F090F900F0B8F938
:10086000802000F0DDF9552000F0DAF9552000F085
:10087000D7F9044600F0B6F9962000F07FF91E2C57
:1008800032D10024052C2DD800F0A2F9174A04EB30
:100890004403D1184E78D55C31462846FFF77CFFDB
:1008A00000F0A0F9962000F069F900F091F945F008
:1008B000800000F0B5F9552000F0B2F9552000F0A5
:1008C000AFF9054600F08EF9962000F057F9AE42D8
:1008D00002D10134E4B2D5E704EB4407034B1F44D3
:1008E000B87800E00020F8BDFF20FCE720360008C3
:1008F000F0B583B000248DF8074000F07DF90DF1CC
:1009000007012046FFF750FF00F080F9962000F025
:1009100035F900F071F90DF107012046FFF744FFAA
:1009200000F074F9962000F029F900F065F9B6217D
:100930001420FFF731FF00F069F9502000F03BF977
:1009400000F05AF90DF107012046FFF72DFF00F0E6
:100950005DF9962000F012F900F04EF90DF1070153
:100960002046FFF721FF00F051F9962000F006F92C
:100970009DF807300F2B2ED1052C29D800F03CF91B
:10098000164A04EB4403D1184D78D65C294630460C
:10099000FFF702FF00F03AF9962000F0EFF800F0C0
:1009A0002BF90DF107013046FFF7FEFE00F02EF99E
:1009B000962000F0E3F89DF807309D4202D1013403
:1009C000E4B2D9E704EB4407044B1F44B87800E0D5
:1009D000002003B0F0BDFF20FBE700BF3436000865
:1009E00010B500F0C9F800F0C8F8FFF7FBFE0446A8
:1009F000FFF77EFF2043C0B210BD0000F0B583B00A
:100A000006460D461446594B93E803000090ADF896
:100A10000410090C8DF8061000278DF8077000F0FF
:100A2000D7F8922000F0FCF8062269461220FFF762
:100A3000C6FE00F0D7F89DF801301B021BB29DF8EE
:100A40000020134307EE903AF8EEE77A484A92ED19
:100A5000007A67EE877AC5ED007A9DF803301B02B5
:100A60001BB29DF802100B4307EE103AD2ED006A5C
:100A7000B8EEC77A27EE267A85ED017A9DF8053023
:100A80001B021BB29DF80420134307EE903AF8EEC8
:100A9000E77A67EEA67AC5ED027A00F0ADF8082293
:100AA00069463846FFF78BFE00F0B0F89DF800303D
:100AB0000F2B27D000F08CF8A22000F0B1F8022212
:100AC00069462220FFF77BFE00F08CF89DF800209D
:100AD0009DF801305B0943EAC203B3F5806F01DB87
:100AE000A3F5006307EE903AF8EEE77AB4EE007AE9
:100AF00067EE877AB3EE077A77EE877AC4ED007AED
:100B000003B0F0BD9DF803301B021BB29DF802201C
:100B1000134307EE903AF8EEE77A164A92ED007A20
:100B200067EE877AC6ED007A9DF805301B021BB28E
:100B30009DF804100B4307EE103AD2ED006AB8EEB0
:100B4000C77A27EE267A86ED017A9DF807301B02D8
:100B50001BB29DF80620134307EE903AF8EEE77AB1
:100B600067EEA67AC6ED027AA4E700BFF03500086A
:100B700000000020040000207047704710B44FF0C0
:100B8000E0235C694FF0A80C0CFB00FC9B69002182
:100B900004E0E01A02441144614509D21A464FF0BC
:100BA000E0239B699A42FAD0F3D9D21A1144F3E7B1
:100BB0005DF8044B704710B504E04FF47A70FFF70E
:100BC000DDFF2046431E9CB20028F6D110BD000078
:100BD00008B500221021024800F094FE08BD00BFB5
:100BE0000000024008B501221021024800F08AFEF0
:100BF00008BD00BF0000024008B5002201210248E4
:100C000000F080FE08BD00BF0004024008B50122CC
:100C10001146024800F076FE08BD00BF0004024005
:100C200000B587B08DF80F004FF47A73009301235D
:100C30000DF117020DF10F01034801F0C5F89DF801
:100C4000170007B05DF804FBBC03002030B595B079
:100C50003022002108A802F0B7FC00240394049479
:100C600005940694079401941C4B1A6C42F0805230
:100C70001A641B6C03F080530193019B0294184B80
:100C80001A6842F480421A601B6803F4804302939E
:100C9000029B012308934FF48033099302250E959C
:100CA0004FF480030F9306231093A82311931295FA
:100CB0000723139308A800F073FA0F2303930495F6
:100CC00005944FF4A05306934FF4805307930521E6
:100CD00003A800F083FC15B030BD00BF003802400F
:100CE0000070004008B500F083FFFFF7AFFF00F091
:100CF00011F800F0B5F800F0D5F800F0D9F9FFF7D9
:100D00006FFE0028FBD100F093F802F0FBF8FEE73D
:100D1000704700002DE9F0418AB000240594069444
:100D20000794089409940094364B1A6B42F002021F
:100D30001A631A6B02F002020092009A01941A6B75
:100D400042F001021A631A6B02F001020192019A49
:100D500002941A6B42F080021A631A6B02F080024E
:100D60000292029A03941A6B42F020021A631A6BE1
:100D700002F020020392039A04941A6B42F00402D8
:100D80001A631B6B03F004030493049BDFF8848055
:100D900001221021404600F0B5FD1B4E01221146F4
:100DA000304600F0AFFD1023059301250695079509
:100DB0000227089705A9404600F0BEFC30230593A2
:100DC000124B0693079505A9114800F0B5FC05954F
:100DD00006950795089705A9304600F0ADFC224618
:100DE00005210A2000F084FE0A2000F0B9FE224608
:100DF0000521172000F07CFE172000F0B1FE0AB09C
:100E0000BDE8F081003802400004024000002110DB
:100E10000008024000000240034B0360034B0B60DC
:100E200080231360704700BFA8020020A8000020A4
:100E300010B588B00DF1040C074C0FCCACE80F00D6
:100E400094E807008CE80700002101A802F05FF891
:100E5000024B186008B010BDF8350008A40000204F
:100E600010B582B0002401940D4B1A6B42F480023D
:100E70001A631B6B03F480030193019B2246052137
:100E80003A2000F035FE3A2000F06AFE22460521A5
:100E90003B2000F02DFE3B2000F062FE02B010BDB2
:100EA0000038024008B50F480F4B03604FF48273BF
:100EB000436000238360C360022202610122426119
:100EC0004FF4007282613822C2610362436283621E
:100ED0000A23C36200F038FF00B908BDFFF718FF0E
:100EE000FBE700BFBC030020003001402DE9F041CA
:100EF00088B0002303930493059306930793026835
:100F00003C4B9A4202D008B0BDE8F081044600256F
:100F1000009503F584335A6C42F480525A645A6C3B
:100F200002F480520092009A01951A6B42F002027C
:100F30001A631A6B02F002020192019A02951A6B6F
:100F400042F001021A631B6B03F001030293029B40
:100F5000182303934FF00208CDF81080032706975B
:100F60000526079603A9244800F0E6FB8023039397
:100F7000CDF8108005950697079603A91F4800F045
:100F8000DBFB1F481F4B03604FF0C063436085606D
:100F9000C5604FF48063036145618561C5614FF4AD
:100FA00040330362456200F02BFDE8B9144BE36463
:100FB0009C631548154B03604FF0C06343604023AA
:100FC00083600023C3604FF48062026143618361E8
:100FD000C3614FF400320262436200F011FD30B988
:100FE000094BA3649C638EE7FFF792FEDEE7FFF7F1
:100FF0008FFEF5E70030014000040240000002408F
:10100000FC020020406402405C030020586402405F
:101010000268094B9A4200D0704782B000230193C6
:10102000064B5A6C42F400325A645B6C03F4003392
:101030000193019B02B07047004401400038024018
:1010400030B587B000230193029303930493059373
:101050000268144B9A4201D007B030BD00250095BC
:1010600003F574431A6B42F020021A631B6B03F002
:1010700020030093009B402301930223029301224B
:10108000039204930323059301A9074800F054FB3E
:10109000064C204601F048F82946204601F0A6F902
:1010A000DAE700BF004401400014024014040020AD
:1010B00000B589B000230193029303930493059331
:1010C000069307931548164A02604360836041F215
:1010D0008732C2600361836101F09EF8A0B90F48B6
:1010E00001F0B4F898B960230193002202920392B0
:1010F000059201A9094801F0FBF858B90748FFF724
:101100009FFF09B05DF804FBFFF702FEE7E7FFF77A
:10111000FFFDE8E7FFF7FCFDF0E700BF1404002047
:10112000004401407047FEE7FEE7FEE7FEE7704738
:1011300008B500F077FD01F02BFE012800D108BDB5
:1011400002F010F9FBE708B5102000F0E1FB08BD44
:1011500008B5202000F0DCFB08BD000000B583B01E
:10116000002200920D4B596C41F480415964596C36
:1011700001F48041009100990192196C41F0805175
:1011800019641B6C03F080530193019B0F216FF0D6
:10119000010000F0ADFC03B05DF804FB0038024034
:1011A000002800F0BA8170B582B00446036813F0DD
:1011B000010F3BD09F4B9B6803F00C03042B2CD0FA
:1011C0009C4B9B6803F00C03082B21D06368B3F59C
:1011D000803F4FD0B3F5A02F52D0964B1A6822F41F
:1011E00080321A601A6822F480221A606368002B29
:1011F00050D000F023FD05468E4B1B6813F4003FD2
:1012000014D100F01BFD401B6428F5D903208BE1AD
:10121000884B5B6813F4800FD8D0864B1B6813F49F
:10122000003F03D06368002B00F07981236813F03E
:10123000020F54D07F4B9B6813F00C0F3ED07D4BB8
:101240009B6803F00C03082B33D0E368002B68D0B5
:10125000794B01221A6000F0F1FC0546754B1B68C2
:1012600013F0020F54D100F0E9FC401B0228F5D91D
:10127000032059E16F4A136843F480331360B5E7E4
:101280006C4B1A6842F480221A601A6842F4803269
:101290001A60ABE700F0D2FC0546664B1B6813F4FE
:1012A000003FC3D000F0CAFC401B6428F5D90320DE
:1012B0003AE1604B5B6813F4800FC6D15D4B1B684D
:1012C00013F0020F03D0E368012B40F02A81594A42
:1012D000136823F0F803216943EAC103136023680C
:1012E00013F0080F42D063696BB3534B0122C3F86C
:1012F000802E00F0A3FC05464E4B5B6F13F0020FEF
:1013000034D100F09BFC401B0228F5D903200BE1EF
:10131000484A136823F0F803216943EAC1031360C4
:10132000DDE7454B00221A6000F088FC0546414B82
:101330001B6813F0020FD2D000F080FC401B022883
:10134000F5D90320F0E03C4B0022C3F8802E00F0DA
:1013500075FC0546374B5B6F13F0020F06D000F0AB
:101360006DFC401B0228F5D90320DDE0236813F053
:10137000040F77D02F4B1B6C13F0805F33D1002309
:1013800001932C4B1A6C42F080521A641B6C03F0D0
:1013900080530193019B0125284B1B6813F4807F28
:1013A00023D0A368012B34D0052B38D0214B1A6FE2
:1013B00022F001021A671A6F22F004021A67A3686A
:1013C000002B3DD000F03AFC06461A4B1B6F13F081
:1013D000020F46D100F032FC801B41F28833984264
:1013E000F3D90320A0E00025D6E7144A136843F49C
:1013F0008073136000F022FC0646104B1B6813F448
:10140000807FCED100F01AFC801B0228F5D9032082
:101410008AE0084A136F43F001031367CFE7054BD7
:101420001A6F42F004021A671A6F42F001021A673B
:10143000C5E700BF0038024000004742007000408E
:1014400000F0FCFB06463A4B1B6F13F0020F08D06E
:1014500000F0F4FB801B41F288339842F3D903205B
:1014600062E0E5B9A369002B5DD0314A926802F0D1
:101470000C02082A5AD0022B17D02E4B00221A66D3
:1014800000F0DCFB04462A4B1B6813F0007F42D0BF
:1014900000F0D4FB001B0228F5D9032044E0244AC5
:1014A000136C23F080531364DCE7224B00221A668E
:1014B00000F0C4FB05461E4B1B6813F0007F06D0EE
:1014C00000F0BCFB401B0228F5D903202CE0E369A7
:1014D000226A1343626A43EA8213A26A5208013AFB
:1014E00043EA0243E26A43EA0263114A5360114B42
:1014F00001221A6600F0A2FB04460D4B1B6813F094
:10150000007F06D100F09AFB001B0228F5D90320CA
:101510000AE0002008E0002006E0012070470120DA
:1015200002E0012000E0002002B070BD0120FBE7D6
:10153000003802400000474208B5254B9B6803F085
:101540000C03042B3FD0082B3FD1214B5A6802F0EB
:101550003F025B6813F4800F12D01D4B5968C1F332
:1015600088111C480023A1FB0001FEF739FE184B2F
:101570005B68C3F3014301335B00B0FBF3F025E08C
:10158000134B5968C1F3881C4FEA4C11B1EB0C00A6
:101590006EEB0E0E4FEA8E1343EA90638101091A37
:1015A00063EB0E03DB0043EA5173C90011EB0C0C33
:1015B00043F10003990200234FEA8C2041EA9C5139
:1015C000FEF70EFED3E7034800E0034808BD00BF66
:1015D00000380240001BB7000024F400002800F08F
:1015E0009A8070B50D4604464F4B1B6803F00F03FD
:1015F0008B4208D2CBB24C4A1370136803F00F032E
:101600008B4240F08A80236813F0020F17D013F04A
:10161000040F04D0454A936843F4E0539360236871
:1016200013F0080F04D0414A936843F46043936079
:101630003E4A936823F0F003A1680B43936023684C
:1016400013F0010F32D06368012B21D09A1E012ABA
:1016500025D9364A126812F0020F60D033498A68E1
:1016600022F0030213438B6000F0E8FA06462F4B8A
:101670009B6803F00C036268B3EB820F16D000F096
:10168000DDFA801B41F288339842F0D9032041E013
:10169000264A126812F4003FE0D101203AE0234AC2
:1016A000126812F0007FD9D1012033E01E4B1B6875
:1016B00003F00F03AB4207D9EAB21B4B1A701B6849
:1016C00003F00F03AB422CD1236813F0040F06D0B4
:1016D000164A936823F4E053E1680B439360236850
:1016E00013F0080F07D0114A936823F4604321696F
:1016F00043EAC1039360FFF71FFF0C4B9B68C3F3E2
:1017000003130B4AD35CD8400A4B18600F2000F03B
:1017100049FA002070BD012070470120FAE701203E
:10172000F8E70120F6E700BF003C02400038024025
:10173000583600081000002000230F2B00F2D8803C
:10174000F0B583B03AE0072200E00022AA4032431D
:101750000234684D45F82420674A14686FEA0C0289
:1017600024EA0C054E6816F4803F01D04CEA0405CB
:10177000614C2560646802EA04054E6816F4003F77
:1017800001D04CEA04055C4C6560A46802EA0405DB
:101790004E6816F4801F01D04CEA0405564CA56033
:1017A000E46822404D6815F4001F01D04CEA0402A1
:1017B000514CE26001330F2B00F2988001229A40D5
:1017C0000C6804EA020C32EA0404F3D14C68022CDF
:1017D00001D0122C10D1DD08083550F8257003F027
:1017E0000704A6000F24B44027EA040E0C69B44095
:1017F00044EA0E0440F8254006684FEA430E0324ED
:1018000004FA0EF4E54326EA04064C6804F00304E7
:1018100004FA0EF4344304604C68661E012E03D9AA
:10182000112C01D0122C0FD186682E40CC6804FAFE
:101830000EF434438460446824EA02024C68C4F322
:1018400000149C4014434460C26815408A6802FA40
:101850000EF22A43C2604A6812F0805FAAD00022CA
:101860000192264A546C44F480445464526C02F44D
:1018700080420192019A9C08A51C1E4A52F82560DC
:1018800003F0030295000F22AA4026EA02061C4A32
:1018900090423FF45AAF02F5806290421AD002F5AE
:1018A0008062904218D002F58062904216D002F514
:1018B0008062904214D002F58062904212D002F50C
:1018C0008062904210D002F5806290423FF43BAFBC
:1018D00008223BE7012239E7022237E7032235E7F6
:1018E000042233E7052231E706222FE703B0F0BDDB
:1018F000704700BF00380140003C01400038024002
:10190000000002400AB1816170470904816170479B
:1019100008B5054B5B69034200D108BD024B586115
:10192000FEF746FEF9E700BF003C014010B4036833
:10193000D9B210390C4AA2FB014212090B4CA25C2D
:10194000C2655F2909D923F47F7323F003030433AD
:101950008365806D5DF8044B704723F47F7323F03B
:1019600003038365F5E700BFABAAAAAA50360008B7
:10197000836A826992B9012B0AD0022B02D00BB183
:1019800000207047C36A13F0807F28D10020704781
:10199000C36AB3F1C07F24D000207047B2F5005F66
:1019A00009D0022B25D9032B25D1C36A13F0807FE0
:1019B00023D100207047032B03D8DFE803F0140481
:1019C000140A00207047C36A13F0807F0DD10020F5
:1019D0007047C36AB3F1C07F09D00020704701206F
:1019E0007047012070470120704701207047012097
:1019F00070470120704700207047012070470000A9
:101A000070B5044600F01AF9002C5BD0054600239F
:101A100084F83430022384F835302268136823F0C8
:101A20000103136023681A6812F0010F0AD000F056
:101A300005F9431B052BF5D920236365032084F8A2
:101A4000350070BD1A68204810406168A2680A43DA
:101A5000E1680A4321690A4361690A43A1690A43AB
:101A6000E1690A43216A0A430243616A04291ED0DC
:101A70001A602668756925F00705636A1D43042B03
:101A800007D1A36A1D43E36A1BB12046FFF770FF2D
:101A900090B975612046FFF749FFE26D3F239340FF
:101AA000836000206065012384F83530C9E7E16A6E
:101AB000206B01430A43DBE740236365012084F880
:101AC0003500BEE70120BCE73F8010F0074AD3682D
:101AD00023F4E0631B041B0C000200F4E0600343EA
:101AE00043F0BF6343F40033D360704700ED00E080
:101AF00000B5194BDB68C3F30223C3F1070CBCF13B
:101B0000040F28BF4FF0040C03F1040EBEF1060FC2
:101B100018D9033B4FF0FF3E0EFA0CFC21EA0C01F2
:101B200099400EFA03F322EA0303194300280BDB62
:101B30000901C9B200F1604000F5614080F800136E
:101B40005DF804FB0023E5E700F00F000901C9B2CE
:101B5000024B1954F4E700BF00ED00E014ED00E083
:101B6000002807DB00F01F02400901239340024ACE
:101B700042F82030704700BF00E100E00138B0F1CA
:101B8000807F0BD24FF0E0235861054AF02182F8A4
:101B900023100020986107221A61704701207047C6
:101BA00000ED00E010B504460E4B18784FF47A7340
:101BB000B3FBF0F30C4A1068B0FBF3F0FFF7DEFF65
:101BC00068B90F2C01D901200AE0002221464FF00C
:101BD000FF30FFF78DFF054B1C60002000E0012067
:101BE00010BD00BF08000020100000200C000020E5
:101BF00008B50B4B1A6842F400721A601A6842F476
:101C000080621A601A6842F480721A600320FFF73B
:101C10005DFF0F20FFF7C6FFFFF7A0FA002008BD09
:101C2000003C0240034A1168034B1B780B441360CD
:101C3000704700BF5404002008000020014B1868C2
:101C4000704700BF540400202DE9F0410646884645
:101C500017461D463468A46838EA04030CBF4FF0E9
:101C6000010C4FF0000CBC4537D0B5F1FF3FF1D06F
:101C7000FFF7E4FF069BC01AA84201D2002DE9D16C
:101C80003268536823F0E00353607368B3F5827FD2
:101C90000BD0B36AB3F5005F14D0012386F851303E
:101CA000002386F85030032018E0B368B3F5004FE6
:101CB00002D0B3F5806FECD13268136823F0400393
:101CC0001360E6E73268136823F400531360326848
:101CD000136843F400531360DFE70020BDE8F08190
:101CE00010B584B00446164B1868164BA3FB0030A1
:101CF000400D4FF47A7303FB00F003906368B3F573
:101D0000827F0BD0039BBBB1039B013B03932368F2
:101D10009B6813F0800FF5D100200EE000920B4677
:101D2000002280212046FFF78FFF30B1636D43F022
:101D300020036365032000E0002004B010BD00BF55
:101D400010000020819F5E1600283BD010B504468D
:101D50000023836290F85130002B2ED0022384F8A8
:101D600051302268136823F0400313606368A2684F
:101D70001343E26813432269134362691343A26960
:101D800002F400721343E2691343226A1343A16A07
:101D900022680B431360638B03F00403616A2268BB
:101DA0000B4353602268D36923F40063D36100209E
:101DB0006065012384F8513010BD80F85030FFF782
:101DC00095F8CBE7012070472DE9F04383B01F461B
:101DD0000A9D90F85030012B00F01081044688468F
:101DE0009146012380F85030FFF728FF064694F80B
:101DF0005130DBB26268012B0AD0B2F5827F40F02D
:101E0000E380A268002A40F0E980042B40F0E880DB
:101E1000B8F1000F00F0E680B9F1000F00F0E480A7
:101E2000002F00F0E38094F85130DBB2042B02D095
:101E3000052384F8513000236365C4F83890E787A0
:101E4000A787C4F83080E786A78623646364236885
:101E50001A6812F0400F03D11A6842F040021A606B
:101E6000E368B3F5006F11D063680BB1012F0BD19C
:101E7000226B236812781A73236B01332363E38E7A
:101E80009BB2013B9BB2E38601276BE063680BB119
:101E9000012F0BD1226B23681288DA60236B023387
:101EA0002363E38E9BB2013B9BB2E38601271CE0D8
:101EB00023689A6812F0010F0ED0E28F92B25AB1E5
:101EC000DA68A36B1A80A36B0233A363E38F9BB220
:101ED000013B9BB2E3870127FFF7B0FE801BA842BE
:101EE00003D3B5F1FF3F40F08380E38E9BB21BB973
:101EF000E38F9BB2002B53D023689A6812F0020F35
:101F0000D6D0E28E92B2002AD2D0002FD0D0226B4F
:101F10001288DA60236B02332363E38E9BB2013BAA
:101F20009BB2E3860027C3E723689A6812F0010F8B
:101F30000ED0E28F92B25AB1DA68A36B1A70A36B1B
:101F40000133A363E38F9BB2013B9BB2E38701277D
:101F5000FFF774FE831BAB4202D3B5F1FF3F49D1BB
:101F6000002D49D0E38E9BB213B9E38F9BB2BBB176
:101F700023689A6812F0020FD6D0E28E92B2002A3D
:101F8000D2D0002FD0D0226B12781A73236B01337A
:101F90002363E38E9BB2013B9BB2E3860027C3E73A
:101FA000324629462046FFF79BFE48B9A36863B92D
:101FB00001932368DA6801929B680193019B04E016
:101FC00020236365012000E00220012384F85130C2
:101FD000002384F8503003B0BDE8F0830220F4E71A
:101FE0000220F2E70120F0E70120EEE70120ECE714
:101FF0000320EAE70320E8E70320E6E70220EAE718
:1020000030B4036A23F001030362036A42688469FF
:1020100024F073040D682C4323F0020C8B6843EA10
:102020000C03104DA84203D005F58065A84205D1E8
:1020300023F00803CD682B4323F00403094DA84285
:1020400003D005F58065A84205D122F440724D69A0
:102050002A438D692A43426084614A68426303626D
:1020600030BC70470000014030B4036A23F4807331
:102070000362036A4268C46924F0730C0C6844EA82
:102080000C0523F400738C6843EA0423114CA0422E
:1020900003D004F58064A04206D123F40063CC6829
:1020A00043EA042323F480630A4CA04203D004F5DE
:1020B0008064A04207D122F440524C6942EA0412E3
:1020C0008C6942EA04124260C5614A68C2630362D5
:1020D00030BC70470000014030B4036A23F48053E1
:1020E0000362036A4468C26922F4E6420D6842EA68
:1020F000052223F400538D6843EA0533094DA842B5
:1021000003D005F58065A84204D124F480444D69CC
:1021100044EA85144460C2614A680264036230BCC8
:10212000704700BF00000140022380F83D30026884
:10213000936803F00703062B03D0136843F00103F1
:102140001360012380F83D30002070477047000085
:102150000368304A904212D0B0F1804F0FD0A2F500
:102160007C4290420BD002F58062904207D002F58B
:102170008062904203D002F57842904203D123F06E
:1021800070034A681343234A90422AD0B0F1804F2B
:1021900027D0A2F57C42904223D002F58062904283
:1021A0001FD002F5806290421BD002F57842904227
:1021B00017D002F57052904213D002F5806290421F
:1021C0000FD002F5806290420BD0A2F59832904277
:1021D00007D002F58062904203D002F580629042FF
:1021E00003D123F44073CA68134323F080034A6980
:1021F000134303608B68C3620B688362054B98428C
:1022000003D003F58063984201D10B690363012376
:102210004361704700000140B0B110B5044690F82A
:102220003D3063B1022384F83D30214651F8040B60
:10223000FFF78EFF012384F83D30002010BD80F8A9
:102240003C30FEF7E5FEEDE701207047B0B110B578
:10225000044690F83D3063B1022384F83D302146B6
:1022600051F8040BFFF774FF012384F83D30002080
:1022700010BD80F83C30FFF769FFEDE701207047A3
:1022800030B4036A23F010030362036A446882696E
:1022900022F4E6420D6842EA052223F020038D680D
:1022A00043EA0513114DA84203D005F58065A84205
:1022B00006D123F08003CD6843EA051323F04003E1
:1022C0000A4DA84203D005F58065A84207D124F441
:1022D00040644D6944EA85048D6944EA850444609C
:1022E00082614A688263036230BC7047000001402B
:1022F00038B590F83C30012B66D004460D460123DA
:1023000080F83C30022380F83D300C2A1AD8DFE8F0
:1023100002F0071919192019191934191919470048
:102320000068FFF76DFE2268936943F0080393612C
:102330002268936923F004039361226893692969F1
:102340000B439361012384F83D30002084F83C0066
:1023500038BD0068FFF794FF2268936943F4006377
:1023600093612268936923F480639361226893697F
:10237000296943EA01239361E4E70068FFF774FEEB
:102380002268D36943F00803D3612268D36923F03C
:102390000403D3612268D36929690B43D361D1E770
:1023A0000068FFF799FE2268D36943F40063D361A4
:1023B0002268D36923F48063D3612268D3692969D1
:1023C00043EA0123D361BDE70220C1E701F01F0109
:1023D000012303FA01FC036A23EA0C030362036A84
:1023E00002FA01F10B4303627047000010B5044686
:1023F00001220068FFF7EAFF23680B4A934203D0EB
:1024000002F58062934203D15A6C42F400425A644E
:102410002268936803F00703062B03D0136843F088
:1024200001031360002010BD000001400F49D1F8E6
:10243000883043F47003C1F888300D4B1A6842F0BD
:1024400001021A60002098601A6822F0847222F457
:1024500080321A60074A5A601A6822F480221A6091
:10246000D8604FF000638B60704700BF00ED00E064
:10247000003802401030002400F1080343604FF0A0
:10248000FF328260C3600361002303607047002352
:102490000361704743684B609A688A605160996035
:1024A0000861036801330360704730B40D68B5F10B
:1024B000FF3F11D000F108031C465B681A68AA426E
:1024C000FAD963684B6099608C6061600861036849
:1024D0000133036030BC70470469F2E70369416867
:1024E00082688A60416851605A68824206D0002240
:1024F00002611A68013A1A601868704782685A6067
:10250000F5E7036863B370B504468E4643685B68BD
:10251000436000F10805AB4203D06368DE68002029
:1025200015E05B684360F8E75B68636014E00133C3
:102530000F2B09D8CA1892F834201EF803C094450E
:1025400002D1002AF3D1084660B98E420AD06368EE
:102550005B6863609D42E7D06368D9680023E7E762
:102560000020704770BD0000084B1B681B6823B932
:10257000074B4FF0FF321A607047044B1B68DB6853
:10258000DB685A68024B1A60704700BF5C04002089
:10259000340500202DE9F04707469846089DDDF8F0
:1025A00024900A9C266B02F18042013A06EB8206D7
:1025B00026F007064FF0000CBCF10F0F0BD811F8F6
:1025C0000C2004EB0C0383F8342011F80C3013B109
:1025D0000CF1010CF0E7002384F84330062D00D9FC
:1025E0000625E56265644FF0000AC4F848A0201D86
:1025F000FFF74DFF04F11800FFF749FF2461C5F113
:102600000705A5616462C4F84CA084F850A0424656
:102610003946304600F00AFE2060B9F1000F01D0C3
:10262000C9F80040BDE8F08738B5002407E004EBA6
:10263000840293000E481844FFF71EFF0134062C55
:10264000F5D90C4D2846FFF717FF0B4C2046FFF736
:1026500013FF0A48FFF710FF0948FFF70DFF09486D
:10266000FFF70AFF084B1D60084B1C6038BD00BF18
:1026700064040020080500201C0500203C05002003
:1026800068050020540500205C0400206004002040
:1026900010B5044600F0F6FD214A136801331360BB
:1026A000204B1B685BB1204B1B686BB91D4B1B6833
:1026B000DA6AE36A9A4207D81A4B1C6004E0194BA5
:1026C0001C601368012B28D0184A1368013313606B
:1026D000E06A01238340164A11680B43136000EB44
:1026E0008000211D134B03EB8000FFF7D3FE00F0A9
:1026F000EBFD0D4B1B687BB10A4B1B68DA6AE36A82
:102700009A4209D24FF0E0234FF08052C3F8042DD3
:10271000BFF34F8FBFF36F8F10BDFFF785FFD3E778
:10272000F00400205804002050050020000500207F
:10273000040500206404002010B5044690F85130D0
:1027400063B1012B11D0022B0ED04FF0500383F355
:102750001188BFF36F8FBFF34F8FFEE7006B00F060
:10276000EFFC204600F0ECFC10BD00F0E9FCFBE7BC
:102770000F4B1B68D3B110B500F084FD0D4BDB6827
:10278000DC68201DFFF7AAFE0B4A1368013B1360AB
:10279000074A1368013B136000F096FD2046FFF7DF
:1027A000CBFF034B1B68002BE6D110BD704700BF69
:1027B000F404002068050020F004002008B5FFF7AD
:1027C000D7FF074B1B68012BF9D94FF0E0234FF0DF
:1027D0008052C3F8042DBFF34F8FBFF36F8FEEE726
:1027E0006404002070B504460D461D4B1E681D4B49
:1027F00018680430FFF772FE50B91A4B1B68DA6A8A
:10280000012303FA02F218490B6823EA02030B6062
:10281000B4F1FF3F0DD03444124B1B685C60A642FC
:1028200010D9124B18680F4B19680431FFF73DFEA1
:1028300070BD002DEFD00B4B196804310C48FFF729
:1028400029FEF5E70B4B1868064B19680431FFF7B2
:102850002CFE094B1B68A342EAD9074B1C60E7E733
:102860007C0500205804002004050020600400209E
:10287000540500205C0400203405002030B587B0EA
:102880000B9C7CB10C9DB5B154250495049D542D31
:102890001AD04FF0500383F31188BFF36F8FBFF34B
:1028A0004F8FFEE74FF0500383F31188BFF36F8F14
:1028B000BFF34F8FFEE74FF0500383F31188BFF350
:1028C0006F8FBFF34F8FFEE70C9D2C63022485F8BA
:1028D000514000240394029505AC01940A9C009495
:1028E000FFF758FE0C98FFF7D3FE059807B030BDF0
:1028F0002DE9F04385B00746884614461E469000F1
:1029000000F0A6FB00B38146542000F0A1FB054671
:10291000B0B1C0F83090E5B1002385F85130039391
:1029200002950D9B01930C9B009333462246414632
:102930003846FFF72FFE2846FFF7AAFE012005E0E4
:10294000484600F0FDFBE6E74FF0FF3005B0BDE87C
:10295000F0834FF0FF30F9E710B588B000240594FC
:10296000069407AA06A905A8FEF756FA059B029346
:10297000069B019300942346079A0E490E48FFF7E1
:102980007DFF0E4B186090B14FF0500383F3118818
:10299000BFF36F8FBFF34F8F094B4FF0FF321A60B9
:1029A000084B01221A60084B1C6000F005FD08B0BE
:1029B00010BD00BF68360008BD27000830050020A4
:1029C00034050020500500207C050020024A1368D1
:1029D00001331360704700BFFC040020034618B1A8
:1029E0002BB103F134007047054B1B68F8E74FF03B
:1029F000500383F31188BFF36F8FBFF34F8FFEE750
:102A000058040020F8B53A4B1B68002B64D1394BB1
:102A10001D6801351D60C5B9374B1B681B6843B184
:102A20004FF0500383F31188BFF36F8FBFF34F8FC5
:102A3000FEE7314A1168314B186810601960304A5E
:102A4000136801331360FFF78FFD2E4B1B68AB42F9
:102A500038D900272C4B1B68DB6A03EB83039A00F1
:102A60002A4B9B58012B3CD901273AE00127224BE6
:102A70001B681B6843B3204B1B68DB68DC6863681A
:102A80009D4226D3261D3046FFF728FDA36A1BB1C1
:102A900004F11800FFF722FDE36A01229A401C4965
:102AA000086802430A6003EB83039A003146174823
:102AB0001044FFF7EFFCE26A134B1B68DB6A9A4293
:102AC000D4D2D4E70027D2E70E4B4FF0FF321A6082
:102AD000C0E70C4A1360BDE70E4A13680133136068
:102AE00000270D4B1B6803B101273846F8BD00BF16
:102AF000FC0400207C0500205C0400206004002011
:102B0000380500203405002058040020640400200B
:102B100004050020F80400208005002038B5354B5E
:102B20001B6843B94FF0500383F31188BFF36F8FD5
:102B3000BFF34F8FFEE700F0A5FB2E4B1A68013A5A
:102B40001A601B68002B4FD12B4B1B680BB900245C
:102B50004BE00024294B1B681BB3284BDB68DC6867
:102B600004F11800FFF7BAFC251D2846FFF7B6FC54
:102B7000E06A01238340224A11680B43136000EB93
:102B8000800029461F4B03EB8000FFF783FCE26ABD
:102B90001D4B1B68DB6A9A42DCD31C4B01221A6076
:102BA000D8E70CB1FFF7E0FC194B1C6884B9174B50
:102BB0001C68D4B14FF0E0234FF08052C3F8042DCD
:102BC000BFF34F8FBFF36F8F01240EE0013C07D09E
:102BD000FFF718FF0028F9D00C4B01221A60F5E727
:102BE0000B4B00221A60E2E7002400F06DFB204648
:102BF00038BD00BFFC040020F00400203C0500208C
:102C000004050020640400205804002080050020F2
:102C1000F804002010B5A8B10446104B1B6843B15E
:102C20004FF0500383F31188BFF36F8FBFF34F8FC3
:102C3000FEE7FFF7CBFE00212046FFF7D3FDFFF7AD
:102C40006DFF48B94FF0E0234FF08052C3F8042DD8
:102C5000BFF34F8FBFF36F8F10BD00BFFC04002088
:102C600070B50546FDF7B4FA0F2808D94FF05003A8
:102C700083F31188BFF36F8FBFF34F8FFEE7FFF72A
:102C8000A5FE0724013C04EB84002946154B03EB09
:102C90008000FFF736FC064608B9002CF2D136B1A9
:102CA00066B196B1BEB1FFF739FF304670BD0E4B2D
:102CB00018682946FFF725FC0646F1E70B4B186814
:102CC0002946FFF71EFC0646EBE729460848FFF7B2
:102CD00018FC0646E6E729460648FFF712FC0646BA
:102CE000E1E700BF640400205C04002060040020D1
:102CF0005405002068050020204B1B681BB1204BA9
:102D000001221A6070471E4B00221A601D4B1B687F
:102D1000B3FA83F3DBB2C3F11F0303EB83018A0031
:102D200019498A5842B94FF0500383F31188BFF311
:102D30006F8FBFF34F8FFEE7134903EB83008200D1
:102D40000A4450684068506003EB830C4FEA8C02E1
:102D500008321144884209D003EB83039A000A4BDE
:102D600013445B68DA68094B1A6070474068624632
:102D70009100054A0A445060EEE700BFFC040020C1
:102D80008005002004050020640400205804002071
:102D9000054B1B6833B1054B1B680BB10020704716
:102DA000022070470120704750050020FC040020DD
:102DB00038B505460C4600F065FA1A4B1B68DB6C0B
:102DC0002BB9184B1B68012283F85020ACB900F0D6
:102DD0007BFA00F057FA134B1B68DC6C24B1DDB1B1
:102DE000104B1B680022DA640E4B1B68002283F82C
:102DF000502000F069FA204638BD11462046FFF702
:102E0000F1FC4FF0E0234FF08052C3F8042DBFF3E4
:102E10004F8FBFF36F8FDAE7024B1B68621EDA64D5
:102E2000E2E700BF58040020F8B5D8B10D460446CB
:102E300000F04EFBEFF311864FF0500383F311883F
:102E4000BFF36F8FBFF34F8F94F85030DBB2022285
:102E500084F85020E26C0132E264012B0BD086F33F
:102E60001188F8BD4FF0500383F31188BFF36F8FC3
:102E7000BFF34F8FFEE7A36A43B14FF0500383F3D4
:102E80001188BFF36F8FBFF34F8FFEE7144B1B68A2
:102E9000E3B9271D3846FFF721FBE06A0123834091
:102EA000104A11680B43136000EB800039460E4B4B
:102EB00003EB8000FFF7EEFAE26A0C4B1B68DB6A5B
:102EC0009A42CCD945B101232B60C8E704F118011F
:102ED0000748FFF7DFFAEFE7064B01221A60BEE76B
:102EE000FC04002004050020640400205804002095
:102EF0003C05002080050020842801D00330704765
:102F00000020704708B5FFF727FD002008BD2DE918
:102F1000F04387B004460F464569BDB18669AEB13E
:102F2000D0F80480D0F80090B0F90800FFF7E4FF73
:102F30000296019500903B46226949464046FFF7BC
:102F40009DFC0590059807B0BDE8F083656826688C
:102F5000D4F81080B4F90800FFF7CEFF05AB019359
:102F600000903B461FFA88F231462846FFF7C0FC26
:102F70000128E7D00020E6E708B500B90120FFF7F7
:102F800049FE002008BD0000124A12F0070F1ED0B3
:102F9000D11D21F00701C1F5705313440A460E48B4
:102FA0000260002141601344083B23F007030B48F3
:102FB000036059601960991A51601360084B1960D9
:102FC000084B1960084B4FF000421A6070474FF4ED
:102FD0007053E4E788050020944100208405002018
:102FE000904100208C41002088410020164B1A4659
:102FF0001B688342FBD3516802EB010C844509D066
:10300000416800EB010C634509D00360904219D080
:10301000106070474068014451601046F0E710B4FA
:103020000A4C2468A3420BD05B68194441601368C2
:103030001B680360904200D010605DF8044B70473D
:103040000460F7E7704700BF94410020840500202A
:1030500070B50546FFF7BAFC344B1B68A3B1344B7F
:103060001B681D424AD135B1083515F0070F02D053
:1030700025F007050835002D42D02E4B1B68AB42CA
:103080004DD32D4A146804E0FFF77EFFE7E72246A0
:103090001C466368AB4202D22368002BF7D1234B56
:1030A0001B68A3423DD01668083623681360636826
:1030B0005B1B102B10D9601910F0070F08D04FF0D0
:1030C000500383F31188BFF36F8FBFF34F8FFEE779
:1030D00043606560FFF78AFF626816490B689B1AB8
:1030E0000B60164909688B4201D214490B60104BE2
:1030F0001B68134363600023236002E0002600E0A6
:103100000026FFF70BFD16F0070F0CD04FF0500311
:1031100083F31188BFF36F8FBFF34F8FFEE7002655
:10312000EFE70026EDE7304670BD00BF84050020C4
:10313000884100208C4100209441002090410020D3
:1031400080B338B50446A0F1080550F8043C164A8F
:103150001268134208D14FF0500383F31188BFF374
:103160006F8FBFF34F8FFEE750F8081C41B14FF04F
:10317000500383F31188BFF36F8FBFF34F8FFEE7C8
:1031800023EA020340F8043CFFF720FC54F8041C37
:10319000064A13680B4413602846FFF727FFFFF722
:1031A000BDFC38BD704700BF884100208C41002025
:1031B00082B0002301930D4B1B68B3F1FF3F08D091
:1031C0004FF0500383F31188BFF36F8FBFF34F8F1E
:1031D000FEE74FF0500383F31188BFF36F8FBFF307
:1031E0004F8F019B002BFCD002B0704714000020D1
:1031F00008480068006880F308884FF0000080F3FA
:10320000148862B661B6BFF34F8FBFF36F8F00DFD4
:1032100000BF000008ED00E0DFF80C00016841F499
:10322000700101607047000088ED00E04FF080738E
:1032300040F8043C21F0010140F8081C054B40F81F
:103240000C3C40F8202C6FF0020340F8243C44383A
:10325000704700BFB131000800000000000000000E
:10326000074B19680868B0E8F04F80F30988BFF38E
:103270006F8F4FF0000080F311887047AFF300802C
:10328000580400204FF0500383F31188BFF36F8F71
:10329000BFF34F8F0B4A136801331360012B00D02B
:1032A00070474FF0E023D3F8043D13F0FF0FF7D041
:1032B0004FF0500383F31188BFF36F8FBFF34F8F2D
:1032C000FEE700BF14000020094B1B6843B94FF014
:1032D000500383F31188BFF36F8FBFF34F8FFEE767
:1032E000013B034A13600BB983F31188704700BF99
:1032F000140000200000000000000000000000009A
:10330000EFF30980BFF36F8F154B1A681EF0100F93
:1033100008BF20ED108A20E9F04F10602DE9090068
:103320004FF0500080F31188BFF34F8FBFF36F8FC2
:10333000FFF7E2FC4FF0000080F3118809BC196828
:103340000868B0E8F04F1EF0100F08BFB0EC108A0C
:1033500080F30988BFF36F8F704700BFAFF3008021
:103360005804002008B54FF0500383F31188BFF3D1
:103370006F8FBFF34F8FFFF745FB28B14FF0E0236E
:103380004FF08052C3F8042D002383F3118808BD49
:103390004FF0E022002313619361054B1B68054940
:1033A000A1FB03139B09013B536107231361704782
:1033B00010000020D34D62104FF0E023D3F8002D11
:1033C0003D4B9A421CD04FF0E023D3F8002D3B4BED
:1033D0009A421ED030B583B0394B1A78D2B20192DE
:1033E000FF221A701B78DBB28DF803309DF8033092
:1033F00003F05003334A1370334B07221A601BE06B
:103400004FF0500383F31188BFF36F8FBFF34F8FDB
:10341000FEE74FF0500383F31188BFF36F8FBFF3C4
:103420004F8FFEE7284A1368013B13609DF8033075
:103430005B00DBB28DF803309DF8033013F0800F92
:10344000F0D1214B1B68032B08D04FF0500383F3BE
:103450001188BFF36F8FBFF34F8FFEE71B021A4A2D
:10346000136003F4E0631360019BDBB2144A137032
:103470004FF0E024D4F8203D43F47003C4F8203D1D
:10348000D4F8203D43F07043C4F8203DFFF780FF9F
:1034900000250E4B1D60FFF7BFFED4F8343F43F00C
:1034A0004043C4F8343FFFF7A3FEFFF725FCFFF7C6
:1034B0007FFE284603B030BD71C20F4170C20F417C
:1034C00000E400E09C410020A04100201400002006
:1034D000EFF305830F2B0FD9114A9B5CDBB2114A26
:1034E00012789A4208D94FF0500383F31188BFF342
:1034F0006F8FBFF34F8FFEE74FF0E023D3F80C3D03
:1035000003F4E063084A1268934208D94FF050036D
:1035100083F31188BFF36F8FBFF34F8FFEE77047C0
:10352000F0E300E09C410020A0410020DFF834D00F
:10353000002103E00C4B5B58435004310B480C4B0B
:1035400042189A42F6D30B4A02E0002342F8043BA9
:10355000094B9A42F9D3FEF769FF00F011F8FDF725
:10356000C1FB7047000002208036000800000020E8
:103570001800002018000020A4410020FEE70000F1
:1035800070B50D4D0D4C641BA4100026A64209D148
:103590000B4D0C4C00F020F8641BA4100026A64232
:1035A00005D170BD55F8043B98470136EEE755F854
:1035B000043B98470136F2E7783600087836000871
:1035C000783600087C36000802440346934200D156
:1035D000704703F8011BF9E7F8B500BFF8BC08BC59
:1035E0009E467047F8B500BFF8BC08BC9E467047C1
:1035F000000000000000000048360008E504000854
:1036000000000000000000000002000000000000B8
:10361000000000000000C844CDCC4C3E000000007B
:103620007D04017C000240AB0341000553080658AD
:10363000040700000F000810820911000A15800B12
:1036400016000C18010D000054454D5000000000FC
:103650000006101600061016000000000000000012
:10366000010203040607080949444C450000000014
:08367000A0CBFF7F0100000068
:04367800B501000890
:04367C0091010008B0
:10368000E7416B3A58A08B3A01000000100000009F
:083690000024F400AAAAAAAA72
:040000050800352D8D
:00000001FF
