:020000040800F2
:1000000000000220E11900087107000873070008CA
:10001000750700087707000879070008000000004E
:100020000000000000000000000000007B07000846
:100030007D070008000000007F0700088107000816
:10004000311A0008311A0008311A0008311A000864
:10005000311A0008311A0008311A0008311A000854
:10006000311A0008311A0008311A0008311A000844
:10007000311A0008311A0008311A0008311A000834
:10008000311A0008311A0008311A0008311A000824
:10009000311A0008311A0008311A0008311A000814
:1000A000311A0008311A0008311A0008311A000804
:1000B000311A0008311A0008311A0008311A0008F4
:1000C000311A0008311A0008311A0008311A0008E4
:1000D000311A000889070008311A0008311A00088F
:1000E000311A0008311A0008311A0008311A0008C4
:1000F000311A0008311A0008311A0008311A0008B4
:10010000311A0008311A0008311A0008311A0008A3
:10011000311A0008311A0008311A0008311A000893
:10012000311A0008311A0008311A0008311A000883
:10013000311A0008311A0008311A0008311A000873
:10014000311A0008311A0008311A0008311A000863
:10015000311A0008311A0008311A0008311A000853
:10016000311A0008311A0008311A0008311A000843
:10017000311A0008311A0008311A00080000000086
:08018000311A0008311A0008D1
:1001880010B5054C237833B9044B13B10448AFF3C9
:1001980000800123237010BD0C0000200000000027
:1001A8008C1A000808B5034B1BB103490348AFF389
:1001B800008008BD00000000100000208C1A000814
:1001C80053B94AB9002908BF00281CBF4FF0FF31B6
:1001D8004FF0FF3000F074B9ADF1080C6DE904CEB2
:1001E80000F006F8DDF804E0DDE9022304B070470A
:1001F8002DE9F047089D04468E46002B4DD18A42D2
:10020800944669D9B2FA82F252B101FA02F3C2F104
:10021800200120FA01F10CFA02FC41EA030E944095
:100228004FEA1C48210CBEFBF8F61FFA8CF708FBB6
:1002380016E341EA034306FB07F199420AD91CEB8E
:10024800030306F1FF3080F01F81994240F21C81C0
:10025800023E63445B1AA4B2B3FBF8F008FB103308
:1002680044EA034400FB07F7A7420AD91CEB04043D
:1002780000F1FF3380F00A81A74240F2078164440D
:10028800023840EA0640E41B00261DB1D440002392
:10029800C5E900433146BDE8F0878B4209D9002DF6
:1002A80000F0EF800026C5E9000130463146BDE880
:1002B800F087B3FA83F6002E4AD18B4202D38242EA
:1002C80000F2F980841A61EB030301209E46002D99
:1002D800E0D0C5E9004EDDE702B9FFDEB2FA82F2EE
:1002E800002A40F09280A1EB0C014FEA1C471FFA4C
:1002F8008CFE0126200CB1FBF7F307FB131140EA33
:1003080001410EFB03F0884208D91CEB010103F1FF
:10031800FF3802D2884200F2CB804346091AA4B2C1
:10032800B1FBF7F007FB101144EA01440EFB00FE95
:10033800A64508D91CEB040400F1FF3102D2A645FA
:1003480000F2BB800846A4EB0E0440EA03409CE799
:10035800C6F12007B34022FA07FC4CEA030C20FA46
:1003680007F401FA06F31C43F9404FEA1C4900FA66
:1003780006F3B1FBF9F8200C1FFA8CFE09FB1811E3
:1003880040EA014108FB0EF0884202FA06F20BD956
:100398001CEB010108F1FF3A80F08880884240F2A6
:1003A8008580A8F102086144091AA4B2B1FBF9F0EA
:1003B80009FB101144EA014100FB0EFE8E4508D9E5
:1003C8001CEB010100F1FF346CD28E456AD902386A
:1003D800614440EA0840A0FB0294A1EB0E01A1424F
:1003E800C846A64656D353D05DB1B3EB080261EBBD
:1003F8000E0101FA07F722FA06F3F1401F43C5E997
:10040800007100263146BDE8F087C2F12003D840CC
:100418000CFA02FC21FA03F3914001434FEA1C470E
:100428001FFA8CFEB3FBF7F007FB10360B0C43EA00
:10043800064300FB0EF69E4204FA02F408D91CEBB0
:10044800030300F1FF382FD29E422DD902386344AE
:100458009B1B89B2B3FBF7F607FB163341EA03414E
:1004680006FB0EF38B4208D91CEB010106F1FF389D
:1004780016D28B4214D9023E6144C91A46EA004694
:1004880038E72E46284605E70646E3E61846F8E626
:100498004B45A9D2B9EB020864EB0C0E0138A3E76F
:1004A8004646EAE7204694E74046D1E7D0467BE750
:1004B800023B614432E7304609E76444023842E7C8
:1004C800704700BF72B6FEE700B595B03022002134
:1004D80008A801F0CFFA0023039304930593069329
:1004E800079301931F4A116C41F080511164126CFB
:1004F80002F080520192019A02931B4A116841F45A
:1005080080411160126802F480420292029A02222B
:10051800089201210B9110210C910E920F93082340
:100528001093A823119312920423139308A800F0A0
:10053800FDFC98B90F23039302230493002305932A
:100548004FF4A05306934FF480530793052103A853
:1005580000F03AFF20B915B05DF804FBFFF7B2FFD1
:10056800FFF7B0FF003802400070004008B501F006
:10057800E9F9FFF7A9FF00F047F800F085F81F4BED
:100588001B68DA6842F02002DA60DA6842F010028A
:10059800DA601B4C01224FF48051204601F0DCF850
:1005A80001224FF40061204601F0D6F801224FF4F1
:1005B8008061204601F0D0F84FF4FA7001F0EEF9AE
:1005C80000224FF48051204601F0C6F800224FF473
:1005D8000061204601F0C0F800224FF480612046F7
:1005E80001F0BAF84FF4FA7001F0D8F964230C223C
:1005F8000449024800F063FACBE700BF90000020EE
:10060800001C0240A41A000830B589B000240394E5
:1006180004940594069407940094194B1A6B42F0BD
:1006280001021A631A6B02F001020092009A019407
:100638001A6B42F002021A631A6B02F0020201926C
:10064800019A02941A6B42F080021A631B6B03F042
:1006580080030293029B0B4D22464FF4E05128463B
:1006680001F07AF84FF4E0530393012304930594BF
:10067800069403A9284600F07DFF09B030BD00BFED
:1006880000380240001C024008B50A480A4B0360C3
:100698004FF4E133436000238360C36003610C229D
:1006A80042618361C36100F0DBF900B908BDFFF75F
:1006B80009FFFBE79000002000100140F0B589B069
:1006C800002303930493059306930793026803F1A9
:1006D800804303F588339A4201D009B0F0BD002465
:1006E800009403F594335A6C42F010025A645A6C21
:1006F80002F010020092009A01941A6B42F0020272
:100708001A631A6B02F002020192019A02941A6BA0
:1007180042F001021A631B6B03F001030293029B70
:100728008023039302270497032606960725079537
:1007380003A90B4800F01EFF4FF4007303930497BE
:1007480005940696079503A9064800F013FF22466C
:100758002146252001F076F8252001F0ABF8BCE70A
:100768000004024000000240FEE7FEE7FEE7FEE765
:10077800FEE770477047704708B501F0FDF808BDFF
:1007880010B5104C204600F091FA23681A6812F050
:10079800200F0AD058680C4A1378DBB20B49C854AA
:1007A80013780133DBB2137010BD1A6812F0100F02
:1007B800FAD05B68044B1978054A117000221A7048
:1007C800F2E700BF90000020D4000020280000209D
:1007D8008C00002082B0002100910B4B5A6C42F42F
:1007E80080425A645A6C02F480420092009A019145
:1007F8001A6C42F080521A641B6C03F08053019308
:10080800019B02B0704700BF00380240026802F145
:100818000C0353E8003F23F490730C3242E8003194
:100828000029F3D1026802F1140353E8003F23F0D2
:100838000103143242E800310029F3D1036B012B84
:1008480005D0202380F83E300023036370470268F8
:1008580002F10C0353E8003F23F010030C3242E886
:1008680000310029F3D1ECE790F83D30DBB2212BC1
:1008780001D0022070478368B3F5805F17D0036A00
:100888005A1C02621A7803685A60C38C9BB2013BF7
:100898009BB2C3844BB90268D36823F08003D3604A
:1008A8000268D36843F04003D360002070470369AF
:1008B800002BE4D1036A1B880268C3F30803536062
:1008C800036A02330362E0E738B504460268136935
:1008D80023F44053C1680B431361836802691343CF
:1008E80042691343C2691A430168CB6823F416436B
:1008F80023F00C031343CB600268536923F440735D
:1009080081690B4353610368314A934206D002F56B
:100918008062934202D000F00DFE01E000F01AFE62
:10092800E369B3F5004F29D00021031849411B188A
:1009380041F10001C90041EA5371DB0018186368EE
:100948004FEA83024FEA937341F10001FFF738FC45
:10095800204DA5FB00325109642303FB11031B0141
:100968003233A5FB03235B0903F0F00202EB01120B
:1009780003F00F03216813448B6038BD002302186D
:1009880043EB0301121841F10001C90041EA527119
:10099800D200101841F10001626892185B41FFF71C
:1009A8000FFC0C4DA5FB00325109642303FB110316
:1009B800DB003233A5FB03235B095A0002F4F8720B
:1009C80002EB011203F00703216813448B60D4E79C
:1009D800001001401F85EB512DE9F84305460F46ED
:1009E80016469946DDF820802C68246837EA040307
:1009F8000CBF4FF0010C4FF0000CB4452DD1B8F1ED
:100A0800FF3FF1D0B8F1000F05D000F0C1FFA0EB17
:100A180009004045E8D92A6802F10C0353E8003F71
:100A280023F4D0730C3242E800310029F3D12A684C
:100A380002F1140353E8003F23F00103143242E8A3
:100A480000310029F3D1202385F83D3085F83E3068
:100A5800002385F83C30032000E00020BDE8F8833F
:100A680058B310B5044690F83D300BB3242384F8EE
:100A78003D302268D36823F40053D3602046FFF743
:100A880023FF2268136923F4904313612268536992
:100A980023F02A0353612268D36843F40053D360D8
:100AA80000202064202384F83D3084F83E3010BDB7
:100AB80080F83C30FFF702FED8E7012070472DE9A7
:100AC800F04182B01E4690F83D30DBB2202B54D165
:100AD80004460D469046002953D0002A53D090F87A
:100AE8003C30012B51D0012380F83C3000230364B3
:100AF800212380F83D3000F04BFF0746A4F82480FE
:100B0800A4F82680A368B3F5805F05D04FF00008ED
:100B1800002384F83C3012E0236913B14FF0000839
:100B2800F6E7A8460025F3E738F8023B2268C3F346
:100B380008035360E28C92B2013A92B2E284E38CE9
:100B48009BB273B100963B46002280212046FFF7F6
:100B580043FFE0B9002DE7D015F8012B23685A6050
:100B6800E8E700963B46002240212046FFF734FF85
:100B780078B9202384F83D3000E0022002B0BDE8B7
:100B8800F0810120FAE70120F8E70220F6E70320C8
:100B9800F4E70320F2E7704708B50168CA6822F055
:100BA8004002CA60202280F83D20FFF7F4FF0020B1
:100BB80008BD7047704708B5806B0023C385C384A0
:100BC800FFF7F8FF08BD704790F83E30DBB2222BE4
:100BD80067D18368B3F5805F4DD0826AB3F5805FD3
:100BE80004D0002B54D10369002B51D103685B68F2
:100BF8001370836A01338362C38D9BB2013B9BB23E
:100C0800C385002B4FD100B583B00268D36823F0A9
:100C18002003D3600268D36823F48073D36002682A
:100C2800536923F001035361202380F83E30036B9E
:100C3800012B33D100230363026802F10C0353E84C
:100C4800003F23F010030C3242E800310029F3D1B1
:100C580003681A6812F0100F06D0002201921A6871
:100C680001925B680193019B818DFFF7ACFF002027
:100C780003B05DF804FB0269002AAED1826A0368FA
:100C88005B68C3F308031380836A02338362B3E7A4
:100C980003685B6803F07F031370AAE7FFF789FF17
:100CA800E5E70220704700207047000030B583B0A8
:100CB800044602681368D068516913F00F0505D11E
:100CC80013F0200F02D010F0200F19D12DB111F020
:100CD800010119D110F4907F16D1216B01297DD023
:100CE80013F0800F03D010F0800F40F0158113F03F
:100CF800400F03D010F0400F40F0128103B030BD18
:100D08002046FFF761FFF9E713F0010F06D010F452
:100D1800807F03D0226C42F00102226413F0040F9A
:100D280004D019B1226C42F00202226413F0020FBF
:100D380004D019B1226C42F00402226413F0080FA7
:100D480007D010F0200F00D119B1226C42F0080230
:100D58002264226C002AD1D013F0200F02D010F0A8
:100D6800200F29D123685B6903F04003226C12F03D
:100D7800080F00D163B32046FFF748FD23685B697D
:100D880013F0400F20D0226802F1140353E8003F0B
:100D980023F04003143242E800310029F3D1A36B59
:100DA80073B1614A1A65A06B00F026FD0028A5D032
:100DB800A06B036D9847A1E72046FFF705FFD1E731
:100DC8002046FFF7F7FE99E72046FFF7F3FE95E781
:100DD8002046FFF7EFFE002323648FE713F0100F80
:100DE8003FF47EAF10F0100F3FF47AAF0023019369
:100DF8001368019353680193019B536913F0400FE3
:100E080050D0A26B13685B689BB2002B3FF476AF9F
:100E1800A18D99427FF672AFE385D369B3F5807FE0
:100E280037D0226802F10C0353E8003F23F48073A3
:100E38000C3242E800310029F3D1226802F1140390
:100E480053E8003F23F00103143242E8003100293F
:100E5800F3D1226802F1140353E8003F23F0400362
:100E6800143242E800310029F3D1202384F83E30BF
:100E780000232363226802F10C0353E8003F23F0A8
:100E880010030C3242E800310029F3D1A06B00F0C6
:100E980069FCA18DE38D9BB2C91A89B22046FFF780
:100EA80092FE2BE7A18DE38D9BB2C91A89B2E38D1F
:100EB8009BB2002B3FF422AF00293FF41FAF2268FA
:100EC80002F10C0353E8003F23F490730C3242E81C
:100ED80000300028F3D1226802F1140353E8003FE0
:100EE80023F00103143242E800300028F3D1202314
:100EF80084F83E3000232363226802F10C0353E890
:100F0800003F23F010030C3242E800300028F3D1F0
:100F18002046FFF758FEF1E62046FFF7A5FCEDE670
:100F28002046FFF739FEE9E6BF0B0008002800F06D
:100F3800E08170B582B00446036813F0010F3BD01E
:100F48009F4B9B6803F00C03042B2CD09C4B9B6895
:100F580003F00C03082B21D06368B3F5803F4FD012
:100F6800B3F5A02F52D0964B1A6822F480321A603B
:100F78001A6822F480221A606368002B50D000F0AF
:100F880007FD05468E4B1B6813F4003F14D100F093
:100F9800FFFC401B6428F5D90320B1E1884B5B684E
:100FA80013F4800FD8D0864B1B6813F4003F03D08E
:100FB8006368002B00F09F81236813F0020F54D060
:100FC8007F4B9B6813F00C0F3ED07D4B9B6803F062
:100FD8000C03082B33D0E368002B68D0794B01222F
:100FE8001A6000F0D5FC0546754B1B6813F0020F1C
:100FF80054D100F0CDFC401B0228F5D903207FE135
:101008006F4A136843F480331360B5E76C4B1A6872
:1010180042F480221A601A6842F480321A60ABE700
:1010280000F0B6FC0546664B1B6813F4003FC3D0BE
:1010380000F0AEFC401B6428F5D9032060E1604B4A
:101048005B6813F4800FC6D15D4B1B6813F0020F69
:1010580003D0E368012B40F05081594A136823F00C
:10106800F803216943EAC1031360236813F0080FEA
:1010780042D063696BB3534B0122C3F8802E00F052
:1010880087FC05464E4B5B6F13F0020F34D100F01E
:101098007FFC401B0228F5D9032031E1484A136838
:1010A80023F0F803216943EAC1031360DDE7454BE8
:1010B80000221A6000F06CFC0546414B1B6813F0D7
:1010C800020FD2D000F064FC401B0228F5D903209F
:1010D80016E13C4B0022C3F8802E00F059FC05466F
:1010E800374B5B6F13F0020F06D000F051FC401B2A
:1010F8000228F5D9032003E1236813F0040F77D001
:101108002F4B1B6C13F0805F33D1002301932C4BC2
:101118001A6C42F080521A641B6C03F080530193DE
:10112800019B0125284B1B6813F4807F23D0A368FB
:10113800012B34D0052B38D0214B1A6F22F0010235
:101148001A671A6F22F004021A67A368002B3DD0B1
:1011580000F01EFC06461A4B1B6F13F0020F46D117
:1011680000F016FC801B41F288339842F3D9032023
:10117800C6E00025D6E7144A136843F48073136069
:1011880000F006FC0646104B1B6813F4807FCED196
:1011980000F0FEFB801B0228F5D90320B0E0084AC6
:1011A800136F43F001031367CFE7054B1A6F42F043
:1011B80004021A671A6F42F001021A67C5E700BFF6
:1011C80000380240000047420070004000F0E0FB99
:1011D8000646524B1B6F13F0020F08D000F0D8FBE5
:1011E800801B41F288339842F3D9032088E0EDB997
:1011F800A369002B00F08380484A926802F00C0231
:10120800082A51D0022B17D0454B00221A6600F04D
:10121800BFFB0446414B1B6813F0007F42D000F02F
:10122800B7FB001B0228F5D9032069E03B4A136C81
:1012380023F080531364DBE7394B00221A6600F071
:10124800A7FB0546354B1B6813F0007F06D000F05E
:101258009FFB401B0228F5D9032051E0E369226A6D
:101268001343626A43EA8213A26A5208013A43EAC4
:101278000243E26A43EA0263284A5360284B012288
:101288001A6600F085FB0446244B1B6813F0007FA8
:1012980006D100F07DFB001B0228F5D903202FE0C2
:1012A80000202DE000202BE0012B2BD01B4B5B688E
:1012B80003F48001E269914226D103F03F02216ADA
:1012C8008A4223D1616A47F6C0721A40B2EB811F85
:1012D8001ED103F44031A26A5208013AB1EB024F21
:1012E80018D103F07063E26AB3EB026F14D10020E7
:1012F80006E001207047012002E0012000E0002004
:1013080002B070BD0120FBE70120F9E70120F7E7F3
:101318000120F5E70120F3E70120F1E7003802405A
:101328000000474208B5254B9B6803F00C03042BCB
:101338003FD0082B3FD1214B5A6802F03F025B682F
:1013480013F4800F12D01D4B5968C1F388111C4843
:101358000023A1FB0001FEF733FF184B5B68C3F3C2
:10136800014301335B00B0FBF3F025E0134B5968F0
:10137800C1F3881C4FEA4C11B1EB0C006EEB0E0E5A
:101388004FEA8E1343EA90638101091A63EB0E0357
:10139800DB0043EA5173C90011EB0C0C43F1000365
:1013A800990200234FEA8C2041EA9C51FEF708FF7E
:1013B800D3E7034800E0034808BD00BF00380240F7
:1013C800001BB7000024F400002800F09B8070B5D3
:1013D8000D4604464F4B1B6803F007038B4208D2A7
:1013E800CBB24C4A1370136803F007038B4240F0EA
:1013F8008B80236813F0020F17D013F0040F04D06A
:10140800454A936843F4E0539360236813F0080F48
:1014180004D0414A936843F4604393603E4A93681A
:1014280023F0F003A1680B439360236813F0010FC6
:1014380032D06368012B21D09A1E012A25D9364A59
:10144800126812F0020F61D033498A6822F0030251
:1014580013438B6000F09CFA06462F4B9B6803F001
:101468000C036268B3EB820F16D000F091FA801B70
:1014780041F288339842F0D9032042E0264A1268A4
:1014880012F4003FE0D101203BE0234A126812F039
:10149800007FD9D1012034E01E4B1B6803F00703FD
:1014A800AB4207D9EAB21B4B1A701B6803F007035B
:1014B800AB422DD1236813F0040F06D0164A936867
:1014C80023F4E053E1680B439360236813F0080F9B
:1014D80007D0114A936823F46043216943EAC103A2
:1014E8009360FFF71FFF0C4B9B68C3F303130B4A72
:1014F800D35CD8400A4B18600A4B186800F0FCF916
:10150800002070BD012070470120FAE70120F8E7AC
:101518000120F6E7003C024000380240B01A0008FB
:101528000800002004000020014B1868704700BF25
:101538000800002008B5FFF7F7FF044B9B68C3F3CA
:101548008223034AD35CD84008BD00BF003802405C
:10155800C01A000808B5FFF7E7FF044B9B68C3F300
:101568004233034AD35CD84008BD00BF003802406C
:10157800C01A000800230F2B00F2E48070B582B077
:1015880060E085685E000324B44025EA0405CC6861
:10159800B4402C438460456825EA02054C68C4F3CE
:1015A80000129A402A4342605AE0DC08083450F896
:1015B800246003F0070295000F22AA4026EA020ED3
:1015C8000A69AA4042EA0E0240F824205CE0072299
:1015D80000E0002202FA0EF22A4302345A4D45F87E
:1015E80024205A4A94686FEA0C0224EA0C054E68D3
:1015F80016F4801F01D04CEA0405544CA560E46839
:1016080002EA04054E6816F4001F01D04CEA0405EE
:101618004E4CE560646802EA04054E6816F4003F23
:1016280001D04CEA0405494C6560246822404D68A5
:1016380015F4803F01D04CEA0402444C2260013387
:101648000F2B7DD801229A400C6804EA020C32EA7A
:101658000404F4D14C6804F00304013C012C90D933
:101668004A6802F00302032A09D0C4685D00032215
:10167800AA4024EA02048A68AA402243C2604A684F
:1016880002F00302022A90D004684FEA430E0322B4
:1016980002FA0EF224EA02044A6802F0030202FA8D
:1016A8000EF2224302604A6812F4403FC7D000227B
:1016B8000192274A546C44F480445464526C02F4F6
:1016C80080420192019A9C08A51C1F4A52F8255095
:1016D80003F003024FEA820E0F2202FA0EF225EA05
:1016E80002051C4A90423FF474AF02F580629042B2
:1016F8001AD002F58062904218D002F580629042BA
:1017080016D002F58062904214D002F580629042B1
:1017180012D002F58062904210D002F580629042A9
:101728003FF455AF082255E7012253E7022251E75B
:1017380003224FE704224DE705224BE7062249E73B
:1017480002B070BD704700BF00380140003C014046
:1017580000380240000002400AB181617047090464
:101768008161704770B50446866D00F011F994F8F0
:101778003530DBB2022B06D080236365002384F862
:101788003430012070BD05462268136823F0160323
:1017980013602268536923F080035361236CE3B11B
:1017A8002268136823F0080313602268136823F083
:1017B8000103136023681B6813F0010F11D000F0B8
:1017C800E7F8431B052BF5D920236365032084F82C
:1017D8003500002384F83430D4E7A36C002BDFD124
:1017E800E3E7E26D3F239340B360012384F835308B
:1017F800002084F83400C5E790F83530DBB2022BBE
:1018080003D08023436501207047052380F83530D5
:101818000268136823F0010313600020704700007A
:10182800074AD36823F4E0631B041B0C000200F48E
:10183800E060034343F0BF6343F40033D360704771
:1018480000ED00E000B5194BDB68C3F30223C3F1D8
:10185800070CBCF1040F28BF4FF0040C03F1040E71
:10186800BEF1060F18D9033B4FF0FF3E0EFA0CFCF1
:1018780021EA0C0199400EFA03F322EA0303194303
:1018880000280BDB0901C9B200F1604000F5614096
:1018980080F800135DF804FB0023E5E700F00F0073
:1018A8000901C9B2024B1954F4E700BF00ED00E08A
:1018B80014ED00E0002807DB00F01F0240090123B7
:1018C8009340024A42F82030704700BF00E100E030
:1018D8000138B0F1807F0BD24FF0E0235861054A00
:1018E800F02182F823100020986107221A617047BE
:1018F8000120704700ED00E010B504460E4B187843
:101908004FF47A73B3FBF0F30C4A1068B0FBF3F0B2
:10191800FFF7DEFF68B90F2C01D901200AE0002289
:1019280021464FF0FF30FFF78DFF054B1C6000206C
:1019380000E0012010BD00BF0000002008000020CA
:101948000400002008B50B4B1A6842F400721A60B4
:101958001A6842F480621A601A6842F480721A6047
:101968000320FFF75DFF0F20FFF7C6FFFEF732FFEA
:10197800002008BD003C0240034A1168034B1B7855
:101988000B441360704700BFD800002000000020FF
:10199800014B1868704700BFD800002038B50446CE
:1019A800FFF7F6FF0546B4F1FF3F02D0044B1B7862
:1019B8001C44FFF7EDFF401BA042FAD338BD00BF1F
:1019C80000000020034AD2F8883043F47003C2F8BC
:1019D8008830704700ED00E0DFF834D00D480E493C
:1019E8000E4A002302E0D458C4500433C4188C4271
:1019F800F9D30B4A0B4C002301E013600432A242D6
:101A0800FBD3FFF7DFFF00F011F8FEF7AFFD7047DB
:101A180000000220000000200C000020D81A000856
:101A28000C000020DC000020FEE7000070B50D4D22
:101A38000D4C641BA4100026A64209D10B4D0C4C7A
:101A480000F020F8641BA4100026A64205D170BD42
:101A580055F8043B98470136EEE755F8043B98479C
:101A68000136F2E7D01A0008D01A0008D01A000888
:101A7800D41A000802440346934200D1704703F881
:101A8800011BF9E7F8B500BFF8BC08BC9E467047D3
:0C1A9800F8B500BFF8BC08BC9E467047C3
:101AA4004142434142430D0A00000000000000008F
:101AB40000000000010203040607080900000000FA
:041AC4000102030414
:081AC80030E7FF7F0100000080
:041AD000AD0100085C
:041AD400890100087C
:0C1AD80001000000100000000024F400D9
:04000005080019E1F5
:00000001FF
